{
  "contractName": "Betting",
  "abi": [
    {
      "inputs": [],
      "payable": false,
      "stateMutability": "nonpayable",
      "type": "constructor"
    },
    {
      "anonymous": false,
      "inputs": [
        {
          "indexed": false,
          "internalType": "address",
          "name": "from",
          "type": "address"
        },
        {
          "indexed": false,
          "internalType": "address",
          "name": "to",
          "type": "address"
        },
        {
          "indexed": false,
          "internalType": "uint256",
          "name": "amount",
          "type": "uint256"
        }
      ],
      "name": "Sent",
      "type": "event"
    },
    {
      "payable": true,
      "stateMutability": "payable",
      "type": "fallback"
    },
    {
      "constant": true,
      "inputs": [],
      "name": "owner",
      "outputs": [
        {
          "internalType": "address payable",
          "name": "",
          "type": "address"
        }
      ],
      "payable": false,
      "stateMutability": "view",
      "type": "function"
    },
    {
      "constant": true,
      "inputs": [
        {
          "internalType": "address",
          "name": "",
          "type": "address"
        }
      ],
      "name": "playerInfo",
      "outputs": [
        {
          "internalType": "uint256",
          "name": "amountBet",
          "type": "uint256"
        },
        {
          "internalType": "uint8",
          "name": "typeSelected",
          "type": "uint8"
        },
        {
          "internalType": "bool",
          "name": "isBetSet",
          "type": "bool"
        },
        {
          "internalType": "uint256",
          "name": "prize",
          "type": "uint256"
        },
        {
          "internalType": "uint256",
          "name": "monetToPay",
          "type": "uint256"
        }
      ],
      "payable": false,
      "stateMutability": "view",
      "type": "function"
    },
    {
      "constant": false,
      "inputs": [],
      "name": "kill",
      "outputs": [],
      "payable": false,
      "stateMutability": "nonpayable",
      "type": "function"
    },
    {
      "constant": false,
      "inputs": [
        {
          "internalType": "uint8",
          "name": "_typeSelected",
          "type": "uint8"
        },
        {
          "internalType": "enum Betting.Symbol[]",
          "name": "_symbols",
          "type": "uint8[]"
        },
        {
          "internalType": "enum Betting.Color[]",
          "name": "_colors",
          "type": "uint8[]"
        }
      ],
      "name": "bet",
      "outputs": [],
      "payable": true,
      "stateMutability": "payable",
      "type": "function"
    },
    {
      "constant": false,
      "inputs": [
        {
          "internalType": "enum Betting.Symbol[]",
          "name": "_symbol",
          "type": "uint8[]"
        },
        {
          "internalType": "enum Betting.Color[]",
          "name": "_color",
          "type": "uint8[]"
        }
      ],
      "name": "setResult",
      "outputs": [],
      "payable": false,
      "stateMutability": "nonpayable",
      "type": "function"
    },
    {
      "constant": false,
      "inputs": [],
      "name": "distributePrize",
      "outputs": [],
      "payable": false,
      "stateMutability": "nonpayable",
      "type": "function"
    },
    {
      "constant": false,
      "inputs": [],
      "name": "cashOut",
      "outputs": [],
      "payable": false,
      "stateMutability": "nonpayable",
      "type": "function"
    },
    {
      "constant": false,
      "inputs": [],
      "name": "reset",
      "outputs": [],
      "payable": false,
      "stateMutability": "nonpayable",
      "type": "function"
    },
    {
      "constant": true,
      "inputs": [
        {
          "internalType": "uint256",
          "name": "diceNo",
          "type": "uint256"
        }
      ],
      "name": "getDiceSymbol",
      "outputs": [
        {
          "internalType": "enum Betting.Symbol",
          "name": "",
          "type": "uint8"
        }
      ],
      "payable": false,
      "stateMutability": "view",
      "type": "function"
    },
    {
      "constant": true,
      "inputs": [
        {
          "internalType": "uint256",
          "name": "diceNo",
          "type": "uint256"
        }
      ],
      "name": "getDiceColor",
      "outputs": [
        {
          "internalType": "enum Betting.Color",
          "name": "",
          "type": "uint8"
        }
      ],
      "payable": false,
      "stateMutability": "view",
      "type": "function"
    },
    {
      "constant": true,
      "inputs": [],
      "name": "getBetStatus",
      "outputs": [
        {
          "internalType": "bool",
          "name": "",
          "type": "bool"
        }
      ],
      "payable": false,
      "stateMutability": "view",
      "type": "function"
    },
    {
      "constant": true,
      "inputs": [],
      "name": "getContractBalance",
      "outputs": [
        {
          "internalType": "uint256",
          "name": "",
          "type": "uint256"
        }
      ],
      "payable": false,
      "stateMutability": "view",
      "type": "function"
    },
    {
      "constant": true,
      "inputs": [],
      "name": "getAmountToPay",
      "outputs": [
        {
          "internalType": "uint256",
          "name": "",
          "type": "uint256"
        }
      ],
      "payable": false,
      "stateMutability": "view",
      "type": "function"
    },
    {
      "constant": false,
      "inputs": [],
      "name": "paybyDealer",
      "outputs": [],
      "payable": true,
      "stateMutability": "payable",
      "type": "function"
    },
    {
      "constant": false,
      "inputs": [
        {
          "internalType": "address payable",
          "name": "playerAddress",
          "type": "address"
        }
      ],
      "name": "singleDiceSymbolWinner",
      "outputs": [
        {
          "internalType": "uint256",
          "name": "times",
          "type": "uint256"
        }
      ],
      "payable": false,
      "stateMutability": "nonpayable",
      "type": "function"
    },
    {
      "constant": false,
      "inputs": [
        {
          "internalType": "address payable",
          "name": "playerAddress",
          "type": "address"
        }
      ],
      "name": "pairDiceSymbolWinner",
      "outputs": [
        {
          "internalType": "uint256",
          "name": "times",
          "type": "uint256"
        }
      ],
      "payable": false,
      "stateMutability": "nonpayable",
      "type": "function"
    },
    {
      "constant": false,
      "inputs": [
        {
          "internalType": "address payable",
          "name": "playerAddress",
          "type": "address"
        }
      ],
      "name": "tripleDiceSymbolWinner",
      "outputs": [
        {
          "internalType": "uint256",
          "name": "times",
          "type": "uint256"
        }
      ],
      "payable": false,
      "stateMutability": "nonpayable",
      "type": "function"
    },
    {
      "constant": false,
      "inputs": [
        {
          "internalType": "address payable",
          "name": "playerAddress",
          "type": "address"
        }
      ],
      "name": "singleDiceColorWinner",
      "outputs": [
        {
          "internalType": "uint256",
          "name": "times",
          "type": "uint256"
        }
      ],
      "payable": false,
      "stateMutability": "nonpayable",
      "type": "function"
    },
    {
      "constant": false,
      "inputs": [
        {
          "internalType": "address payable",
          "name": "playerAddress",
          "type": "address"
        }
      ],
      "name": "pairDiceColorWinner",
      "outputs": [
        {
          "internalType": "uint256",
          "name": "times",
          "type": "uint256"
        }
      ],
      "payable": false,
      "stateMutability": "nonpayable",
      "type": "function"
    },
    {
      "constant": false,
      "inputs": [
        {
          "internalType": "address payable",
          "name": "playerAddress",
          "type": "address"
        }
      ],
      "name": "tripleDiceColorWinner",
      "outputs": [
        {
          "internalType": "uint256",
          "name": "times",
          "type": "uint256"
        }
      ],
      "payable": false,
      "stateMutability": "nonpayable",
      "type": "function"
    }
  ],
  "bytecode": "0x60806040526006600360006101000a81548160ff021916908360ff16021790555034801561002c57600080fd5b50336000806101000a81548173ffffffffffffffffffffffffffffffffffffffff021916908373ffffffffffffffffffffffffffffffffffffffff160217905550655af3107a4000600181905550662386f26fc10000600281905550612b47806100976000396000f3fe60806040526004361061011f5760003560e01c8063793cd71e116100a0578063da9fb5bd11610064578063da9fb5bd146105d3578063dc96cbe314610638578063e6ae066d14610791578063eaa379d9146107f6578063fc1abdde1461085b5761011f565b8063793cd71e146105195780638da5cb5b146105305780639de111b014610587578063d040e987146105b2578063d826f88f146105bc5761011f565b8063594ecf76116100e7578063594ecf76146102bc57806363a8f2d5146103215780636c3e02661461047a5780636f9fb98a146104d757806377b6e504146105025761011f565b8063083341b3146101215780631fa859e8146101865780633f608d1b146101b557806341c0e1b51461021a5780634b11469114610231575b005b34801561012d57600080fd5b506101706004803603602081101561014457600080fd5b81019080803573ffffffffffffffffffffffffffffffffffffffff1690602001909291905050506108b8565b6040518082815260200191505060405180910390f35b34801561019257600080fd5b5061019b610bd9565b604051808215151515815260200191505060405180910390f35b3480156101c157600080fd5b50610204600480360360208110156101d857600080fd5b81019080803573ffffffffffffffffffffffffffffffffffffffff169060200190929190505050610c30565b6040518082815260200191505060405180910390f35b34801561022657600080fd5b5061022f610f0d565b005b34801561023d57600080fd5b506102806004803603602081101561025457600080fd5b81019080803573ffffffffffffffffffffffffffffffffffffffff169060200190929190505050610f9e565b604051808681526020018560ff1660ff168152602001841515151581526020018381526020018281526020019550505050505060405180910390f35b3480156102c857600080fd5b5061030b600480360360208110156102df57600080fd5b81019080803573ffffffffffffffffffffffffffffffffffffffff169060200190929190505050610fee565b6040518082815260200191505060405180910390f35b6104786004803603606081101561033757600080fd5b81019080803560ff1690602001909291908035906020019064010000000081111561036157600080fd5b82018360208201111561037357600080fd5b8035906020019184602083028401116401000000008311171561039557600080fd5b919080806020026020016040519081016040528093929190818152602001838360200280828437600081840152601f19601f820116905080830192505050505050509192919290803590602001906401000000008111156103f557600080fd5b82018360208201111561040757600080fd5b8035906020019184602083028401116401000000008311171561042957600080fd5b919080806020026020016040519081016040528093929190818152602001838360200280828437600081840152601f19601f8201169050808301925050505050505091929192905050506112f7565b005b34801561048657600080fd5b506104b36004803603602081101561049d57600080fd5b8101908080359060200190929190505050611597565b604051808260058111156104c357fe5b60ff16815260200191505060405180910390f35b3480156104e357600080fd5b506104ec611608565b6040518082815260200191505060405180910390f35b34801561050e57600080fd5b50610517611610565b005b34801561052557600080fd5b5061052e6119cf565b005b34801561053c57600080fd5b50610545611d20565b604051808273ffffffffffffffffffffffffffffffffffffffff1673ffffffffffffffffffffffffffffffffffffffff16815260200191505060405180910390f35b34801561059357600080fd5b5061059c611d45565b6040518082815260200191505060405180910390f35b6105ba611d8f565b005b3480156105c857600080fd5b506105d1611e5e565b005b3480156105df57600080fd5b50610622600480360360208110156105f657600080fd5b81019080803573ffffffffffffffffffffffffffffffffffffffff169060200190929190505050611f02565b6040518082815260200191505060405180910390f35b34801561064457600080fd5b5061078f6004803603604081101561065b57600080fd5b810190808035906020019064010000000081111561067857600080fd5b82018360208201111561068a57600080fd5b803590602001918460208302840111640100000000831117156106ac57600080fd5b919080806020026020016040519081016040528093929190818152602001838360200280828437600081840152601f19601f8201169050808301925050505050505091929192908035906020019064010000000081111561070c57600080fd5b82018360208201111561071e57600080fd5b8035906020019184602083028401116401000000008311171561074057600080fd5b919080806020026020016040519081016040528093929190818152602001838360200280828437600081840152601f19601f82011690508083019250505050505050919291929050505061221d565b005b34801561079d57600080fd5b506107e0600480360360208110156107b457600080fd5b81019080803573ffffffffffffffffffffffffffffffffffffffff16906020019092919050505061235a565b6040518082815260200191505060405180910390f35b34801561080257600080fd5b506108456004803603602081101561081957600080fd5b81019080803573ffffffffffffffffffffffffffffffffffffffff16906020019092919050505061267b565b6040518082815260200191505060405180910390f35b34801561086757600080fd5b506108946004803603602081101561087e57600080fd5b810190808035906020019092919050505061299c565b604051808260028111156108a457fe5b60ff16815260200191505060405180910390f35b60006108c2612a0d565b600460008473ffffffffffffffffffffffffffffffffffffffff1673ffffffffffffffffffffffffffffffffffffffff1681526020019081526020016000206040518060e0016040529081600082015481526020016001820160009054906101000a900460ff1660ff1660ff16815260200160028201805480602002602001604051908101604052809291908181526020016000905b828210156109e0578382906000526020600020016040518060400160405290816000820160009054906101000a900460ff16600581111561099557fe5b60058111156109a057fe5b81526020016000820160019054906101000a900460ff1660028111156109c257fe5b60028111156109cd57fe5b8152505081526020019060010190610958565b5050505081526020016003820160009054906101000a900460ff1615151515815260200160048201805480602002602001604051908101604052809291908181526020016000905b82821015610ab0578382906000526020600020016040518060400160405290816000820160009054906101000a900460ff166005811115610a6557fe5b6005811115610a7057fe5b81526020016000820160019054906101000a900460ff166002811115610a9257fe5b6002811115610a9d57fe5b8152505081526020019060010190610a28565b505050508152602001600582015481526020016006820154815250509050606081608001519050600080905060008090505b836040015151811015610bb65760008090505b8351811015610ba857838181518110610b0a57fe5b6020026020010151602001516002811115610b2157fe5b85604001518381518110610b3157fe5b6020026020010151602001516002811115610b4857fe5b1415610b9b57828060010193505084604001518281518110610b6657fe5b60200260200101610b75612a4f565b815250838181518110610b8457fe5b60200260200101610b93612a4f565b815250610ba8565b8080600101915050610af5565b508080600101915050610ae2565b506003811415610bc95760079350610bce565b600093505b839350505050919050565b6000600460003373ffffffffffffffffffffffffffffffffffffffff1673ffffffffffffffffffffffffffffffffffffffff16815260200190815260200160002060030160009054906101000a900460ff16905090565b6000610c3a612a0d565b600460008473ffffffffffffffffffffffffffffffffffffffff1673ffffffffffffffffffffffffffffffffffffffff1681526020019081526020016000206040518060e0016040529081600082015481526020016001820160009054906101000a900460ff1660ff1660ff16815260200160028201805480602002602001604051908101604052809291908181526020016000905b82821015610d58578382906000526020600020016040518060400160405290816000820160009054906101000a900460ff166005811115610d0d57fe5b6005811115610d1857fe5b81526020016000820160019054906101000a900460ff166002811115610d3a57fe5b6002811115610d4557fe5b8152505081526020019060010190610cd0565b5050505081526020016003820160009054906101000a900460ff1615151515815260200160048201805480602002602001604051908101604052809291908181526020016000905b82821015610e28578382906000526020600020016040518060400160405290816000820160009054906101000a900460ff166005811115610ddd57fe5b6005811115610de857fe5b81526020016000820160019054906101000a900460ff166002811115610e0a57fe5b6002811115610e1557fe5b8152505081526020019060010190610da0565b505050508152602001600582015481526020016006820154815250509050606081608001519050600080905060008090505b836040015151811015610eea5760008090505b8351811015610edc57838181518110610e8257fe5b6020026020010151600001516005811115610e9957fe5b85604001518381518110610ea957fe5b6020026020010151600001516005811115610ec057fe5b1415610ecf5782806001019350505b8080600101915050610e6d565b508080600101915050610e5a565b506003811415610efd5760079350610f02565b600093505b839350505050919050565b6000809054906101000a900473ffffffffffffffffffffffffffffffffffffffff1673ffffffffffffffffffffffffffffffffffffffff163373ffffffffffffffffffffffffffffffffffffffff161415610f9c576000809054906101000a900473ffffffffffffffffffffffffffffffffffffffff1673ffffffffffffffffffffffffffffffffffffffff16ff5b565b60046020528060005260406000206000915090508060000154908060010160009054906101000a900460ff16908060030160009054906101000a900460ff16908060050154908060060154905085565b6000610ff8612a0d565b600460008473ffffffffffffffffffffffffffffffffffffffff1673ffffffffffffffffffffffffffffffffffffffff1681526020019081526020016000206040518060e0016040529081600082015481526020016001820160009054906101000a900460ff1660ff1660ff16815260200160028201805480602002602001604051908101604052809291908181526020016000905b82821015611116578382906000526020600020016040518060400160405290816000820160009054906101000a900460ff1660058111156110cb57fe5b60058111156110d657fe5b81526020016000820160019054906101000a900460ff1660028111156110f857fe5b600281111561110357fe5b815250508152602001906001019061108e565b5050505081526020016003820160009054906101000a900460ff1615151515815260200160048201805480602002602001604051908101604052809291908181526020016000905b828210156111e6578382906000526020600020016040518060400160405290816000820160009054906101000a900460ff16600581111561119b57fe5b60058111156111a657fe5b81526020016000820160019054906101000a900460ff1660028111156111c857fe5b60028111156111d357fe5b815250508152602001906001019061115e565b505050508152602001600582015481526020016006820154815250509050606081608001519050600080905060008090505b8360400151518110156112e85760008090505b83518110156112da5783818151811061124057fe5b602002602001015160000151600581111561125757fe5b8560400151838151811061126757fe5b602002602001015160000151600581111561127e57fe5b14156112cd5782806001019350508460400151828151811061129c57fe5b602002602001016112ab612a4f565b8152508381815181106112ba57fe5b602002602001016112c9612a4f565b8152505b808060010191505061122b565b508080600101915050611218565b50809350839350505050919050565b600154341015801561130b57506002543411155b611360576040517f08c379a000000000000000000000000000000000000000000000000000000000815260040180806020018281038252602b815260200180612ae8602b913960400191505060405180910390fd5b34600460003373ffffffffffffffffffffffffffffffffffffffff1673ffffffffffffffffffffffffffffffffffffffff1681526020019081526020016000206000018190555082600460003373ffffffffffffffffffffffffffffffffffffffff1673ffffffffffffffffffffffffffffffffffffffff16815260200190815260200160002060010160006101000a81548160ff021916908360ff1602179055506001600460003373ffffffffffffffffffffffffffffffffffffffff1673ffffffffffffffffffffffffffffffffffffffff16815260200190815260200160002060030160006101000a81548160ff02191690831515021790555060008090505b82518160ff16101561159157600460003373ffffffffffffffffffffffffffffffffffffffff1673ffffffffffffffffffffffffffffffffffffffff1681526020019081526020016000206002016040518060400160405280858460ff16815181106114cb57fe5b602002602001015160058111156114de57fe5b8152602001848460ff16815181106114f257fe5b6020026020010151600281111561150557fe5b81525090806001815401808255809150509060018203906000526020600020016000909192909190915060008201518160000160006101000a81548160ff0219169083600581111561155357fe5b021790555060208201518160000160016101000a81548160ff0219169083600281111561157c57fe5b02179055505050508080600101915050611463565b50505050565b6000600460003373ffffffffffffffffffffffffffffffffffffffff1673ffffffffffffffffffffffffffffffffffffffff16815260200190815260200160002060040182815481106115e657fe5b9060005260206000200160000160009054906101000a900460ff169050919050565b600047905090565b60003390506000600460008373ffffffffffffffffffffffffffffffffffffffff1673ffffffffffffffffffffffffffffffffffffffff16815260200190815260200160002060000154905060008090506000600460008573ffffffffffffffffffffffffffffffffffffffff1673ffffffffffffffffffffffffffffffffffffffff168152602001908152602001600020600501819055506001600460008573ffffffffffffffffffffffffffffffffffffffff1673ffffffffffffffffffffffffffffffffffffffff16815260200190815260200160002060010160009054906101000a900460ff1660ff1614156117145761170d83610fee565b905061192b565b6002600460008573ffffffffffffffffffffffffffffffffffffffff1673ffffffffffffffffffffffffffffffffffffffff16815260200190815260200160002060010160009054906101000a900460ff1660ff16141561177f576117788361235a565b905061192a565b6003600460008573ffffffffffffffffffffffffffffffffffffffff1673ffffffffffffffffffffffffffffffffffffffff16815260200190815260200160002060010160009054906101000a900460ff1660ff1614156117ea576117e383610c30565b9050611929565b60048060008573ffffffffffffffffffffffffffffffffffffffff1673ffffffffffffffffffffffffffffffffffffffff16815260200190815260200160002060010160009054906101000a900460ff1660ff1614156118545761184d83611f02565b9050611928565b6005600460008573ffffffffffffffffffffffffffffffffffffffff1673ffffffffffffffffffffffffffffffffffffffff16815260200190815260200160002060010160009054906101000a900460ff1660ff1614156118bf576118b88361267b565b9050611927565b6006600460008573ffffffffffffffffffffffffffffffffffffffff1673ffffffffffffffffffffffffffffffffffffffff16815260200190815260200160002060010160009054906101000a900460ff1660ff16141561192657611923836108b8565b90505b5b5b5b5b5b6000811461198157808202600460008573ffffffffffffffffffffffffffffffffffffffff1673ffffffffffffffffffffffffffffffffffffffff168152602001908152602001600020600501819055506119ca565b6000600460008573ffffffffffffffffffffffffffffffffffffffff1673ffffffffffffffffffffffffffffffffffffffff168152602001908152602001600020600501819055505b505050565b6000600460003373ffffffffffffffffffffffffffffffffffffffff1673ffffffffffffffffffffffffffffffffffffffff1681526020019081526020016000206000015490506000600460003373ffffffffffffffffffffffffffffffffffffffff1673ffffffffffffffffffffffffffffffffffffffff1681526020019081526020016000206005015414611bf4573373ffffffffffffffffffffffffffffffffffffffff166108fc600460003373ffffffffffffffffffffffffffffffffffffffff1673ffffffffffffffffffffffffffffffffffffffff1681526020019081526020016000206005015483019081150290604051600060405180830381858888f19350505050158015611aea573d6000803e3d6000fd5b507f3990db2d31862302a685e8086b5755072a6e2b5b780af1ee81ece35ee3cd33456000809054906101000a900473ffffffffffffffffffffffffffffffffffffffff1633600460003373ffffffffffffffffffffffffffffffffffffffff1673ffffffffffffffffffffffffffffffffffffffff168152602001908152602001600020600501548401604051808473ffffffffffffffffffffffffffffffffffffffff1673ffffffffffffffffffffffffffffffffffffffff1681526020018373ffffffffffffffffffffffffffffffffffffffff1673ffffffffffffffffffffffffffffffffffffffff168152602001828152602001935050505060405180910390a1611d1d565b6000809054906101000a900473ffffffffffffffffffffffffffffffffffffffff1673ffffffffffffffffffffffffffffffffffffffff166108fc829081150290604051600060405180830381858888f19350505050158015611c5b573d6000803e3d6000fd5b507f3990db2d31862302a685e8086b5755072a6e2b5b780af1ee81ece35ee3cd3345336000809054906101000a900473ffffffffffffffffffffffffffffffffffffffff1683604051808473ffffffffffffffffffffffffffffffffffffffff1673ffffffffffffffffffffffffffffffffffffffff1681526020018373ffffffffffffffffffffffffffffffffffffffff1673ffffffffffffffffffffffffffffffffffffffff168152602001828152602001935050505060405180910390a15b50565b6000809054906101000a900473ffffffffffffffffffffffffffffffffffffffff1681565b6000600460003373ffffffffffffffffffffffffffffffffffffffff1673ffffffffffffffffffffffffffffffffffffffff16815260200190815260200160002060050154905090565b6000809054906101000a900473ffffffffffffffffffffffffffffffffffffffff1673ffffffffffffffffffffffffffffffffffffffff163373ffffffffffffffffffffffffffffffffffffffff1614611de857600080fd5b343373ffffffffffffffffffffffffffffffffffffffff16311015611e0c57600080fd5b34600460003373ffffffffffffffffffffffffffffffffffffffff1673ffffffffffffffffffffffffffffffffffffffff16815260200190815260200160002060060160008282540192505081905550565b600460003373ffffffffffffffffffffffffffffffffffffffff1673ffffffffffffffffffffffffffffffffffffffff1681526020019081526020016000206000808201600090556001820160006101000a81549060ff0219169055600282016000611eca9190612a7f565b6003820160006101000a81549060ff0219169055600482016000611eee9190612a7f565b600582016000905560068201600090555050565b6000611f0c612a0d565b600460008473ffffffffffffffffffffffffffffffffffffffff1673ffffffffffffffffffffffffffffffffffffffff1681526020019081526020016000206040518060e0016040529081600082015481526020016001820160009054906101000a900460ff1660ff1660ff16815260200160028201805480602002602001604051908101604052809291908181526020016000905b8282101561202a578382906000526020600020016040518060400160405290816000820160009054906101000a900460ff166005811115611fdf57fe5b6005811115611fea57fe5b81526020016000820160019054906101000a900460ff16600281111561200c57fe5b600281111561201757fe5b8152505081526020019060010190611fa2565b5050505081526020016003820160009054906101000a900460ff1615151515815260200160048201805480602002602001604051908101604052809291908181526020016000905b828210156120fa578382906000526020600020016040518060400160405290816000820160009054906101000a900460ff1660058111156120af57fe5b60058111156120ba57fe5b81526020016000820160019054906101000a900460ff1660028111156120dc57fe5b60028111156120e757fe5b8152505081526020019060010190612072565b505050508152602001600582015481526020016006820154815250509050606081608001519050600080905060008090505b83604001515181101561220e5760008090505b83518110156122005783818151811061215457fe5b602002602001015160200151600281111561216b57fe5b8560400151838151811061217b57fe5b602002602001015160200151600281111561219257fe5b14156121f35760018314156121a657612200565b8280600101935050846040015182815181106121be57fe5b602002602001016121cd612a4f565b8152508381815181106121dc57fe5b602002602001016121eb612a4f565b815250612200565b808060010191505061213f565b50808060010191505061212c565b50809350839350505050919050565b60008090505b60038110156123555782818151811061223857fe5b6020026020010151600460003373ffffffffffffffffffffffffffffffffffffffff1673ffffffffffffffffffffffffffffffffffffffff168152602001908152602001600020600401828154811061228d57fe5b9060005260206000200160000160006101000a81548160ff021916908360058111156122b557fe5b02179055508181815181106122c657fe5b6020026020010151600460003373ffffffffffffffffffffffffffffffffffffffff1673ffffffffffffffffffffffffffffffffffffffff168152602001908152602001600020600401828154811061231b57fe5b9060005260206000200160000160016101000a81548160ff0219169083600281111561234357fe5b02179055508080600101915050612223565b505050565b6000612364612a0d565b600460008473ffffffffffffffffffffffffffffffffffffffff1673ffffffffffffffffffffffffffffffffffffffff1681526020019081526020016000206040518060e0016040529081600082015481526020016001820160009054906101000a900460ff1660ff1660ff16815260200160028201805480602002602001604051908101604052809291908181526020016000905b82821015612482578382906000526020600020016040518060400160405290816000820160009054906101000a900460ff16600581111561243757fe5b600581111561244257fe5b81526020016000820160019054906101000a900460ff16600281111561246457fe5b600281111561246f57fe5b81525050815260200190600101906123fa565b5050505081526020016003820160009054906101000a900460ff1615151515815260200160048201805480602002602001604051908101604052809291908181526020016000905b82821015612552578382906000526020600020016040518060400160405290816000820160009054906101000a900460ff16600581111561250757fe5b600581111561251257fe5b81526020016000820160019054906101000a900460ff16600281111561253457fe5b600281111561253f57fe5b81525050815260200190600101906124ca565b505050508152602001600582015481526020016006820154815250509050606081608001519050600080905060008090505b8360400151518110156126585760008090505b835181101561264a578381815181106125ac57fe5b60200260200101516000015160058111156125c357fe5b856040015183815181106125d357fe5b60200260200101516000015160058111156125ea57fe5b141561263d5782806001019350508460400151828151811061260857fe5b60200260200101612617612a4f565b81525083818151811061262657fe5b60200260200101612635612a4f565b81525061264a565b8080600101915050612597565b508080600101915050612584565b50600281141561266b5760059350612670565b600093505b839350505050919050565b6000612685612a0d565b600460008473ffffffffffffffffffffffffffffffffffffffff1673ffffffffffffffffffffffffffffffffffffffff1681526020019081526020016000206040518060e0016040529081600082015481526020016001820160009054906101000a900460ff1660ff1660ff16815260200160028201805480602002602001604051908101604052809291908181526020016000905b828210156127a3578382906000526020600020016040518060400160405290816000820160009054906101000a900460ff16600581111561275857fe5b600581111561276357fe5b81526020016000820160019054906101000a900460ff16600281111561278557fe5b600281111561279057fe5b815250508152602001906001019061271b565b5050505081526020016003820160009054906101000a900460ff1615151515815260200160048201805480602002602001604051908101604052809291908181526020016000905b82821015612873578382906000526020600020016040518060400160405290816000820160009054906101000a900460ff16600581111561282857fe5b600581111561283357fe5b81526020016000820160019054906101000a900460ff16600281111561285557fe5b600281111561286057fe5b81525050815260200190600101906127eb565b505050508152602001600582015481526020016006820154815250509050606081608001519050600080905060008090505b8360400151518110156129795760008090505b835181101561296b578381815181106128cd57fe5b60200260200101516020015160028111156128e457fe5b856040015183815181106128f457fe5b602002602001015160200151600281111561290b57fe5b141561295e5782806001019350508460400151828151811061292957fe5b60200260200101612938612a4f565b81525083818151811061294757fe5b60200260200101612956612a4f565b81525061296b565b80806001019150506128b8565b5080806001019150506128a5565b50600281141561298c5760039350612991565b600093505b839350505050919050565b6000600460003373ffffffffffffffffffffffffffffffffffffffff1673ffffffffffffffffffffffffffffffffffffffff16815260200190815260200160002060040182815481106129eb57fe5b9060005260206000200160000160019054906101000a900460ff169050919050565b6040518060e0016040528060008152602001600060ff168152602001606081526020016000151581526020016060815260200160008152602001600081525090565b604051806040016040528060006005811115612a6757fe5b815260200160006002811115612a7957fe5b81525090565b5080546000825590600052602060002090810190612a9d9190612aa0565b50565b612ae491905b80821115612ae057600080820160006101000a81549060ff02191690556000820160016101000a81549060ff021916905550600101612aa6565b5090565b9056fe596f75206d75737420626574206265747765656e20302e3030303120616e6420302e30312065746865722ea265627a7a723158208f576f346765dd3b5fb1e98ed6025b46e7faee8e768d44522b37eb23b8f959c264736f6c63430005100032",
  "source": "pragma solidity >=0.5.0 <0.6.0;\n\ncontract Betting{\n    address payable public owner;\n    uint256 private minBet;\n    uint256 private maxBet;\n    uint8 constant private numberOfDice = 3;\n    uint8 private numberOfFace = 6;\n    \n    enum Symbol {Apple, Tomato, Brocoli, Cucumber, Carrot, Pineapple}\n    enum Color {Red, Green, Orange}\n    \n    struct Player{\n        uint256 amountBet;\n        uint8 typeSelected;\n        DiceFace[] faceSelected;\n        bool isBetSet;\n        DiceFace[] resultDices;\n        uint256 prize;\n        uint256 monetToPay;\n    }\n    \n    struct DiceFace{\n        Symbol symbol;\n        Color color;\n    }\n    \n    // DiceFace[numberOfDice] resultDices;\n    mapping(address => Player) public playerInfo;\n    function() external payable {}\n    \n    constructor() public{\n      owner = msg.sender;\n    // min is 0.0001 ether and max is 0.01 ether\n      minBet = 100000000000000;\n      maxBet = 10000000000000000;\n   }\n   \n   //event to log if the ether is sent\n   event Sent(address from, address to, uint amount );\n   \n   //kill contract\n   function kill() public {\n      if(msg.sender == owner) selfdestruct(owner);\n    }\n    \n   //bet the money\n   function bet(uint8 _typeSelected, Symbol[] memory _symbols, Color[] memory _colors) public payable{\n    //   require(playerInfo[msg.sender].isBetSet == false, \"You already bet.\");\n      require(msg.value >= minBet && msg.value <= maxBet, \"You must bet between 0.0001 and 0.01 ether.\");\n      playerInfo[msg.sender].amountBet = msg.value;\n      playerInfo[msg.sender].typeSelected = _typeSelected;\n      playerInfo[msg.sender].isBetSet = true;\n      for(uint8 i = 0; i < _symbols.length; i++){\n          playerInfo[msg.sender].faceSelected.push(DiceFace({\n              symbol: _symbols[i],\n              color: _colors[i]\n          }));\n      }\n   }\n    \n    //set result of dice No. that come from front-end \n   function setResult(Symbol[] memory _symbol, Color[] memory _color) public{\n    //    require(playerInfo[msg.sender].isBetSet == true, \"You need to bet first.\");\n       for(uint256 i = 0; i < 3; i++){\n           playerInfo[msg.sender].resultDices[i].symbol = _symbol[i];\n           playerInfo[msg.sender].resultDices[i].color = _color[i];\n       }\n   }\n   \n   //distribute the prizes for each player following the type of bet.\n   function distributePrize() public{\n       address payable player = msg.sender;\n       uint256 bet = playerInfo[player].amountBet;\n       uint256 times = 0;\n       playerInfo[player].prize = 0;\n\n           if(playerInfo[player].typeSelected == 1)times = singleDiceSymbolWinner(player);\n           else if(playerInfo[player].typeSelected == 2)times = pairDiceSymbolWinner(player);\n           else if(playerInfo[player].typeSelected == 3)times = tripleDiceSymbolWinner(player);\n           else if(playerInfo[player].typeSelected == 4)times = singleDiceColorWinner(player);\n           else if(playerInfo[player].typeSelected == 5)times = pairDiceColorWinner(player);\n           else if(playerInfo[player].typeSelected == 6)times = tripleDiceColorWinner(player);\n\n           if(times != 0){\n                playerInfo[player].prize = bet*times;\n           }else{\n                playerInfo[player].prize = 0;\n           }\n    }\n    \n    //pay to player if prize != 0 or pay to owner if = 0\n    function cashOut() public{\n        uint256 bet = playerInfo[msg.sender].amountBet;\n\n        if(playerInfo[msg.sender].prize != 0){\n                msg.sender.transfer(bet+playerInfo[msg.sender].prize);\n                emit Sent(owner, msg.sender, bet+playerInfo[msg.sender].prize);\n           }else{\n                owner.transfer(bet);\n                emit Sent(msg.sender, owner, bet);\n           }\n    }\n    \n    //reset the round\n    function reset() public{\n        delete playerInfo[msg.sender];\n    }\n \n    //get symbol of dice No.\n    function getDiceSymbol(uint diceNo) public view returns (Symbol){\n        return playerInfo[msg.sender].resultDices[diceNo].symbol;\n    }\n    \n    //get color of dice No.\n    function getDiceColor(uint diceNo) public view returns (Color){\n        return playerInfo[msg.sender].resultDices[diceNo].color;\n    }\n    \n    function getBetStatus() public view returns (bool){\n        return playerInfo[msg.sender].isBetSet;\n    }\n   \n    //get balance of this contract\n    function getContractBalance() public view returns (uint){\n        return address(this).balance;\n    }\n    \n    //get amount to pay \n    function getAmountToPay() public view returns (uint){\n        return playerInfo[msg.sender].prize;\n    }\n    \n    //pay by dealer following amount to pay.\n    function paybyDealer() public payable{\n        require(msg.sender == owner);\n        require(address(msg.sender).balance >= msg.value);\n        playerInfo[msg.sender].monetToPay += msg.value;\n    }\n    \n   /**bet with three symbol selected. \n    * if match 1 die get 1 times of bet, if 2 dice get 2 time of bet, if 3 dice get 3 time of bet.*/\n   function singleDiceSymbolWinner(address payable playerAddress) public returns (uint256 times){\n        Player memory p = playerInfo[playerAddress];\n        DiceFace[] memory temp = p.resultDices;\n        uint256 count = 0;\n\n        for(uint256 i = 0; i < p.faceSelected.length; i++){\n            for(uint256 j = 0; j < temp.length; j++){\n                if(p.faceSelected[i].symbol == temp[j].symbol){\n                    count++;\n                    delete p.faceSelected[i];\n                    delete temp[j];\n                }\n            }\n        }\n        \n        times = count;\n        return times;\n   }\n   \n    /**bet with two symbol selected. \n    * if match 2 dice get 5 times of bet */\n   function pairDiceSymbolWinner(address payable playerAddress) public returns (uint256 times){\n       Player memory p = playerInfo[playerAddress];\n       DiceFace[] memory temp = p.resultDices;\n\n       uint256 count = 0;\n\n       for(uint256 i = 0; i < p.faceSelected.length; i++){\n           for(uint256 j = 0; j < temp.length; j++){\n               if(p.faceSelected[i].symbol == temp[j].symbol){\n                   count++;\n                   delete p.faceSelected[i];\n                   delete temp[j];\n                   break;\n               }\n           }\n       }\n       \n       if(count == 2){\n           times = 5;\n       }else{\n           times = 0;\n       }\n       \n       return times;\n   }\n   \n   /**bet with single symbol selected. \n    * if match 3 dice get 7 times of bet */\n   function tripleDiceSymbolWinner(address payable playerAddress) public returns (uint256 times){\n       Player memory p = playerInfo[playerAddress];\n       DiceFace[] memory temp = p.resultDices;\n       uint256 count = 0;\n       \n       for(uint256 i = 0; i < p.faceSelected.length; i++){\n           for(uint256 j = 0; j < temp.length; j++){\n               if(p.faceSelected[i].symbol == temp[j].symbol){\n                   count++;\n               }\n           }\n       }\n       \n       if(count == 3){\n           times = 7;\n       }else{\n           times = 0;\n       }\n       return times;\n   }\n   \n    /**bet with single symbol selected. \n    * if match 1 of 3 dice get 1 time of bet */\n   function singleDiceColorWinner(address payable playerAddress) public returns (uint256 times){\n        Player memory p = playerInfo[playerAddress];\n        DiceFace[] memory temp = p.resultDices;\n        uint256 count = 0;\n\n        for(uint256 i = 0; i < p.faceSelected.length; i++){\n            for(uint256 j = 0; j < temp.length; j++){\n                if(p.faceSelected[i].color == temp[j].color){\n                    if(count == 1)break;\n                    count++;\n                    delete p.faceSelected[i];\n                    delete temp[j];\n                    break;\n                }\n            }\n        }\n        \n        times = count;\n        return times;\n   }\n   \n   /**bet with two symbol with the same color selected. \n    * if match 1 pair get 3 times of bet */\n   function pairDiceColorWinner(address payable playerAddress) public returns (uint256 times){\n        Player memory p = playerInfo[playerAddress];\n        DiceFace[] memory temp = p.resultDices;\n        uint256 count = 0;\n\n        for(uint256 i = 0; i < p.faceSelected.length; i++){\n            for(uint256 j = 0; j < temp.length; j++){\n                if(p.faceSelected[i].color == temp[j].color){\n                    count++;\n                    delete p.faceSelected[i];\n                    delete temp[j];\n                    break;\n                }\n            }\n        }\n        \n        if(count == 2){\n            times = 3;\n        }else{\n            times = 0;\n        }\n        return times;\n   }\n   \n   /**bet with 3 symbol with the same color is selected. \n    * if match all get 7 times of bet */\n   function tripleDiceColorWinner(address payable playerAddress) public returns (uint256 times){\n        Player memory p = playerInfo[playerAddress];\n        DiceFace[] memory temp = p.resultDices;\n        uint256 count = 0;\n\n        for(uint256 i = 0; i < p.faceSelected.length; i++){\n            for(uint256 j = 0; j < temp.length; j++){\n                if(p.faceSelected[i].color == temp[j].color){\n                    count++;\n                    delete p.faceSelected[i];\n                    delete temp[j];\n                    break;\n                }\n            }\n        }\n        \n        if(count == 3){\n            times = 7;\n        }else{\n            times = 0;\n        }\n        return times;\n   }\n\n}\n\n\n",
  "sourcePath": "/Users/spark/Desktop/betblock/contracts/Betting.sol",
  "compiler": {
    "name": "solc",
    "version": "0.5.16+commit.9c3226ce.Emscripten.clang"
  },
  "schemaVersion": "3.1.0",
  "updatedAt": "2020-05-24T17:49:11.256Z",
  "devdoc": {
    "methods": {}
  },
  "userdoc": {
    "methods": {
      "pairDiceColorWinner(address)": {
        "notice": "bet with two symbol with the same color selected.  if match 1 pair get 3 times of bet "
      },
      "pairDiceSymbolWinner(address)": {
        "notice": "bet with two symbol selected.  if match 2 dice get 5 times of bet "
      },
      "singleDiceColorWinner(address)": {
        "notice": "bet with single symbol selected.  if match 1 of 3 dice get 1 time of bet "
      },
      "singleDiceSymbolWinner(address)": {
        "notice": "bet with three symbol selected.  if match 1 die get 1 times of bet, if 2 dice get 2 time of bet, if 3 dice get 3 time of bet."
      },
      "tripleDiceColorWinner(address)": {
        "notice": "bet with 3 symbol with the same color is selected.  if match all get 7 times of bet "
      },
      "tripleDiceSymbolWinner(address)": {
        "notice": "bet with single symbol selected.  if match 3 dice get 7 times of bet "
      }
    }
  }
}