{
  "contractName": "Betting",
  "abi": [
    {
      "inputs": [],
      "payable": false,
      "stateMutability": "nonpayable",
      "type": "constructor"
    },
    {
      "anonymous": false,
      "inputs": [
        {
          "indexed": false,
          "internalType": "address",
          "name": "from",
          "type": "address"
        },
        {
          "indexed": false,
          "internalType": "address",
          "name": "to",
          "type": "address"
        },
        {
          "indexed": false,
          "internalType": "uint256",
          "name": "amount",
          "type": "uint256"
        }
      ],
      "name": "Sent",
      "type": "event"
    },
    {
      "payable": true,
      "stateMutability": "payable",
      "type": "fallback"
    },
    {
      "constant": true,
      "inputs": [],
      "name": "owner",
      "outputs": [
        {
          "internalType": "address payable",
          "name": "",
          "type": "address"
        }
      ],
      "payable": false,
      "stateMutability": "view",
      "type": "function"
    },
    {
      "constant": true,
      "inputs": [
        {
          "internalType": "address",
          "name": "",
          "type": "address"
        }
      ],
      "name": "playerInfo",
      "outputs": [
        {
          "internalType": "uint256",
          "name": "amountBet",
          "type": "uint256"
        },
        {
          "internalType": "uint8",
          "name": "typeSelected",
          "type": "uint8"
        },
        {
          "internalType": "bool",
          "name": "isBetSet",
          "type": "bool"
        }
      ],
      "payable": false,
      "stateMutability": "view",
      "type": "function"
    },
    {
      "constant": false,
      "inputs": [],
      "name": "kill",
      "outputs": [],
      "payable": false,
      "stateMutability": "nonpayable",
      "type": "function"
    },
    {
      "constant": false,
      "inputs": [
        {
          "internalType": "uint8",
          "name": "_typeSelected",
          "type": "uint8"
        },
        {
          "internalType": "enum Betting.Symbol[]",
          "name": "_symbols",
          "type": "uint8[]"
        },
        {
          "internalType": "enum Betting.Color[]",
          "name": "_colors",
          "type": "uint8[]"
        }
      ],
      "name": "bet",
      "outputs": [],
      "payable": true,
      "stateMutability": "payable",
      "type": "function"
    },
    {
      "constant": false,
      "inputs": [
        {
          "internalType": "uint256",
          "name": "diceNo",
          "type": "uint256"
        },
        {
          "internalType": "enum Betting.Symbol",
          "name": "_symbol",
          "type": "uint8"
        },
        {
          "internalType": "enum Betting.Color",
          "name": "_color",
          "type": "uint8"
        }
      ],
      "name": "setResult",
      "outputs": [],
      "payable": false,
      "stateMutability": "nonpayable",
      "type": "function"
    },
    {
      "constant": false,
      "inputs": [],
      "name": "distributePrize",
      "outputs": [],
      "payable": false,
      "stateMutability": "nonpayable",
      "type": "function"
    },
    {
      "constant": false,
      "inputs": [],
      "name": "cashOut",
      "outputs": [],
      "payable": false,
      "stateMutability": "nonpayable",
      "type": "function"
    },
    {
      "constant": false,
      "inputs": [],
      "name": "reset",
      "outputs": [],
      "payable": false,
      "stateMutability": "nonpayable",
      "type": "function"
    },
    {
      "constant": true,
      "inputs": [
        {
          "internalType": "uint256",
          "name": "diceNo",
          "type": "uint256"
        }
      ],
      "name": "getDiceSymbol",
      "outputs": [
        {
          "internalType": "enum Betting.Symbol",
          "name": "",
          "type": "uint8"
        }
      ],
      "payable": false,
      "stateMutability": "view",
      "type": "function"
    },
    {
      "constant": true,
      "inputs": [
        {
          "internalType": "uint256",
          "name": "diceNo",
          "type": "uint256"
        }
      ],
      "name": "getDiceColor",
      "outputs": [
        {
          "internalType": "enum Betting.Color",
          "name": "",
          "type": "uint8"
        }
      ],
      "payable": false,
      "stateMutability": "view",
      "type": "function"
    },
    {
      "constant": true,
      "inputs": [],
      "name": "getContractBalance",
      "outputs": [
        {
          "internalType": "uint256",
          "name": "",
          "type": "uint256"
        }
      ],
      "payable": false,
      "stateMutability": "view",
      "type": "function"
    },
    {
      "constant": true,
      "inputs": [],
      "name": "getAmountToPay",
      "outputs": [
        {
          "internalType": "uint256",
          "name": "",
          "type": "uint256"
        }
      ],
      "payable": false,
      "stateMutability": "view",
      "type": "function"
    },
    {
      "constant": false,
      "inputs": [
        {
          "internalType": "uint256",
          "name": "amount",
          "type": "uint256"
        }
      ],
      "name": "paybyDealer",
      "outputs": [],
      "payable": true,
      "stateMutability": "payable",
      "type": "function"
    },
    {
      "constant": false,
      "inputs": [
        {
          "internalType": "address payable",
          "name": "playerAddress",
          "type": "address"
        }
      ],
      "name": "singleDiceSymbolWinner",
      "outputs": [
        {
          "internalType": "uint256",
          "name": "times",
          "type": "uint256"
        }
      ],
      "payable": false,
      "stateMutability": "nonpayable",
      "type": "function"
    },
    {
      "constant": false,
      "inputs": [
        {
          "internalType": "address payable",
          "name": "playerAddress",
          "type": "address"
        }
      ],
      "name": "pairDiceSymbolWinner",
      "outputs": [
        {
          "internalType": "uint256",
          "name": "times",
          "type": "uint256"
        }
      ],
      "payable": false,
      "stateMutability": "nonpayable",
      "type": "function"
    },
    {
      "constant": false,
      "inputs": [
        {
          "internalType": "address payable",
          "name": "playerAddress",
          "type": "address"
        }
      ],
      "name": "tripleDiceSymbolWinner",
      "outputs": [
        {
          "internalType": "uint256",
          "name": "times",
          "type": "uint256"
        }
      ],
      "payable": false,
      "stateMutability": "nonpayable",
      "type": "function"
    },
    {
      "constant": false,
      "inputs": [
        {
          "internalType": "address payable",
          "name": "playerAddress",
          "type": "address"
        }
      ],
      "name": "singleDiceColorWinner",
      "outputs": [
        {
          "internalType": "uint256",
          "name": "times",
          "type": "uint256"
        }
      ],
      "payable": false,
      "stateMutability": "nonpayable",
      "type": "function"
    },
    {
      "constant": false,
      "inputs": [
        {
          "internalType": "address payable",
          "name": "playerAddress",
          "type": "address"
        }
      ],
      "name": "pairDiceColorWinner",
      "outputs": [
        {
          "internalType": "uint256",
          "name": "times",
          "type": "uint256"
        }
      ],
      "payable": false,
      "stateMutability": "nonpayable",
      "type": "function"
    },
    {
      "constant": false,
      "inputs": [
        {
          "internalType": "address payable",
          "name": "playerAddress",
          "type": "address"
        }
      ],
      "name": "tripleDiceColorWinner",
      "outputs": [
        {
          "internalType": "uint256",
          "name": "times",
          "type": "uint256"
        }
      ],
      "payable": false,
      "stateMutability": "nonpayable",
      "type": "function"
    },
    {
      "constant": false,
      "inputs": [
        {
          "internalType": "address payable",
          "name": "playerAddress",
          "type": "address"
        }
      ],
      "name": "tripleColorWinner",
      "outputs": [
        {
          "internalType": "uint256",
          "name": "times",
          "type": "uint256"
        }
      ],
      "payable": false,
      "stateMutability": "nonpayable",
      "type": "function"
    }
  ],
  "bytecode": "0x60806040526006600360006101000a81548160ff021916908360ff16021790555034801561002c57600080fd5b50336000806101000a81548173ffffffffffffffffffffffffffffffffffffffff021916908373ffffffffffffffffffffffffffffffffffffffff160217905550655af3107a4000600181905550662386f26fc10000600281905550612a75806100976000396000f3fe60806040526004361061011f5760003560e01c806377b6e504116100a0578063da9fb5bd11610064578063da9fb5bd14610646578063e6ae066d146106ab578063eaa379d914610710578063f42204e914610775578063fc1abdde146107a35761011f565b806377b6e5041461057f578063793cd71e146105965780638da5cb5b146105ad5780639de111b014610604578063d826f88f1461062f5761011f565b80634b114691116100e75780634b114691146102bc578063594ecf761461033957806363a8f2d51461039e5780636c3e0266146104f75780636f9fb98a146105545761011f565b8063083341b3146101215780631c6dbb8a146101865780631ecf450e146101eb5780633f608d1b1461024057806341c0e1b5146102a5575b005b34801561012d57600080fd5b506101706004803603602081101561014457600080fd5b81019080803573ffffffffffffffffffffffffffffffffffffffff169060200190929190505050610800565b6040518082815260200191505060405180910390f35b34801561019257600080fd5b506101d5600480360360208110156101a957600080fd5b81019080803573ffffffffffffffffffffffffffffffffffffffff169060200190929190505050610aef565b6040518082815260200191505060405180910390f35b3480156101f757600080fd5b5061023e6004803603606081101561020e57600080fd5b8101908080359060200190929190803560ff169060200190929190803560ff169060200190929190505050610e2e565b005b34801561024c57600080fd5b5061028f6004803603602081101561026357600080fd5b81019080803573ffffffffffffffffffffffffffffffffffffffff169060200190929190505050610e97565b6040518082815260200191505060405180910390f35b3480156102b157600080fd5b506102ba611144565b005b3480156102c857600080fd5b5061030b600480360360208110156102df57600080fd5b81019080803573ffffffffffffffffffffffffffffffffffffffff1690602001909291905050506111d5565b604051808481526020018360ff1660ff16815260200182151515158152602001935050505060405180910390f35b34801561034557600080fd5b506103886004803603602081101561035c57600080fd5b81019080803573ffffffffffffffffffffffffffffffffffffffff169060200190929190505050611219565b6040518082815260200191505060405180910390f35b6104f5600480360360608110156103b457600080fd5b81019080803560ff169060200190929190803590602001906401000000008111156103de57600080fd5b8201836020820111156103f057600080fd5b8035906020019184602083028401116401000000008311171561041257600080fd5b919080806020026020016040519081016040528093929190818152602001838360200280828437600081840152601f19601f8201169050808301925050505050505091929192908035906020019064010000000081111561047257600080fd5b82018360208201111561048457600080fd5b803590602001918460208302840111640100000000831117156104a657600080fd5b919080806020026020016040519081016040528093929190818152602001838360200280828437600081840152601f19601f8201169050808301925050505050505091929192905050506114b3565b005b34801561050357600080fd5b506105306004803603602081101561051a57600080fd5b810190808035906020019092919050505061181c565b6040518082600581111561054057fe5b60ff16815260200191505060405180910390f35b34801561056057600080fd5b50610569611844565b6040518082815260200191505060405180910390f35b34801561058b57600080fd5b5061059461184c565b005b3480156105a257600080fd5b506105ab611bae565b005b3480156105b957600080fd5b506105c2611e3f565b604051808273ffffffffffffffffffffffffffffffffffffffff1673ffffffffffffffffffffffffffffffffffffffff16815260200191505060405180910390f35b34801561061057600080fd5b50610619611e64565b6040518082815260200191505060405180910390f35b34801561063b57600080fd5b50610644611e6e565b005b34801561065257600080fd5b506106956004803603602081101561066957600080fd5b81019080803573ffffffffffffffffffffffffffffffffffffffff169060200190929190505050611f10565b6040518082815260200191505060405180910390f35b3480156106b757600080fd5b506106fa600480360360208110156106ce57600080fd5b81019080803573ffffffffffffffffffffffffffffffffffffffff1690602001909291905050506121f9565b6040518082815260200191505060405180910390f35b34801561071c57600080fd5b5061075f6004803603602081101561073357600080fd5b81019080803573ffffffffffffffffffffffffffffffffffffffff1690602001909291905050506124e8565b6040518082815260200191505060405180910390f35b6107a16004803603602081101561078b57600080fd5b81019080803590602001909291905050506127d7565b005b3480156107af57600080fd5b506107dc600480360360208110156107c657600080fd5b8101908080359060200190929190505050612874565b604051808260028111156107ec57fe5b60ff16815260200191505060405180910390f35b600061080a61289c565b6006600380602002604051908101604052809291906000905b828210156108a2578382016040518060400160405290816000820160009054906101000a900460ff16600581111561085757fe5b600581111561086257fe5b81526020016000820160019054906101000a900460ff16600281111561088457fe5b600281111561088f57fe5b8152505081526020019060010190610823565b5050505090506108b06128c9565b600960008573ffffffffffffffffffffffffffffffffffffffff1673ffffffffffffffffffffffffffffffffffffffff168152602001908152602001600020604051806080016040529081600082015481526020016001820160009054906101000a900460ff1660ff1660ff16815260200160028201805480602002602001604051908101604052809291908181526020016000905b828210156109ce578382906000526020600020016040518060400160405290816000820160009054906101000a900460ff16600581111561098357fe5b600581111561098e57fe5b81526020016000820160019054906101000a900460ff1660028111156109b057fe5b60028111156109bb57fe5b8152505081526020019060010190610946565b5050505081526020016003820160009054906101000a900460ff1615151515815250509050600080905060008090505b826040015151811015610acc5760008090505b6003811015610abe57848160038110610a2657fe5b6020020151602001516002811115610a3a57fe5b84604001518381518110610a4a57fe5b6020026020010151602001516002811115610a6157fe5b1415610ab157828060010193505083604001518281518110610a7f57fe5b60200260200101610a8e6128f6565b815250848160038110610a9d57fe5b60200201610aa96128f6565b815250610abe565b8080600101915050610a11565b5080806001019150506109fe565b506003811415610adf5760079350610ae4565b600093505b839350505050919050565b6000610af961289c565b6006600380602002604051908101604052809291906000905b82821015610b91578382016040518060400160405290816000820160009054906101000a900460ff166005811115610b4657fe5b6005811115610b5157fe5b81526020016000820160019054906101000a900460ff166002811115610b7357fe5b6002811115610b7e57fe5b8152505081526020019060010190610b12565b505050509050610b9f6128c9565b600960008573ffffffffffffffffffffffffffffffffffffffff1673ffffffffffffffffffffffffffffffffffffffff168152602001908152602001600020604051806080016040529081600082015481526020016001820160009054906101000a900460ff1660ff1660ff16815260200160028201805480602002602001604051908101604052809291908181526020016000905b82821015610cbd578382906000526020600020016040518060400160405290816000820160009054906101000a900460ff166005811115610c7257fe5b6005811115610c7d57fe5b81526020016000820160019054906101000a900460ff166002811115610c9f57fe5b6002811115610caa57fe5b8152505081526020019060010190610c35565b5050505081526020016003820160009054906101000a900460ff1615151515815250509050600080905060008090505b826040015151811015610e0b5760008090505b6003811015610dfd57848160038110610d1557fe5b6020020151602001516002811115610d2957fe5b84604001518381518110610d3957fe5b6020026020010151602001516002811115610d5057fe5b148015610da15750848160038110610d6457fe5b6020020151600001516005811115610d7857fe5b84604001518381518110610d8857fe5b6020026020010151600001516005811115610d9f57fe5b145b15610df057828060010193505083604001518281518110610dbe57fe5b60200260200101610dcd6128f6565b815250848160038110610ddc57fe5b60200201610de86128f6565b815250610dfd565b8080600101915050610d00565b508080600101915050610ced565b506003811415610e1e5760149350610e23565b600093505b839350505050919050565b8160068460038110610e3c57fe5b0160000160006101000a81548160ff02191690836005811115610e5b57fe5b02179055508060068460038110610e6e57fe5b0160000160016101000a81548160ff02191690836002811115610e8d57fe5b0217905550505050565b6000610ea161289c565b6006600380602002604051908101604052809291906000905b82821015610f39578382016040518060400160405290816000820160009054906101000a900460ff166005811115610eee57fe5b6005811115610ef957fe5b81526020016000820160019054906101000a900460ff166002811115610f1b57fe5b6002811115610f2657fe5b8152505081526020019060010190610eba565b505050509050610f476128c9565b600960008573ffffffffffffffffffffffffffffffffffffffff1673ffffffffffffffffffffffffffffffffffffffff168152602001908152602001600020604051806080016040529081600082015481526020016001820160009054906101000a900460ff1660ff1660ff16815260200160028201805480602002602001604051908101604052809291908181526020016000905b82821015611065578382906000526020600020016040518060400160405290816000820160009054906101000a900460ff16600581111561101a57fe5b600581111561102557fe5b81526020016000820160019054906101000a900460ff16600281111561104757fe5b600281111561105257fe5b8152505081526020019060010190610fdd565b5050505081526020016003820160009054906101000a900460ff1615151515815250509050600080905060008090505b8260400151518110156111225760008090505b6003811015611114578481600381106110bd57fe5b60200201516000015160058111156110d157fe5b846040015183815181106110e157fe5b60200260200101516000015160058111156110f857fe5b14156111075782806001019350505b80806001019150506110a8565b508080600101915050611095565b50600381141561113457809350611139565b600093505b839350505050919050565b6000809054906101000a900473ffffffffffffffffffffffffffffffffffffffff1673ffffffffffffffffffffffffffffffffffffffff163373ffffffffffffffffffffffffffffffffffffffff1614156111d3576000809054906101000a900473ffffffffffffffffffffffffffffffffffffffff1673ffffffffffffffffffffffffffffffffffffffff16ff5b565b60096020528060005260406000206000915090508060000154908060010160009054906101000a900460ff16908060030160009054906101000a900460ff16905083565b600061122361289c565b6006600380602002604051908101604052809291906000905b828210156112bb578382016040518060400160405290816000820160009054906101000a900460ff16600581111561127057fe5b600581111561127b57fe5b81526020016000820160019054906101000a900460ff16600281111561129d57fe5b60028111156112a857fe5b815250508152602001906001019061123c565b5050505090506112c96128c9565b600960008573ffffffffffffffffffffffffffffffffffffffff1673ffffffffffffffffffffffffffffffffffffffff168152602001908152602001600020604051806080016040529081600082015481526020016001820160009054906101000a900460ff1660ff1660ff16815260200160028201805480602002602001604051908101604052809291908181526020016000905b828210156113e7578382906000526020600020016040518060400160405290816000820160009054906101000a900460ff16600581111561139c57fe5b60058111156113a757fe5b81526020016000820160019054906101000a900460ff1660028111156113c957fe5b60028111156113d457fe5b815250508152602001906001019061135f565b5050505081526020016003820160009054906101000a900460ff1615151515815250509050600080905060008090505b8260400151518110156114a45760008090505b60038110156114965784816003811061143f57fe5b602002015160000151600581111561145357fe5b8460400151838151811061146357fe5b602002602001015160000151600581111561147a57fe5b14156114895782806001019350505b808060010191505061142a565b508080600101915050611417565b50809350839350505050919050565b60001515600960003373ffffffffffffffffffffffffffffffffffffffff1673ffffffffffffffffffffffffffffffffffffffff16815260200190815260200160002060030160009054906101000a900460ff1615151461157c576040517f08c379a00000000000000000000000000000000000000000000000000000000081526004018080602001828103825260108152602001807f596f7520616c7265616479206265742e0000000000000000000000000000000081525060200191505060405180910390fd5b600154341015801561159057506002543411155b6115e5576040517f08c379a000000000000000000000000000000000000000000000000000000000815260040180806020018281038252602a815260200180612a17602a913960400191505060405180910390fd5b34600960003373ffffffffffffffffffffffffffffffffffffffff1673ffffffffffffffffffffffffffffffffffffffff1681526020019081526020016000206000018190555082600960003373ffffffffffffffffffffffffffffffffffffffff1673ffffffffffffffffffffffffffffffffffffffff16815260200190815260200160002060010160006101000a81548160ff021916908360ff1602179055506001600960003373ffffffffffffffffffffffffffffffffffffffff1673ffffffffffffffffffffffffffffffffffffffff16815260200190815260200160002060030160006101000a81548160ff02191690831515021790555060008090505b82518160ff16101561181657600960003373ffffffffffffffffffffffffffffffffffffffff1673ffffffffffffffffffffffffffffffffffffffff1681526020019081526020016000206002016040518060400160405280858460ff168151811061175057fe5b6020026020010151600581111561176357fe5b8152602001848460ff168151811061177757fe5b6020026020010151600281111561178a57fe5b81525090806001815401808255809150509060018203906000526020600020016000909192909190915060008201518160000160006101000a81548160ff021916908360058111156117d857fe5b021790555060208201518160000160016101000a81548160ff0219169083600281111561180157fe5b021790555050505080806001019150506116e8565b50505050565b60006006826003811061182b57fe5b0160000160009054906101000a900460ff169050919050565b600047905090565b60003390506000600960008373ffffffffffffffffffffffffffffffffffffffff1673ffffffffffffffffffffffffffffffffffffffff168152602001908152602001600020600001549050600080905060008090506001600960008673ffffffffffffffffffffffffffffffffffffffff1673ffffffffffffffffffffffffffffffffffffffff16815260200190815260200160002060010160009054906101000a900460ff1660ff16141561190d5761190684611219565b9050611b91565b6002600960008673ffffffffffffffffffffffffffffffffffffffff1673ffffffffffffffffffffffffffffffffffffffff16815260200190815260200160002060010160009054906101000a900460ff1660ff16141561197857611971846121f9565b9050611b90565b6003600960008673ffffffffffffffffffffffffffffffffffffffff1673ffffffffffffffffffffffffffffffffffffffff16815260200190815260200160002060010160009054906101000a900460ff1660ff1614156119e3576119dc84610e97565b9050611b8f565b6004600960008673ffffffffffffffffffffffffffffffffffffffff1673ffffffffffffffffffffffffffffffffffffffff16815260200190815260200160002060010160009054906101000a900460ff1660ff161415611a4e57611a4784611f10565b9050611b8e565b6005600960008673ffffffffffffffffffffffffffffffffffffffff1673ffffffffffffffffffffffffffffffffffffffff16815260200190815260200160002060010160009054906101000a900460ff1660ff161415611ab957611ab2846124e8565b9050611b8d565b6006600960008673ffffffffffffffffffffffffffffffffffffffff1673ffffffffffffffffffffffffffffffffffffffff16815260200190815260200160002060010160009054906101000a900460ff1660ff161415611b2457611b1d84610800565b9050611b8c565b6007600960008673ffffffffffffffffffffffffffffffffffffffff1673ffffffffffffffffffffffffffffffffffffffff16815260200190815260200160002060010160009054906101000a900460ff1660ff161415611b8b57611b8884610aef565b90505b5b5b5b5b5b5b60008114611ba3578083029150611ba8565b600091505b50505050565b6000600960003373ffffffffffffffffffffffffffffffffffffffff1673ffffffffffffffffffffffffffffffffffffffff168152602001908152602001600020600001549050600060045414611d13573373ffffffffffffffffffffffffffffffffffffffff166108fc60045483019081150290604051600060405180830381858888f19350505050158015611c49573d6000803e3d6000fd5b507f3990db2d31862302a685e8086b5755072a6e2b5b780af1ee81ece35ee3cd33456000809054906101000a900473ffffffffffffffffffffffffffffffffffffffff16336004548401604051808473ffffffffffffffffffffffffffffffffffffffff1673ffffffffffffffffffffffffffffffffffffffff1681526020018373ffffffffffffffffffffffffffffffffffffffff1673ffffffffffffffffffffffffffffffffffffffff168152602001828152602001935050505060405180910390a1611e3c565b6000809054906101000a900473ffffffffffffffffffffffffffffffffffffffff1673ffffffffffffffffffffffffffffffffffffffff166108fc829081150290604051600060405180830381858888f19350505050158015611d7a573d6000803e3d6000fd5b507f3990db2d31862302a685e8086b5755072a6e2b5b780af1ee81ece35ee3cd3345336000809054906101000a900473ffffffffffffffffffffffffffffffffffffffff1683604051808473ffffffffffffffffffffffffffffffffffffffff1673ffffffffffffffffffffffffffffffffffffffff1681526020018373ffffffffffffffffffffffffffffffffffffffff1673ffffffffffffffffffffffffffffffffffffffff168152602001828152602001935050505060405180910390a15b50565b6000809054906101000a900473ffffffffffffffffffffffffffffffffffffffff1681565b6000600554905090565b600960003373ffffffffffffffffffffffffffffffffffffffff1673ffffffffffffffffffffffffffffffffffffffff1681526020019081526020016000206000808201600090556001820160006101000a81549060ff0219169055600282016000611eda9190612926565b6003820160006101000a81549060ff0219169055505060066000611efe9190612947565b60006004819055506000600581905550565b6000611f1a61289c565b6006600380602002604051908101604052809291906000905b82821015611fb2578382016040518060400160405290816000820160009054906101000a900460ff166005811115611f6757fe5b6005811115611f7257fe5b81526020016000820160019054906101000a900460ff166002811115611f9457fe5b6002811115611f9f57fe5b8152505081526020019060010190611f33565b505050509050611fc06128c9565b600960008573ffffffffffffffffffffffffffffffffffffffff1673ffffffffffffffffffffffffffffffffffffffff168152602001908152602001600020604051806080016040529081600082015481526020016001820160009054906101000a900460ff1660ff1660ff16815260200160028201805480602002602001604051908101604052809291908181526020016000905b828210156120de578382906000526020600020016040518060400160405290816000820160009054906101000a900460ff16600581111561209357fe5b600581111561209e57fe5b81526020016000820160019054906101000a900460ff1660028111156120c057fe5b60028111156120cb57fe5b8152505081526020019060010190612056565b5050505081526020016003820160009054906101000a900460ff1615151515815250509050600080905060008090505b8260400151518110156121ea5760008090505b60038110156121dc5784816003811061213657fe5b602002015160200151600281111561214a57fe5b8460400151838151811061215a57fe5b602002602001015160200151600281111561217157fe5b14156121cf576001831415612185576121dc565b82806001019350508360400151828151811061219d57fe5b602002602001016121ac6128f6565b8152508481600381106121bb57fe5b602002016121c76128f6565b8152506121dc565b8080600101915050612121565b50808060010191505061210e565b50809350839350505050919050565b600061220361289c565b6006600380602002604051908101604052809291906000905b8282101561229b578382016040518060400160405290816000820160009054906101000a900460ff16600581111561225057fe5b600581111561225b57fe5b81526020016000820160019054906101000a900460ff16600281111561227d57fe5b600281111561228857fe5b815250508152602001906001019061221c565b5050505090506122a96128c9565b600960008573ffffffffffffffffffffffffffffffffffffffff1673ffffffffffffffffffffffffffffffffffffffff168152602001908152602001600020604051806080016040529081600082015481526020016001820160009054906101000a900460ff1660ff1660ff16815260200160028201805480602002602001604051908101604052809291908181526020016000905b828210156123c7578382906000526020600020016040518060400160405290816000820160009054906101000a900460ff16600581111561237c57fe5b600581111561238757fe5b81526020016000820160019054906101000a900460ff1660028111156123a957fe5b60028111156123b457fe5b815250508152602001906001019061233f565b5050505081526020016003820160009054906101000a900460ff1615151515815250509050600080905060008090505b8260400151518110156124c55760008090505b60038110156124b75784816003811061241f57fe5b602002015160000151600581111561243357fe5b8460400151838151811061244357fe5b602002602001015160000151600581111561245a57fe5b14156124aa5782806001019350508360400151828151811061247857fe5b602002602001016124876128f6565b81525084816003811061249657fe5b602002016124a26128f6565b8152506124b7565b808060010191505061240a565b5080806001019150506123f7565b5060028114156124d857600593506124dd565b600093505b839350505050919050565b60006124f261289c565b6006600380602002604051908101604052809291906000905b8282101561258a578382016040518060400160405290816000820160009054906101000a900460ff16600581111561253f57fe5b600581111561254a57fe5b81526020016000820160019054906101000a900460ff16600281111561256c57fe5b600281111561257757fe5b815250508152602001906001019061250b565b5050505090506125986128c9565b600960008573ffffffffffffffffffffffffffffffffffffffff1673ffffffffffffffffffffffffffffffffffffffff168152602001908152602001600020604051806080016040529081600082015481526020016001820160009054906101000a900460ff1660ff1660ff16815260200160028201805480602002602001604051908101604052809291908181526020016000905b828210156126b6578382906000526020600020016040518060400160405290816000820160009054906101000a900460ff16600581111561266b57fe5b600581111561267657fe5b81526020016000820160019054906101000a900460ff16600281111561269857fe5b60028111156126a357fe5b815250508152602001906001019061262e565b5050505081526020016003820160009054906101000a900460ff1615151515815250509050600080905060008090505b8260400151518110156127b45760008090505b60038110156127a65784816003811061270e57fe5b602002015160200151600281111561272257fe5b8460400151838151811061273257fe5b602002602001015160200151600281111561274957fe5b14156127995782806001019350508360400151828151811061276757fe5b602002602001016127766128f6565b81525084816003811061278557fe5b602002016127916128f6565b8152506127a6565b80806001019150506126f9565b5080806001019150506126e6565b5060028114156127c757600393506127cc565b600093505b839350505050919050565b6000809054906101000a900473ffffffffffffffffffffffffffffffffffffffff1673ffffffffffffffffffffffffffffffffffffffff163373ffffffffffffffffffffffffffffffffffffffff161461283057600080fd5b803373ffffffffffffffffffffffffffffffffffffffff1631101561285457600080fd5b8034101561286157600080fd5b3460046000828254019250508190555050565b60006006826003811061288357fe5b0160000160019054906101000a900460ff169050919050565b60405180606001604052806003905b6128b36128f6565b8152602001906001900390816128ab5790505090565b604051806080016040528060008152602001600060ff168152602001606081526020016000151581525090565b60405180604001604052806000600581111561290e57fe5b81526020016000600281111561292057fe5b81525090565b508054600082559060005260206000209081019061294491906129cf565b50565b50600080820160006101000a81549060ff02191690556000820160016101000a81549060ff021916905550600101600080820160006101000a81549060ff02191690556000820160016101000a81549060ff021916905550600101600080820160006101000a81549060ff02191690556000820160016101000a81549060ff02191690555050565b612a1391905b80821115612a0f57600080820160006101000a81549060ff02191690556000820160016101000a81549060ff0219169055506001016129d5565b5090565b9056fe596f75206d75737420626574206265747765656e20302e3030303120616e6420302e3031206574686572a265627a7a7231582068767737ddf9725d826e5a730a46cf1ed6482336d9c730e30470c47610f9bc9d64736f6c63430005100032",
  "source": "pragma solidity >=0.5.16 <0.6.0;\n\ncontract Betting{\n    address payable public owner;\n    uint256 private minBet;\n    uint256 private maxBet;\n    uint8 constant private numberOfDice = 3;\n    uint8 private numberOfFace = 6;\n    uint256 private moneyToPay;\n    uint256 private prize;\n    \n    enum Symbol {Apple, Tomato, Brocoli, Cucumber, Carrot, Pineapple}\n    enum Color {Red, Green, Orange}\n    \n    struct Player{\n        uint256 amountBet;\n        uint8 typeSelected;\n        DiceFace[] faceSelected;\n        bool isBetSet;\n    }\n    \n    struct DiceFace{\n        Symbol symbol;\n        Color color;\n    }\n    \n    DiceFace[numberOfDice] resultDices;\n    mapping(address => Player) public playerInfo;\n    function() external payable {}\n    \n    constructor() public{\n      owner = msg.sender;\n    // min is 0.0001 ether and max is 0.01 ether\n      minBet = 100000000000000;\n      maxBet = 10000000000000000;\n   }\n   \n   //event to log if the ether is sent\n   event Sent(address from, address to, uint amount );\n   \n   //kill contract\n   function kill() public {\n      if(msg.sender == owner) selfdestruct(owner);\n    }\n    \n   //bet the money\n   function bet(uint8 _typeSelected, Symbol[] memory _symbols, Color[] memory _colors) public payable{\n      require(playerInfo[msg.sender].isBetSet == false, \"You already bet.\");\n      require(msg.value >= minBet && msg.value <= maxBet, \"You must bet between 0.0001 and 0.01 ether\");\n      playerInfo[msg.sender].amountBet = msg.value;\n      playerInfo[msg.sender].typeSelected = _typeSelected;\n      playerInfo[msg.sender].isBetSet = true;\n      for(uint8 i = 0; i < _symbols.length; i++){\n          playerInfo[msg.sender].faceSelected.push(DiceFace({\n              symbol: _symbols[i],\n              color: _colors[i]\n          }));\n      }\n   }\n   \n   //set result of dice No. that come from front-end \n   function setResult(uint256 diceNo, Symbol _symbol, Color _color) public{\n       resultDices[diceNo].symbol = _symbol;\n       resultDices[diceNo].color = _color;\n   }\n   \n   //distribute the prizes for each player following the type of bet.\n   function distributePrize() public{\n       address payable player = msg.sender;\n       uint256 bet = playerInfo[player].amountBet;\n       uint256 prize = 0;\n       uint256 times = 0;\n\n           if(playerInfo[player].typeSelected == 1)times = singleDiceSymbolWinner(player);\n           else if(playerInfo[player].typeSelected == 2)times = pairDiceSymbolWinner(player);\n           else if(playerInfo[player].typeSelected == 3)times = tripleDiceSymbolWinner(player);\n           else if(playerInfo[player].typeSelected == 4)times = singleDiceColorWinner(player);\n           else if(playerInfo[player].typeSelected == 5)times = pairDiceColorWinner(player);\n           else if(playerInfo[player].typeSelected == 6)times = tripleDiceColorWinner(player);\n           else if(playerInfo[player].typeSelected == 7)times = tripleColorWinner(player);\n\n           if(times != 0){\n                prize = bet*times;\n           }else{\n                prize = 0;\n           }\n    }\n    \n    //pay to player if moneyToPay != 0 or pay to owner if = 0\n    function cashOut() public{\n        uint256 bet = playerInfo[msg.sender].amountBet;\n        if(moneyToPay != 0){\n                msg.sender.transfer(bet+moneyToPay);\n                emit Sent(owner, msg.sender, bet+moneyToPay);\n           }else{\n                owner.transfer(bet);\n                emit Sent(msg.sender, owner, bet);\n           }\n    }\n    \n    //reset the round\n    function reset() public{\n        delete playerInfo[msg.sender];\n        delete resultDices;\n        moneyToPay = 0;\n        prize = 0;\n    }\n \n    //get symbol of dice No.\n    function getDiceSymbol(uint diceNo) public view returns (Symbol){\n        return resultDices[diceNo].symbol;\n    }\n    \n    //get color of dice No.\n    function getDiceColor(uint diceNo) public view returns (Color){\n        return resultDices[diceNo].color;\n    }\n   \n    //get balance of this contract\n    function getContractBalance() public view returns (uint){\n        return address(this).balance;\n    }\n    \n    //get amount to pay \n    function getAmountToPay() public view returns (uint){\n        return prize;\n    }\n    \n    //pay by dealer following amount to pay.\n    function paybyDealer(uint amount) public payable{\n        require(msg.sender == owner);\n        require(address(msg.sender).balance >= amount);\n        require(msg.value >= amount);\n        moneyToPay +=  msg.value;\n    }\n    \n   /**bet with single symbol selected. \n    * if match 1 die get 1 times of bet, if 2 dice get 2 time of bet, if 3 dice get 3 time of bet.*/\n   function singleDiceSymbolWinner(address payable playerAddress) public returns (uint256 times){\n        DiceFace[3] memory temp = resultDices;\n        Player memory p = playerInfo[playerAddress];\n        uint256 count = 0;\n\n        for(uint256 i = 0; i < p.faceSelected.length; i++){\n            for(uint256 j = 0; j < temp.length; j++){\n                if(p.faceSelected[i].symbol == temp[j].symbol){\n                    count++;\n                }\n            }\n        }\n        \n        times = count;\n        return times;\n   }\n   \n    /**bet with pair symbol selected. \n    * if match 2 dice get 5 times of bet */\n   function pairDiceSymbolWinner(address payable playerAddress) public returns (uint256 times){\n       DiceFace[3] memory temp = resultDices;\n       Player memory p = playerInfo[playerAddress];\n       uint256 count = 0;\n\n       for(uint256 i = 0; i < p.faceSelected.length; i++){\n           for(uint256 j = 0; j < temp.length; j++){\n               if(p.faceSelected[i].symbol == temp[j].symbol){\n                   count++;\n                   delete p.faceSelected[i];\n                   delete temp[j];\n                   break;\n               }\n           }\n       }\n       \n       if(count == 2){\n           times = 5;\n       }else{\n           times = 0;\n       }\n       \n       return times;\n   }\n   \n   /**bet with single symbol selected. \n    * if match 3 dice get 3 times of bet */\n   function tripleDiceSymbolWinner(address payable playerAddress) public returns (uint256 times){\n       DiceFace[3] memory temp = resultDices;\n       Player memory p = playerInfo[playerAddress];\n       uint256 count = 0;\n       \n       for(uint256 i = 0; i < p.faceSelected.length; i++){\n           for(uint256 j = 0; j < temp.length; j++){\n               if(p.faceSelected[i].symbol == temp[j].symbol){\n                   count++;\n               }\n           }\n       }\n       \n       if(count == 3){\n           times = count;\n       }else{\n           times = 0;\n       }\n       return times;\n   }\n   \n    /**bet with single color of the symbol selected. \n    * if match 1 of 3 dice get 1 time of bet */\n   function singleDiceColorWinner(address payable playerAddress) public returns (uint256 times){\n        DiceFace[3] memory temp = resultDices;\n        Player memory p = playerInfo[playerAddress];\n        uint256 count = 0;\n\n        for(uint256 i = 0; i < p.faceSelected.length; i++){\n            for(uint256 j = 0; j < temp.length; j++){\n                if(p.faceSelected[i].color == temp[j].color){\n                    if(count == 1)break;\n                    count++;\n                    delete p.faceSelected[i];\n                    delete temp[j];\n                    break;\n                }\n            }\n        }\n        \n        times = count;\n        return times;\n   }\n   \n   /**bet with pair color of the symbol selected. \n    * if match 1 pair get 3 times of bet */\n   function pairDiceColorWinner(address payable playerAddress) public returns (uint256 times){\n        DiceFace[3] memory temp = resultDices;\n        Player memory p = playerInfo[playerAddress];\n        uint256 count = 0;\n\n        for(uint256 i = 0; i < p.faceSelected.length; i++){\n            for(uint256 j = 0; j < temp.length; j++){\n                if(p.faceSelected[i].color == temp[j].color){\n                    count++;\n                    delete p.faceSelected[i];\n                    delete temp[j];\n                    break;\n                }\n            }\n        }\n        \n        if(count == 2){\n            times = 3;\n        }else{\n            times = 0;\n        }\n        return times;\n   }\n   \n   /**bet with 3 symbol with the same color is selected. \n    * if match all get 7 times of bet */\n   function tripleDiceColorWinner(address payable playerAddress) public returns (uint256 times){\n        DiceFace[3] memory temp = resultDices;\n        Player memory p = playerInfo[playerAddress];\n        uint256 count = 0;\n\n        for(uint256 i = 0; i < p.faceSelected.length; i++){\n            for(uint256 j = 0; j < temp.length; j++){\n                if(p.faceSelected[i].color == temp[j].color){\n                    count++;\n                    delete p.faceSelected[i];\n                    delete temp[j];\n                    break;\n                }\n            }\n        }\n        \n        if(count == 3){\n            times = 7;\n        }else{\n            times = 0;\n        }\n        return times;\n   }\n   \n   /**bet with 3 symbol with the same color is selected. \n    * it must match all the symbol that player selected\n    * if match all get 20 times of bet */\n   function tripleColorWinner(address payable playerAddress) public returns (uint256 times){\n        DiceFace[3] memory temp = resultDices;\n        Player memory p = playerInfo[playerAddress];\n        uint256 count = 0;\n\n        for(uint256 i = 0; i < p.faceSelected.length; i++){\n            for(uint256 j = 0; j < temp.length; j++){\n                if(p.faceSelected[i].color == temp[j].color && p.faceSelected[i].symbol == temp[j].symbol){\n                    count++;\n                    delete p.faceSelected[i];\n                    delete temp[j];\n                    break;\n                }\n            }\n        }\n        \n        if(count == 3){\n            times = 20;\n        }else{\n            times = 0;\n        }\n        return times;\n   }\n}",
  "sourcePath": "/Users/narisa/Desktop/softArch/betblock/contract-eth/contracts/Betting.sol",
  "compiler": {
    "name": "solc",
    "version": "0.5.16+commit.9c3226ce.Emscripten.clang"
  },
  "schemaVersion": "3.1.0",
  "updatedAt": "2020-04-25T14:51:44.856Z",
  "devdoc": {
    "methods": {}
  },
  "userdoc": {
    "methods": {
      "pairDiceColorWinner(address)": {
        "notice": "bet with pair color of the symbol selected.  if match 1 pair get 3 times of bet "
      },
      "pairDiceSymbolWinner(address)": {
        "notice": "bet with pair symbol selected.  if match 2 dice get 5 times of bet "
      },
      "singleDiceColorWinner(address)": {
        "notice": "bet with single color of the symbol selected.  if match 1 of 3 dice get 1 time of bet "
      },
      "singleDiceSymbolWinner(address)": {
        "notice": "bet with single symbol selected.  if match 1 die get 1 times of bet, if 2 dice get 2 time of bet, if 3 dice get 3 time of bet."
      },
      "tripleColorWinner(address)": {
        "notice": "bet with 3 symbol with the same color is selected.  it must match all the symbol that player selected if match all get 20 times of bet "
      },
      "tripleDiceColorWinner(address)": {
        "notice": "bet with 3 symbol with the same color is selected.  if match all get 7 times of bet "
      },
      "tripleDiceSymbolWinner(address)": {
        "notice": "bet with single symbol selected.  if match 3 dice get 3 times of bet "
      }
    }
  }
}