{
  "contractName": "Betting",
  "abi": [
    {
      "inputs": [],
      "payable": false,
      "stateMutability": "nonpayable",
      "type": "constructor"
    },
    {
      "anonymous": false,
      "inputs": [
        {
          "indexed": false,
          "internalType": "address",
          "name": "from",
          "type": "address"
        },
        {
          "indexed": false,
          "internalType": "address",
          "name": "to",
          "type": "address"
        },
        {
          "indexed": false,
          "internalType": "uint256",
          "name": "amount",
          "type": "uint256"
        }
      ],
      "name": "Sent",
      "type": "event"
    },
    {
      "payable": true,
      "stateMutability": "payable",
      "type": "fallback"
    },
    {
      "constant": true,
      "inputs": [],
      "name": "owner",
      "outputs": [
        {
          "internalType": "address payable",
          "name": "",
          "type": "address"
        }
      ],
      "payable": false,
      "stateMutability": "view",
      "type": "function"
    },
    {
      "constant": true,
      "inputs": [
        {
          "internalType": "address",
          "name": "",
          "type": "address"
        }
      ],
      "name": "playerInfo",
      "outputs": [
        {
          "internalType": "uint256",
          "name": "amountBet",
          "type": "uint256"
        },
        {
          "internalType": "uint8",
          "name": "typeSelected",
          "type": "uint8"
        },
        {
          "internalType": "bool",
          "name": "isBetSet",
          "type": "bool"
        }
      ],
      "payable": false,
      "stateMutability": "view",
      "type": "function"
    },
    {
      "constant": false,
      "inputs": [],
      "name": "kill",
      "outputs": [],
      "payable": false,
      "stateMutability": "nonpayable",
      "type": "function"
    },
    {
      "constant": false,
      "inputs": [
        {
          "internalType": "uint8",
          "name": "_typeSelected",
          "type": "uint8"
        },
        {
          "internalType": "enum Betting.Symbol[]",
          "name": "_symbols",
          "type": "uint8[]"
        },
        {
          "internalType": "enum Betting.Color[]",
          "name": "_colors",
          "type": "uint8[]"
        }
      ],
      "name": "bet",
      "outputs": [],
      "payable": true,
      "stateMutability": "payable",
      "type": "function"
    },
    {
      "constant": false,
      "inputs": [
        {
          "internalType": "uint256",
          "name": "diceNo",
          "type": "uint256"
        },
        {
          "internalType": "enum Betting.Symbol",
          "name": "_symbol",
          "type": "uint8"
        },
        {
          "internalType": "enum Betting.Color",
          "name": "_color",
          "type": "uint8"
        }
      ],
      "name": "setResult",
      "outputs": [],
      "payable": false,
      "stateMutability": "nonpayable",
      "type": "function"
    },
    {
      "constant": false,
      "inputs": [],
      "name": "distributePrize",
      "outputs": [],
      "payable": false,
      "stateMutability": "nonpayable",
      "type": "function"
    },
    {
      "constant": false,
      "inputs": [],
      "name": "cashOut",
      "outputs": [],
      "payable": false,
      "stateMutability": "nonpayable",
      "type": "function"
    },
    {
      "constant": false,
      "inputs": [],
      "name": "reset",
      "outputs": [],
      "payable": false,
      "stateMutability": "nonpayable",
      "type": "function"
    },
    {
      "constant": true,
      "inputs": [
        {
          "internalType": "uint256",
          "name": "diceNo",
          "type": "uint256"
        }
      ],
      "name": "getDiceSymbol",
      "outputs": [
        {
          "internalType": "enum Betting.Symbol",
          "name": "",
          "type": "uint8"
        }
      ],
      "payable": false,
      "stateMutability": "view",
      "type": "function"
    },
    {
      "constant": true,
      "inputs": [
        {
          "internalType": "uint256",
          "name": "diceNo",
          "type": "uint256"
        }
      ],
      "name": "getDiceColor",
      "outputs": [
        {
          "internalType": "enum Betting.Color",
          "name": "",
          "type": "uint8"
        }
      ],
      "payable": false,
      "stateMutability": "view",
      "type": "function"
    },
    {
      "constant": true,
      "inputs": [],
      "name": "getBetStatus",
      "outputs": [
        {
          "internalType": "bool",
          "name": "",
          "type": "bool"
        }
      ],
      "payable": false,
      "stateMutability": "view",
      "type": "function"
    },
    {
      "constant": true,
      "inputs": [],
      "name": "getContractBalance",
      "outputs": [
        {
          "internalType": "uint256",
          "name": "",
          "type": "uint256"
        }
      ],
      "payable": false,
      "stateMutability": "view",
      "type": "function"
    },
    {
      "constant": true,
      "inputs": [],
      "name": "getAmountToPay",
      "outputs": [
        {
          "internalType": "uint256",
          "name": "",
          "type": "uint256"
        }
      ],
      "payable": false,
      "stateMutability": "view",
      "type": "function"
    },
    {
      "constant": false,
      "inputs": [
        {
          "internalType": "uint256",
          "name": "amount",
          "type": "uint256"
        }
      ],
      "name": "paybyDealer",
      "outputs": [],
      "payable": true,
      "stateMutability": "payable",
      "type": "function"
    },
    {
      "constant": false,
      "inputs": [
        {
          "internalType": "address payable",
          "name": "playerAddress",
          "type": "address"
        }
      ],
      "name": "singleDiceSymbolWinner",
      "outputs": [
        {
          "internalType": "uint256",
          "name": "times",
          "type": "uint256"
        }
      ],
      "payable": false,
      "stateMutability": "nonpayable",
      "type": "function"
    },
    {
      "constant": false,
      "inputs": [
        {
          "internalType": "address payable",
          "name": "playerAddress",
          "type": "address"
        }
      ],
      "name": "pairDiceSymbolWinner",
      "outputs": [
        {
          "internalType": "uint256",
          "name": "times",
          "type": "uint256"
        }
      ],
      "payable": false,
      "stateMutability": "nonpayable",
      "type": "function"
    },
    {
      "constant": false,
      "inputs": [
        {
          "internalType": "address payable",
          "name": "playerAddress",
          "type": "address"
        }
      ],
      "name": "tripleDiceSymbolWinner",
      "outputs": [
        {
          "internalType": "uint256",
          "name": "times",
          "type": "uint256"
        }
      ],
      "payable": false,
      "stateMutability": "nonpayable",
      "type": "function"
    },
    {
      "constant": false,
      "inputs": [
        {
          "internalType": "address payable",
          "name": "playerAddress",
          "type": "address"
        }
      ],
      "name": "singleDiceColorWinner",
      "outputs": [
        {
          "internalType": "uint256",
          "name": "times",
          "type": "uint256"
        }
      ],
      "payable": false,
      "stateMutability": "nonpayable",
      "type": "function"
    },
    {
      "constant": false,
      "inputs": [
        {
          "internalType": "address payable",
          "name": "playerAddress",
          "type": "address"
        }
      ],
      "name": "pairDiceColorWinner",
      "outputs": [
        {
          "internalType": "uint256",
          "name": "times",
          "type": "uint256"
        }
      ],
      "payable": false,
      "stateMutability": "nonpayable",
      "type": "function"
    },
    {
      "constant": false,
      "inputs": [
        {
          "internalType": "address payable",
          "name": "playerAddress",
          "type": "address"
        }
      ],
      "name": "tripleDiceColorWinner",
      "outputs": [
        {
          "internalType": "uint256",
          "name": "times",
          "type": "uint256"
        }
      ],
      "payable": false,
      "stateMutability": "nonpayable",
      "type": "function"
    },
    {
      "constant": false,
      "inputs": [
        {
          "internalType": "address payable",
          "name": "playerAddress",
          "type": "address"
        }
      ],
      "name": "tripleColorWinner",
      "outputs": [
        {
          "internalType": "uint256",
          "name": "times",
          "type": "uint256"
        }
      ],
      "payable": false,
      "stateMutability": "nonpayable",
      "type": "function"
    }
  ],
  "bytecode": "0x60806040526006600360006101000a81548160ff021916908360ff16021790555034801561002c57600080fd5b50336000806101000a81548173ffffffffffffffffffffffffffffffffffffffff021916908373ffffffffffffffffffffffffffffffffffffffff160217905550655af3107a4000600181905550662386f26fc10000600281905550612bd0806100976000396000f3fe60806040526004361061012a5760003560e01c80636f9fb98a116100ab578063d826f88f1161006f578063d826f88f14610669578063da9fb5bd14610680578063e6ae066d146106e5578063eaa379d91461074a578063f42204e9146107af578063fc1abdde146107dd5761012a565b80636f9fb98a1461058e57806377b6e504146105b9578063793cd71e146105d05780638da5cb5b146105e75780639de111b01461063e5761012a565b806341c0e1b5116100f257806341c0e1b5146102df5780634b114691146102f6578063594ecf761461037357806363a8f2d5146103d85780636c3e0266146105315761012a565b8063083341b31461012c5780631c6dbb8a146101915780631ecf450e146101f65780631fa859e81461024b5780633f608d1b1461027a575b005b34801561013857600080fd5b5061017b6004803603602081101561014f57600080fd5b81019080803573ffffffffffffffffffffffffffffffffffffffff16906020019092919050505061083a565b6040518082815260200191505060405180910390f35b34801561019d57600080fd5b506101e0600480360360208110156101b457600080fd5b81019080803573ffffffffffffffffffffffffffffffffffffffff169060200190929190505050610b29565b6040518082815260200191505060405180910390f35b34801561020257600080fd5b506102496004803603606081101561021957600080fd5b8101908080359060200190929190803560ff169060200190929190803560ff169060200190929190505050610e68565b005b34801561025757600080fd5b50610260610f9a565b604051808215151515815260200191505060405180910390f35b34801561028657600080fd5b506102c96004803603602081101561029d57600080fd5b81019080803573ffffffffffffffffffffffffffffffffffffffff169060200190929190505050610ff1565b6040518082815260200191505060405180910390f35b3480156102eb57600080fd5b506102f461129e565b005b34801561030257600080fd5b506103456004803603602081101561031957600080fd5b81019080803573ffffffffffffffffffffffffffffffffffffffff16906020019092919050505061132f565b604051808481526020018360ff1660ff16815260200182151515158152602001935050505060405180910390f35b34801561037f57600080fd5b506103c26004803603602081101561039657600080fd5b81019080803573ffffffffffffffffffffffffffffffffffffffff169060200190929190505050611373565b6040518082815260200191505060405180910390f35b61052f600480360360608110156103ee57600080fd5b81019080803560ff1690602001909291908035906020019064010000000081111561041857600080fd5b82018360208201111561042a57600080fd5b8035906020019184602083028401116401000000008311171561044c57600080fd5b919080806020026020016040519081016040528093929190818152602001838360200280828437600081840152601f19601f820116905080830192505050505050509192919290803590602001906401000000008111156104ac57600080fd5b8201836020820111156104be57600080fd5b803590602001918460208302840111640100000000831117156104e057600080fd5b919080806020026020016040519081016040528093929190818152602001838360200280828437600081840152601f19601f82011690508083019250505050505050919291929050505061160d565b005b34801561053d57600080fd5b5061056a6004803603602081101561055457600080fd5b8101908080359060200190929190505050611976565b6040518082600581111561057a57fe5b60ff16815260200191505060405180910390f35b34801561059a57600080fd5b506105a361199e565b6040518082815260200191505060405180910390f35b3480156105c557600080fd5b506105ce6119a6565b005b3480156105dc57600080fd5b506105e5611d08565b005b3480156105f357600080fd5b506105fc611f99565b604051808273ffffffffffffffffffffffffffffffffffffffff1673ffffffffffffffffffffffffffffffffffffffff16815260200191505060405180910390f35b34801561064a57600080fd5b50610653611fbe565b6040518082815260200191505060405180910390f35b34801561067557600080fd5b5061067e611fc8565b005b34801561068c57600080fd5b506106cf600480360360208110156106a357600080fd5b81019080803573ffffffffffffffffffffffffffffffffffffffff16906020019092919050505061206a565b6040518082815260200191505060405180910390f35b3480156106f157600080fd5b506107346004803603602081101561070857600080fd5b81019080803573ffffffffffffffffffffffffffffffffffffffff169060200190929190505050612353565b6040518082815260200191505060405180910390f35b34801561075657600080fd5b506107996004803603602081101561076d57600080fd5b81019080803573ffffffffffffffffffffffffffffffffffffffff169060200190929190505050612642565b6040518082815260200191505060405180910390f35b6107db600480360360208110156107c557600080fd5b8101908080359060200190929190505050612931565b005b3480156107e957600080fd5b506108166004803603602081101561080057600080fd5b81019080803590602001909291905050506129ce565b6040518082600281111561082657fe5b60ff16815260200191505060405180910390f35b60006108446129f6565b6006600380602002604051908101604052809291906000905b828210156108dc578382016040518060400160405290816000820160009054906101000a900460ff16600581111561089157fe5b600581111561089c57fe5b81526020016000820160019054906101000a900460ff1660028111156108be57fe5b60028111156108c957fe5b815250508152602001906001019061085d565b5050505090506108ea612a23565b600960008573ffffffffffffffffffffffffffffffffffffffff1673ffffffffffffffffffffffffffffffffffffffff168152602001908152602001600020604051806080016040529081600082015481526020016001820160009054906101000a900460ff1660ff1660ff16815260200160028201805480602002602001604051908101604052809291908181526020016000905b82821015610a08578382906000526020600020016040518060400160405290816000820160009054906101000a900460ff1660058111156109bd57fe5b60058111156109c857fe5b81526020016000820160019054906101000a900460ff1660028111156109ea57fe5b60028111156109f557fe5b8152505081526020019060010190610980565b5050505081526020016003820160009054906101000a900460ff1615151515815250509050600080905060008090505b826040015151811015610b065760008090505b6003811015610af857848160038110610a6057fe5b6020020151602001516002811115610a7457fe5b84604001518381518110610a8457fe5b6020026020010151602001516002811115610a9b57fe5b1415610aeb57828060010193505083604001518281518110610ab957fe5b60200260200101610ac8612a50565b815250848160038110610ad757fe5b60200201610ae3612a50565b815250610af8565b8080600101915050610a4b565b508080600101915050610a38565b506003811415610b195760079350610b1e565b600093505b839350505050919050565b6000610b336129f6565b6006600380602002604051908101604052809291906000905b82821015610bcb578382016040518060400160405290816000820160009054906101000a900460ff166005811115610b8057fe5b6005811115610b8b57fe5b81526020016000820160019054906101000a900460ff166002811115610bad57fe5b6002811115610bb857fe5b8152505081526020019060010190610b4c565b505050509050610bd9612a23565b600960008573ffffffffffffffffffffffffffffffffffffffff1673ffffffffffffffffffffffffffffffffffffffff168152602001908152602001600020604051806080016040529081600082015481526020016001820160009054906101000a900460ff1660ff1660ff16815260200160028201805480602002602001604051908101604052809291908181526020016000905b82821015610cf7578382906000526020600020016040518060400160405290816000820160009054906101000a900460ff166005811115610cac57fe5b6005811115610cb757fe5b81526020016000820160019054906101000a900460ff166002811115610cd957fe5b6002811115610ce457fe5b8152505081526020019060010190610c6f565b5050505081526020016003820160009054906101000a900460ff1615151515815250509050600080905060008090505b826040015151811015610e455760008090505b6003811015610e3757848160038110610d4f57fe5b6020020151602001516002811115610d6357fe5b84604001518381518110610d7357fe5b6020026020010151602001516002811115610d8a57fe5b148015610ddb5750848160038110610d9e57fe5b6020020151600001516005811115610db257fe5b84604001518381518110610dc257fe5b6020026020010151600001516005811115610dd957fe5b145b15610e2a57828060010193505083604001518281518110610df857fe5b60200260200101610e07612a50565b815250848160038110610e1657fe5b60200201610e22612a50565b815250610e37565b8080600101915050610d3a565b508080600101915050610d27565b506003811415610e585760149350610e5d565b600093505b839350505050919050565b60011515600960003373ffffffffffffffffffffffffffffffffffffffff1673ffffffffffffffffffffffffffffffffffffffff16815260200190815260200160002060030160009054906101000a900460ff16151514610f31576040517f08c379a00000000000000000000000000000000000000000000000000000000081526004018080602001828103825260168152602001807f596f75206e65656420746f206265742066697273742e0000000000000000000081525060200191505060405180910390fd5b8160068460038110610f3f57fe5b0160000160006101000a81548160ff02191690836005811115610f5e57fe5b02179055508060068460038110610f7157fe5b0160000160016101000a81548160ff02191690836002811115610f9057fe5b0217905550505050565b6000600960003373ffffffffffffffffffffffffffffffffffffffff1673ffffffffffffffffffffffffffffffffffffffff16815260200190815260200160002060030160009054906101000a900460ff16905090565b6000610ffb6129f6565b6006600380602002604051908101604052809291906000905b82821015611093578382016040518060400160405290816000820160009054906101000a900460ff16600581111561104857fe5b600581111561105357fe5b81526020016000820160019054906101000a900460ff16600281111561107557fe5b600281111561108057fe5b8152505081526020019060010190611014565b5050505090506110a1612a23565b600960008573ffffffffffffffffffffffffffffffffffffffff1673ffffffffffffffffffffffffffffffffffffffff168152602001908152602001600020604051806080016040529081600082015481526020016001820160009054906101000a900460ff1660ff1660ff16815260200160028201805480602002602001604051908101604052809291908181526020016000905b828210156111bf578382906000526020600020016040518060400160405290816000820160009054906101000a900460ff16600581111561117457fe5b600581111561117f57fe5b81526020016000820160019054906101000a900460ff1660028111156111a157fe5b60028111156111ac57fe5b8152505081526020019060010190611137565b5050505081526020016003820160009054906101000a900460ff1615151515815250509050600080905060008090505b82604001515181101561127c5760008090505b600381101561126e5784816003811061121757fe5b602002015160000151600581111561122b57fe5b8460400151838151811061123b57fe5b602002602001015160000151600581111561125257fe5b14156112615782806001019350505b8080600101915050611202565b5080806001019150506111ef565b50600381141561128e57809350611293565b600093505b839350505050919050565b6000809054906101000a900473ffffffffffffffffffffffffffffffffffffffff1673ffffffffffffffffffffffffffffffffffffffff163373ffffffffffffffffffffffffffffffffffffffff16141561132d576000809054906101000a900473ffffffffffffffffffffffffffffffffffffffff1673ffffffffffffffffffffffffffffffffffffffff16ff5b565b60096020528060005260406000206000915090508060000154908060010160009054906101000a900460ff16908060030160009054906101000a900460ff16905083565b600061137d6129f6565b6006600380602002604051908101604052809291906000905b82821015611415578382016040518060400160405290816000820160009054906101000a900460ff1660058111156113ca57fe5b60058111156113d557fe5b81526020016000820160019054906101000a900460ff1660028111156113f757fe5b600281111561140257fe5b8152505081526020019060010190611396565b505050509050611423612a23565b600960008573ffffffffffffffffffffffffffffffffffffffff1673ffffffffffffffffffffffffffffffffffffffff168152602001908152602001600020604051806080016040529081600082015481526020016001820160009054906101000a900460ff1660ff1660ff16815260200160028201805480602002602001604051908101604052809291908181526020016000905b82821015611541578382906000526020600020016040518060400160405290816000820160009054906101000a900460ff1660058111156114f657fe5b600581111561150157fe5b81526020016000820160019054906101000a900460ff16600281111561152357fe5b600281111561152e57fe5b81525050815260200190600101906114b9565b5050505081526020016003820160009054906101000a900460ff1615151515815250509050600080905060008090505b8260400151518110156115fe5760008090505b60038110156115f05784816003811061159957fe5b60200201516000015160058111156115ad57fe5b846040015183815181106115bd57fe5b60200260200101516000015160058111156115d457fe5b14156115e35782806001019350505b8080600101915050611584565b508080600101915050611571565b50809350839350505050919050565b60001515600960003373ffffffffffffffffffffffffffffffffffffffff1673ffffffffffffffffffffffffffffffffffffffff16815260200190815260200160002060030160009054906101000a900460ff161515146116d6576040517f08c379a00000000000000000000000000000000000000000000000000000000081526004018080602001828103825260108152602001807f596f7520616c7265616479206265742e0000000000000000000000000000000081525060200191505060405180910390fd5b60015434101580156116ea57506002543411155b61173f576040517f08c379a000000000000000000000000000000000000000000000000000000000815260040180806020018281038252602b815260200180612b71602b913960400191505060405180910390fd5b34600960003373ffffffffffffffffffffffffffffffffffffffff1673ffffffffffffffffffffffffffffffffffffffff1681526020019081526020016000206000018190555082600960003373ffffffffffffffffffffffffffffffffffffffff1673ffffffffffffffffffffffffffffffffffffffff16815260200190815260200160002060010160006101000a81548160ff021916908360ff1602179055506001600960003373ffffffffffffffffffffffffffffffffffffffff1673ffffffffffffffffffffffffffffffffffffffff16815260200190815260200160002060030160006101000a81548160ff02191690831515021790555060008090505b82518160ff16101561197057600960003373ffffffffffffffffffffffffffffffffffffffff1673ffffffffffffffffffffffffffffffffffffffff1681526020019081526020016000206002016040518060400160405280858460ff16815181106118aa57fe5b602002602001015160058111156118bd57fe5b8152602001848460ff16815181106118d157fe5b602002602001015160028111156118e457fe5b81525090806001815401808255809150509060018203906000526020600020016000909192909190915060008201518160000160006101000a81548160ff0219169083600581111561193257fe5b021790555060208201518160000160016101000a81548160ff0219169083600281111561195b57fe5b02179055505050508080600101915050611842565b50505050565b60006006826003811061198557fe5b0160000160009054906101000a900460ff169050919050565b600047905090565b60003390506000600960008373ffffffffffffffffffffffffffffffffffffffff1673ffffffffffffffffffffffffffffffffffffffff168152602001908152602001600020600001549050600080905060008090506001600960008673ffffffffffffffffffffffffffffffffffffffff1673ffffffffffffffffffffffffffffffffffffffff16815260200190815260200160002060010160009054906101000a900460ff1660ff161415611a6757611a6084611373565b9050611ceb565b6002600960008673ffffffffffffffffffffffffffffffffffffffff1673ffffffffffffffffffffffffffffffffffffffff16815260200190815260200160002060010160009054906101000a900460ff1660ff161415611ad257611acb84612353565b9050611cea565b6003600960008673ffffffffffffffffffffffffffffffffffffffff1673ffffffffffffffffffffffffffffffffffffffff16815260200190815260200160002060010160009054906101000a900460ff1660ff161415611b3d57611b3684610ff1565b9050611ce9565b6004600960008673ffffffffffffffffffffffffffffffffffffffff1673ffffffffffffffffffffffffffffffffffffffff16815260200190815260200160002060010160009054906101000a900460ff1660ff161415611ba857611ba18461206a565b9050611ce8565b6005600960008673ffffffffffffffffffffffffffffffffffffffff1673ffffffffffffffffffffffffffffffffffffffff16815260200190815260200160002060010160009054906101000a900460ff1660ff161415611c1357611c0c84612642565b9050611ce7565b6006600960008673ffffffffffffffffffffffffffffffffffffffff1673ffffffffffffffffffffffffffffffffffffffff16815260200190815260200160002060010160009054906101000a900460ff1660ff161415611c7e57611c778461083a565b9050611ce6565b6007600960008673ffffffffffffffffffffffffffffffffffffffff1673ffffffffffffffffffffffffffffffffffffffff16815260200190815260200160002060010160009054906101000a900460ff1660ff161415611ce557611ce284610b29565b90505b5b5b5b5b5b5b60008114611cfd578083029150611d02565b600091505b50505050565b6000600960003373ffffffffffffffffffffffffffffffffffffffff1673ffffffffffffffffffffffffffffffffffffffff168152602001908152602001600020600001549050600060045414611e6d573373ffffffffffffffffffffffffffffffffffffffff166108fc60045483019081150290604051600060405180830381858888f19350505050158015611da3573d6000803e3d6000fd5b507f3990db2d31862302a685e8086b5755072a6e2b5b780af1ee81ece35ee3cd33456000809054906101000a900473ffffffffffffffffffffffffffffffffffffffff16336004548401604051808473ffffffffffffffffffffffffffffffffffffffff1673ffffffffffffffffffffffffffffffffffffffff1681526020018373ffffffffffffffffffffffffffffffffffffffff1673ffffffffffffffffffffffffffffffffffffffff168152602001828152602001935050505060405180910390a1611f96565b6000809054906101000a900473ffffffffffffffffffffffffffffffffffffffff1673ffffffffffffffffffffffffffffffffffffffff166108fc829081150290604051600060405180830381858888f19350505050158015611ed4573d6000803e3d6000fd5b507f3990db2d31862302a685e8086b5755072a6e2b5b780af1ee81ece35ee3cd3345336000809054906101000a900473ffffffffffffffffffffffffffffffffffffffff1683604051808473ffffffffffffffffffffffffffffffffffffffff1673ffffffffffffffffffffffffffffffffffffffff1681526020018373ffffffffffffffffffffffffffffffffffffffff1673ffffffffffffffffffffffffffffffffffffffff168152602001828152602001935050505060405180910390a15b50565b6000809054906101000a900473ffffffffffffffffffffffffffffffffffffffff1681565b6000600554905090565b600960003373ffffffffffffffffffffffffffffffffffffffff1673ffffffffffffffffffffffffffffffffffffffff1681526020019081526020016000206000808201600090556001820160006101000a81549060ff02191690556002820160006120349190612a80565b6003820160006101000a81549060ff02191690555050600660006120589190612aa1565b60006004819055506000600581905550565b60006120746129f6565b6006600380602002604051908101604052809291906000905b8282101561210c578382016040518060400160405290816000820160009054906101000a900460ff1660058111156120c157fe5b60058111156120cc57fe5b81526020016000820160019054906101000a900460ff1660028111156120ee57fe5b60028111156120f957fe5b815250508152602001906001019061208d565b50505050905061211a612a23565b600960008573ffffffffffffffffffffffffffffffffffffffff1673ffffffffffffffffffffffffffffffffffffffff168152602001908152602001600020604051806080016040529081600082015481526020016001820160009054906101000a900460ff1660ff1660ff16815260200160028201805480602002602001604051908101604052809291908181526020016000905b82821015612238578382906000526020600020016040518060400160405290816000820160009054906101000a900460ff1660058111156121ed57fe5b60058111156121f857fe5b81526020016000820160019054906101000a900460ff16600281111561221a57fe5b600281111561222557fe5b81525050815260200190600101906121b0565b5050505081526020016003820160009054906101000a900460ff1615151515815250509050600080905060008090505b8260400151518110156123445760008090505b60038110156123365784816003811061229057fe5b60200201516020015160028111156122a457fe5b846040015183815181106122b457fe5b60200260200101516020015160028111156122cb57fe5b14156123295760018314156122df57612336565b8280600101935050836040015182815181106122f757fe5b60200260200101612306612a50565b81525084816003811061231557fe5b60200201612321612a50565b815250612336565b808060010191505061227b565b508080600101915050612268565b50809350839350505050919050565b600061235d6129f6565b6006600380602002604051908101604052809291906000905b828210156123f5578382016040518060400160405290816000820160009054906101000a900460ff1660058111156123aa57fe5b60058111156123b557fe5b81526020016000820160019054906101000a900460ff1660028111156123d757fe5b60028111156123e257fe5b8152505081526020019060010190612376565b505050509050612403612a23565b600960008573ffffffffffffffffffffffffffffffffffffffff1673ffffffffffffffffffffffffffffffffffffffff168152602001908152602001600020604051806080016040529081600082015481526020016001820160009054906101000a900460ff1660ff1660ff16815260200160028201805480602002602001604051908101604052809291908181526020016000905b82821015612521578382906000526020600020016040518060400160405290816000820160009054906101000a900460ff1660058111156124d657fe5b60058111156124e157fe5b81526020016000820160019054906101000a900460ff16600281111561250357fe5b600281111561250e57fe5b8152505081526020019060010190612499565b5050505081526020016003820160009054906101000a900460ff1615151515815250509050600080905060008090505b82604001515181101561261f5760008090505b60038110156126115784816003811061257957fe5b602002015160000151600581111561258d57fe5b8460400151838151811061259d57fe5b60200260200101516000015160058111156125b457fe5b1415612604578280600101935050836040015182815181106125d257fe5b602002602001016125e1612a50565b8152508481600381106125f057fe5b602002016125fc612a50565b815250612611565b8080600101915050612564565b508080600101915050612551565b5060028114156126325760059350612637565b600093505b839350505050919050565b600061264c6129f6565b6006600380602002604051908101604052809291906000905b828210156126e4578382016040518060400160405290816000820160009054906101000a900460ff16600581111561269957fe5b60058111156126a457fe5b81526020016000820160019054906101000a900460ff1660028111156126c657fe5b60028111156126d157fe5b8152505081526020019060010190612665565b5050505090506126f2612a23565b600960008573ffffffffffffffffffffffffffffffffffffffff1673ffffffffffffffffffffffffffffffffffffffff168152602001908152602001600020604051806080016040529081600082015481526020016001820160009054906101000a900460ff1660ff1660ff16815260200160028201805480602002602001604051908101604052809291908181526020016000905b82821015612810578382906000526020600020016040518060400160405290816000820160009054906101000a900460ff1660058111156127c557fe5b60058111156127d057fe5b81526020016000820160019054906101000a900460ff1660028111156127f257fe5b60028111156127fd57fe5b8152505081526020019060010190612788565b5050505081526020016003820160009054906101000a900460ff1615151515815250509050600080905060008090505b82604001515181101561290e5760008090505b60038110156129005784816003811061286857fe5b602002015160200151600281111561287c57fe5b8460400151838151811061288c57fe5b60200260200101516020015160028111156128a357fe5b14156128f3578280600101935050836040015182815181106128c157fe5b602002602001016128d0612a50565b8152508481600381106128df57fe5b602002016128eb612a50565b815250612900565b8080600101915050612853565b508080600101915050612840565b5060028114156129215760039350612926565b600093505b839350505050919050565b6000809054906101000a900473ffffffffffffffffffffffffffffffffffffffff1673ffffffffffffffffffffffffffffffffffffffff163373ffffffffffffffffffffffffffffffffffffffff161461298a57600080fd5b803373ffffffffffffffffffffffffffffffffffffffff163110156129ae57600080fd5b803410156129bb57600080fd5b3460046000828254019250508190555050565b6000600682600381106129dd57fe5b0160000160019054906101000a900460ff169050919050565b60405180606001604052806003905b612a0d612a50565b815260200190600190039081612a055790505090565b604051806080016040528060008152602001600060ff168152602001606081526020016000151581525090565b604051806040016040528060006005811115612a6857fe5b815260200160006002811115612a7a57fe5b81525090565b5080546000825590600052602060002090810190612a9e9190612b29565b50565b50600080820160006101000a81549060ff02191690556000820160016101000a81549060ff021916905550600101600080820160006101000a81549060ff02191690556000820160016101000a81549060ff021916905550600101600080820160006101000a81549060ff02191690556000820160016101000a81549060ff02191690555050565b612b6d91905b80821115612b6957600080820160006101000a81549060ff02191690556000820160016101000a81549060ff021916905550600101612b2f565b5090565b9056fe596f75206d75737420626574206265747765656e20302e3030303120616e6420302e30312065746865722ea265627a7a72315820cc6f1fabadf133c3156e91d6d445011b393bb5f6d7bfdfc25969d0dfee1b8bea64736f6c63430005100032",
  "source": "pragma solidity >=0.5.0 <0.6.0;\n\ncontract Betting{\n    address payable public owner;\n    uint256 private minBet;\n    uint256 private maxBet;\n    uint8 constant private numberOfDice = 3;\n    uint8 private numberOfFace = 6;\n    uint256 private moneyToPay;\n    uint256 private prize;\n    \n    enum Symbol {Apple, Tomato, Brocoli, Cucumber, Carrot, Pineapple}\n    enum Color {Red, Green, Orange}\n    \n    struct Player{\n        uint256 amountBet;\n        uint8 typeSelected;\n        DiceFace[] faceSelected;\n        bool isBetSet;\n    }\n    \n    struct DiceFace{\n        Symbol symbol;\n        Color color;\n    }\n    \n    DiceFace[numberOfDice] resultDices;\n    mapping(address => Player) public playerInfo;\n    function() external payable {}\n    \n    constructor() public{\n      owner = msg.sender;\n    // min is 0.0001 ether and max is 0.01 ether\n      minBet = 100000000000000;\n      maxBet = 10000000000000000;\n   }\n   \n   //event to log if the ether is sent\n   event Sent(address from, address to, uint amount );\n   \n   //kill contract\n   function kill() public {\n      if(msg.sender == owner) selfdestruct(owner);\n    }\n    \n   //bet the money\n   function bet(uint8 _typeSelected, Symbol[] memory _symbols, Color[] memory _colors) public payable{\n      require(playerInfo[msg.sender].isBetSet == false, \"You already bet.\");\n      require(msg.value >= minBet && msg.value <= maxBet, \"You must bet between 0.0001 and 0.01 ether.\");\n      playerInfo[msg.sender].amountBet = msg.value;\n      playerInfo[msg.sender].typeSelected = _typeSelected;\n      playerInfo[msg.sender].isBetSet = true;\n      for(uint8 i = 0; i < _symbols.length; i++){\n          playerInfo[msg.sender].faceSelected.push(DiceFace({\n              symbol: _symbols[i],\n              color: _colors[i]\n          }));\n      }\n   }\n   \n   //set result of dice No. that come from front-end \n   function setResult(uint256 diceNo, Symbol _symbol, Color _color) public{\n       require(playerInfo[msg.sender].isBetSet == true, \"You need to bet first.\");\n       resultDices[diceNo].symbol = _symbol;\n       resultDices[diceNo].color = _color;\n   }\n   \n   //distribute the prizes for each player following the type of bet.\n   function distributePrize() public{\n       address payable player = msg.sender;\n       uint256 bet = playerInfo[player].amountBet;\n       uint256 prize = 0;\n       uint256 times = 0;\n\n           if(playerInfo[player].typeSelected == 1)times = singleDiceSymbolWinner(player);\n           else if(playerInfo[player].typeSelected == 2)times = pairDiceSymbolWinner(player);\n           else if(playerInfo[player].typeSelected == 3)times = tripleDiceSymbolWinner(player);\n           else if(playerInfo[player].typeSelected == 4)times = singleDiceColorWinner(player);\n           else if(playerInfo[player].typeSelected == 5)times = pairDiceColorWinner(player);\n           else if(playerInfo[player].typeSelected == 6)times = tripleDiceColorWinner(player);\n           else if(playerInfo[player].typeSelected == 7)times = tripleColorWinner(player);\n\n           if(times != 0){\n                prize = bet*times;\n           }else{\n                prize = 0;\n           }\n    }\n    \n    //pay to player if moneyToPay != 0 or pay to owner if = 0\n    function cashOut() public{\n        uint256 bet = playerInfo[msg.sender].amountBet;\n        if(moneyToPay != 0){\n                msg.sender.transfer(bet+moneyToPay);\n                emit Sent(owner, msg.sender, bet+moneyToPay);\n           }else{\n                owner.transfer(bet);\n                emit Sent(msg.sender, owner, bet);\n           }\n    }\n    \n    //reset the round\n    function reset() public{\n        delete playerInfo[msg.sender];\n        delete resultDices;\n        moneyToPay = 0;\n        prize = 0;\n    }\n \n    //get symbol of dice No.\n    function getDiceSymbol(uint diceNo) public view returns (Symbol){\n        return resultDices[diceNo].symbol;\n    }\n    \n    //get color of dice No.\n    function getDiceColor(uint diceNo) public view returns (Color){\n        return resultDices[diceNo].color;\n    }\n    \n    function getBetStatus() public view returns (bool){\n        return playerInfo[msg.sender].isBetSet;\n    }\n   \n    //get balance of this contract\n    function getContractBalance() public view returns (uint){\n        return address(this).balance;\n    }\n    \n    //get amount to pay \n    function getAmountToPay() public view returns (uint){\n        return prize;\n    }\n    \n    //pay by dealer following amount to pay.\n    function paybyDealer(uint amount) public payable{\n        require(msg.sender == owner);\n        require(address(msg.sender).balance >= amount);\n        require(msg.value >= amount);\n        moneyToPay +=  msg.value;\n    }\n    \n   /**bet with single symbol selected. \n    * if match 1 die get 1 times of bet, if 2 dice get 2 time of bet, if 3 dice get 3 time of bet.*/\n   function singleDiceSymbolWinner(address payable playerAddress) public returns (uint256 times){\n        DiceFace[3] memory temp = resultDices;\n        Player memory p = playerInfo[playerAddress];\n        uint256 count = 0;\n\n        for(uint256 i = 0; i < p.faceSelected.length; i++){\n            for(uint256 j = 0; j < temp.length; j++){\n                if(p.faceSelected[i].symbol == temp[j].symbol){\n                    count++;\n                }\n            }\n        }\n        \n        times = count;\n        return times;\n   }\n   \n    /**bet with pair symbol selected. \n    * if match 2 dice get 5 times of bet */\n   function pairDiceSymbolWinner(address payable playerAddress) public returns (uint256 times){\n       DiceFace[3] memory temp = resultDices;\n       Player memory p = playerInfo[playerAddress];\n       uint256 count = 0;\n\n       for(uint256 i = 0; i < p.faceSelected.length; i++){\n           for(uint256 j = 0; j < temp.length; j++){\n               if(p.faceSelected[i].symbol == temp[j].symbol){\n                   count++;\n                   delete p.faceSelected[i];\n                   delete temp[j];\n                   break;\n               }\n           }\n       }\n       \n       if(count == 2){\n           times = 5;\n       }else{\n           times = 0;\n       }\n       \n       return times;\n   }\n   \n   /**bet with single symbol selected. \n    * if match 3 dice get 3 times of bet */\n   function tripleDiceSymbolWinner(address payable playerAddress) public returns (uint256 times){\n       DiceFace[3] memory temp = resultDices;\n       Player memory p = playerInfo[playerAddress];\n       uint256 count = 0;\n       \n       for(uint256 i = 0; i < p.faceSelected.length; i++){\n           for(uint256 j = 0; j < temp.length; j++){\n               if(p.faceSelected[i].symbol == temp[j].symbol){\n                   count++;\n               }\n           }\n       }\n       \n       if(count == 3){\n           times = count;\n       }else{\n           times = 0;\n       }\n       return times;\n   }\n   \n    /**bet with single color of the symbol selected. \n    * if match 1 of 3 dice get 1 time of bet */\n   function singleDiceColorWinner(address payable playerAddress) public returns (uint256 times){\n        DiceFace[3] memory temp = resultDices;\n        Player memory p = playerInfo[playerAddress];\n        uint256 count = 0;\n\n        for(uint256 i = 0; i < p.faceSelected.length; i++){\n            for(uint256 j = 0; j < temp.length; j++){\n                if(p.faceSelected[i].color == temp[j].color){\n                    if(count == 1)break;\n                    count++;\n                    delete p.faceSelected[i];\n                    delete temp[j];\n                    break;\n                }\n            }\n        }\n        \n        times = count;\n        return times;\n   }\n   \n   /**bet with pair color of the symbol selected. \n    * if match 1 pair get 3 times of bet */\n   function pairDiceColorWinner(address payable playerAddress) public returns (uint256 times){\n        DiceFace[3] memory temp = resultDices;\n        Player memory p = playerInfo[playerAddress];\n        uint256 count = 0;\n\n        for(uint256 i = 0; i < p.faceSelected.length; i++){\n            for(uint256 j = 0; j < temp.length; j++){\n                if(p.faceSelected[i].color == temp[j].color){\n                    count++;\n                    delete p.faceSelected[i];\n                    delete temp[j];\n                    break;\n                }\n            }\n        }\n        \n        if(count == 2){\n            times = 3;\n        }else{\n            times = 0;\n        }\n        return times;\n   }\n   \n   /**bet with 3 symbol with the same color is selected. \n    * if match all get 7 times of bet */\n   function tripleDiceColorWinner(address payable playerAddress) public returns (uint256 times){\n        DiceFace[3] memory temp = resultDices;\n        Player memory p = playerInfo[playerAddress];\n        uint256 count = 0;\n\n        for(uint256 i = 0; i < p.faceSelected.length; i++){\n            for(uint256 j = 0; j < temp.length; j++){\n                if(p.faceSelected[i].color == temp[j].color){\n                    count++;\n                    delete p.faceSelected[i];\n                    delete temp[j];\n                    break;\n                }\n            }\n        }\n        \n        if(count == 3){\n            times = 7;\n        }else{\n            times = 0;\n        }\n        return times;\n   }\n   \n   /**bet with 3 symbol with the same color is selected. \n    * it must match all the symbol that player selected\n    * if match all get 20 times of bet */\n   function tripleColorWinner(address payable playerAddress) public returns (uint256 times){\n        DiceFace[3] memory temp = resultDices;\n        Player memory p = playerInfo[playerAddress];\n        uint256 count = 0;\n\n        for(uint256 i = 0; i < p.faceSelected.length; i++){\n            for(uint256 j = 0; j < temp.length; j++){\n                if(p.faceSelected[i].color == temp[j].color && p.faceSelected[i].symbol == temp[j].symbol){\n                    count++;\n                    delete p.faceSelected[i];\n                    delete temp[j];\n                    break;\n                }\n            }\n        }\n        \n        if(count == 3){\n            times = 20;\n        }else{\n            times = 0;\n        }\n        return times;\n   }\n}\n\n\n",
  "sourcePath": "/Users/spark/Desktop/betblock/contracts/Betting.sol",
  "compiler": {
    "name": "solc",
    "version": "0.5.16+commit.9c3226ce.Emscripten.clang"
  },
  "schemaVersion": "3.1.0",
  "updatedAt": "2020-04-26T08:40:52.518Z",
  "devdoc": {
    "methods": {}
  },
  "userdoc": {
    "methods": {
      "pairDiceColorWinner(address)": {
        "notice": "bet with pair color of the symbol selected.  if match 1 pair get 3 times of bet "
      },
      "pairDiceSymbolWinner(address)": {
        "notice": "bet with pair symbol selected.  if match 2 dice get 5 times of bet "
      },
      "singleDiceColorWinner(address)": {
        "notice": "bet with single color of the symbol selected.  if match 1 of 3 dice get 1 time of bet "
      },
      "singleDiceSymbolWinner(address)": {
        "notice": "bet with single symbol selected.  if match 1 die get 1 times of bet, if 2 dice get 2 time of bet, if 3 dice get 3 time of bet."
      },
      "tripleColorWinner(address)": {
        "notice": "bet with 3 symbol with the same color is selected.  it must match all the symbol that player selected if match all get 20 times of bet "
      },
      "tripleDiceColorWinner(address)": {
        "notice": "bet with 3 symbol with the same color is selected.  if match all get 7 times of bet "
      },
      "tripleDiceSymbolWinner(address)": {
        "notice": "bet with single symbol selected.  if match 3 dice get 3 times of bet "
      }
    }
  }
}