{
  "contractName": "Betting",
  "abi": [
    {
      "inputs": [],
      "payable": false,
      "stateMutability": "nonpayable",
      "type": "constructor"
    },
    {
      "anonymous": false,
      "inputs": [
        {
          "indexed": false,
          "internalType": "address",
          "name": "from",
          "type": "address"
        },
        {
          "indexed": false,
          "internalType": "address",
          "name": "to",
          "type": "address"
        },
        {
          "indexed": false,
          "internalType": "uint256",
          "name": "amount",
          "type": "uint256"
        }
      ],
      "name": "Sent",
      "type": "event"
    },
    {
      "payable": true,
      "stateMutability": "payable",
      "type": "fallback"
    },
    {
      "constant": true,
      "inputs": [],
      "name": "owner",
      "outputs": [
        {
          "internalType": "address payable",
          "name": "",
          "type": "address"
        }
      ],
      "payable": false,
      "stateMutability": "view",
      "type": "function"
    },
    {
      "constant": true,
      "inputs": [
        {
          "internalType": "address",
          "name": "",
          "type": "address"
        }
      ],
      "name": "playerInfo",
      "outputs": [
        {
          "internalType": "uint256",
          "name": "amountBet",
          "type": "uint256"
        },
        {
          "internalType": "uint8",
          "name": "typeSelected",
          "type": "uint8"
        },
        {
          "internalType": "bool",
          "name": "isBetSet",
          "type": "bool"
        },
        {
          "internalType": "uint256",
          "name": "prize",
          "type": "uint256"
        },
        {
          "internalType": "uint256",
          "name": "monetToPay",
          "type": "uint256"
        }
      ],
      "payable": false,
      "stateMutability": "view",
      "type": "function"
    },
    {
      "constant": false,
      "inputs": [],
      "name": "kill",
      "outputs": [],
      "payable": false,
      "stateMutability": "nonpayable",
      "type": "function"
    },
    {
      "constant": false,
      "inputs": [
        {
          "internalType": "uint8",
          "name": "_typeSelected",
          "type": "uint8"
        },
        {
          "internalType": "enum Betting.Symbol[]",
          "name": "_symbols",
          "type": "uint8[]"
        },
        {
          "internalType": "enum Betting.Color[]",
          "name": "_colors",
          "type": "uint8[]"
        }
      ],
      "name": "bet",
      "outputs": [],
      "payable": true,
      "stateMutability": "payable",
      "type": "function"
    },
    {
      "constant": false,
      "inputs": [
        {
          "internalType": "enum Betting.Symbol[]",
          "name": "_symbol",
          "type": "uint8[]"
        },
        {
          "internalType": "enum Betting.Color[]",
          "name": "_color",
          "type": "uint8[]"
        }
      ],
      "name": "setResult",
      "outputs": [],
      "payable": false,
      "stateMutability": "nonpayable",
      "type": "function"
    },
    {
      "constant": false,
      "inputs": [],
      "name": "distributePrize",
      "outputs": [],
      "payable": false,
      "stateMutability": "nonpayable",
      "type": "function"
    },
    {
      "constant": false,
      "inputs": [],
      "name": "cashOut",
      "outputs": [],
      "payable": false,
      "stateMutability": "nonpayable",
      "type": "function"
    },
    {
      "constant": false,
      "inputs": [],
      "name": "reset",
      "outputs": [],
      "payable": false,
      "stateMutability": "nonpayable",
      "type": "function"
    },
    {
      "constant": true,
      "inputs": [
        {
          "internalType": "uint256",
          "name": "diceNo",
          "type": "uint256"
        }
      ],
      "name": "getDiceSymbol",
      "outputs": [
        {
          "internalType": "enum Betting.Symbol",
          "name": "",
          "type": "uint8"
        }
      ],
      "payable": false,
      "stateMutability": "view",
      "type": "function"
    },
    {
      "constant": true,
      "inputs": [
        {
          "internalType": "uint256",
          "name": "diceNo",
          "type": "uint256"
        }
      ],
      "name": "getDiceColor",
      "outputs": [
        {
          "internalType": "enum Betting.Color",
          "name": "",
          "type": "uint8"
        }
      ],
      "payable": false,
      "stateMutability": "view",
      "type": "function"
    },
    {
      "constant": true,
      "inputs": [],
      "name": "getBetStatus",
      "outputs": [
        {
          "internalType": "bool",
          "name": "",
          "type": "bool"
        }
      ],
      "payable": false,
      "stateMutability": "view",
      "type": "function"
    },
    {
      "constant": true,
      "inputs": [],
      "name": "getContractBalance",
      "outputs": [
        {
          "internalType": "uint256",
          "name": "",
          "type": "uint256"
        }
      ],
      "payable": false,
      "stateMutability": "view",
      "type": "function"
    },
    {
      "constant": true,
      "inputs": [],
      "name": "getAmountToPay",
      "outputs": [
        {
          "internalType": "uint256",
          "name": "",
          "type": "uint256"
        }
      ],
      "payable": false,
      "stateMutability": "view",
      "type": "function"
    },
    {
      "constant": false,
      "inputs": [],
      "name": "paybyDealer",
      "outputs": [],
      "payable": true,
      "stateMutability": "payable",
      "type": "function"
    },
    {
      "constant": false,
      "inputs": [
        {
          "internalType": "address payable",
          "name": "playerAddress",
          "type": "address"
        }
      ],
      "name": "singleDiceSymbolWinner",
      "outputs": [
        {
          "internalType": "uint256",
          "name": "times",
          "type": "uint256"
        }
      ],
      "payable": false,
      "stateMutability": "nonpayable",
      "type": "function"
    },
    {
      "constant": false,
      "inputs": [
        {
          "internalType": "address payable",
          "name": "playerAddress",
          "type": "address"
        }
      ],
      "name": "pairDiceSymbolWinner",
      "outputs": [
        {
          "internalType": "uint256",
          "name": "times",
          "type": "uint256"
        }
      ],
      "payable": false,
      "stateMutability": "nonpayable",
      "type": "function"
    },
    {
      "constant": false,
      "inputs": [
        {
          "internalType": "address payable",
          "name": "playerAddress",
          "type": "address"
        }
      ],
      "name": "tripleDiceSymbolWinner",
      "outputs": [
        {
          "internalType": "uint256",
          "name": "times",
          "type": "uint256"
        }
      ],
      "payable": false,
      "stateMutability": "nonpayable",
      "type": "function"
    },
    {
      "constant": false,
      "inputs": [
        {
          "internalType": "address payable",
          "name": "playerAddress",
          "type": "address"
        }
      ],
      "name": "singleDiceColorWinner",
      "outputs": [
        {
          "internalType": "uint256",
          "name": "times",
          "type": "uint256"
        }
      ],
      "payable": false,
      "stateMutability": "nonpayable",
      "type": "function"
    },
    {
      "constant": false,
      "inputs": [
        {
          "internalType": "address payable",
          "name": "playerAddress",
          "type": "address"
        }
      ],
      "name": "pairDiceColorWinner",
      "outputs": [
        {
          "internalType": "uint256",
          "name": "times",
          "type": "uint256"
        }
      ],
      "payable": false,
      "stateMutability": "nonpayable",
      "type": "function"
    },
    {
      "constant": false,
      "inputs": [
        {
          "internalType": "address payable",
          "name": "playerAddress",
          "type": "address"
        }
      ],
      "name": "tripleDiceColorWinner",
      "outputs": [
        {
          "internalType": "uint256",
          "name": "times",
          "type": "uint256"
        }
      ],
      "payable": false,
      "stateMutability": "nonpayable",
      "type": "function"
    },
    {
      "constant": false,
      "inputs": [
        {
          "internalType": "address payable",
          "name": "playerAddress",
          "type": "address"
        }
      ],
      "name": "tripleColorWinner",
      "outputs": [
        {
          "internalType": "uint256",
          "name": "times",
          "type": "uint256"
        }
      ],
      "payable": false,
      "stateMutability": "nonpayable",
      "type": "function"
    }
  ],
  "bytecode": "0x60806040526006600360006101000a81548160ff021916908360ff16021790555034801561002c57600080fd5b50336000806101000a81548173ffffffffffffffffffffffffffffffffffffffff021916908373ffffffffffffffffffffffffffffffffffffffff160217905550655af3107a4000600181905550662386f26fc100006002819055506130a6806100976000396000f3fe60806040526004361061012a5760003560e01c806377b6e504116100ab578063d826f88f1161006f578063d826f88f1461062c578063da9fb5bd14610643578063dc96cbe3146106a8578063e6ae066d14610801578063eaa379d914610866578063fc1abdde146108cb5761012a565b806377b6e50414610572578063793cd71e146105895780638da5cb5b146105a05780639de111b0146105f7578063d040e987146106225761012a565b80634b114691116100f25780634b114691146102a1578063594ecf761461032c57806363a8f2d5146103915780636c3e0266146104ea5780636f9fb98a146105475761012a565b8063083341b31461012c5780631c6dbb8a146101915780631fa859e8146101f65780633f608d1b1461022557806341c0e1b51461028a575b005b34801561013857600080fd5b5061017b6004803603602081101561014f57600080fd5b81019080803573ffffffffffffffffffffffffffffffffffffffff169060200190929190505050610928565b6040518082815260200191505060405180910390f35b34801561019d57600080fd5b506101e0600480360360208110156101b457600080fd5b81019080803573ffffffffffffffffffffffffffffffffffffffff169060200190929190505050610c49565b6040518082815260200191505060405180910390f35b34801561020257600080fd5b5061020b610fbd565b604051808215151515815260200191505060405180910390f35b34801561023157600080fd5b506102746004803603602081101561024857600080fd5b81019080803573ffffffffffffffffffffffffffffffffffffffff169060200190929190505050611014565b6040518082815260200191505060405180910390f35b34801561029657600080fd5b5061029f6112f0565b005b3480156102ad57600080fd5b506102f0600480360360208110156102c457600080fd5b81019080803573ffffffffffffffffffffffffffffffffffffffff169060200190929190505050611381565b604051808681526020018560ff1660ff168152602001841515151581526020018381526020018281526020019550505050505060405180910390f35b34801561033857600080fd5b5061037b6004803603602081101561034f57600080fd5b81019080803573ffffffffffffffffffffffffffffffffffffffff1690602001909291905050506113d1565b6040518082815260200191505060405180910390f35b6104e8600480360360608110156103a757600080fd5b81019080803560ff169060200190929190803590602001906401000000008111156103d157600080fd5b8201836020820111156103e357600080fd5b8035906020019184602083028401116401000000008311171561040557600080fd5b919080806020026020016040519081016040528093929190818152602001838360200280828437600081840152601f19601f8201169050808301925050505050505091929192908035906020019064010000000081111561046557600080fd5b82018360208201111561047757600080fd5b8035906020019184602083028401116401000000008311171561049957600080fd5b919080806020026020016040519081016040528093929190818152602001838360200280828437600081840152601f19601f82011690508083019250505050505050919291929050505061169a565b005b3480156104f657600080fd5b506105236004803603602081101561050d57600080fd5b8101908080359060200190929190505050611a03565b6040518082600581111561053357fe5b60ff16815260200191505060405180910390f35b34801561055357600080fd5b5061055c611a74565b6040518082815260200191505060405180910390f35b34801561057e57600080fd5b50610587611a7c565b005b34801561059557600080fd5b5061059e611e65565b005b3480156105ac57600080fd5b506105b56121b6565b604051808273ffffffffffffffffffffffffffffffffffffffff1673ffffffffffffffffffffffffffffffffffffffff16815260200191505060405180910390f35b34801561060357600080fd5b5061060c6121db565b6040518082815260200191505060405180910390f35b61062a612225565b005b34801561063857600080fd5b506106416122f4565b005b34801561064f57600080fd5b506106926004803603602081101561066657600080fd5b81019080803573ffffffffffffffffffffffffffffffffffffffff169060200190929190505050612398565b6040518082815260200191505060405180910390f35b3480156106b457600080fd5b506107ff600480360360408110156106cb57600080fd5b81019080803590602001906401000000008111156106e857600080fd5b8201836020820111156106fa57600080fd5b8035906020019184602083028401116401000000008311171561071c57600080fd5b919080806020026020016040519081016040528093929190818152602001838360200280828437600081840152601f19601f8201169050808301925050505050505091929192908035906020019064010000000081111561077c57600080fd5b82018360208201111561078e57600080fd5b803590602001918460208302840111640100000000831117156107b057600080fd5b919080806020026020016040519081016040528093929190818152602001838360200280828437600081840152601f19601f8201169050808301925050505050505091929192905050506126b3565b005b34801561080d57600080fd5b506108506004803603602081101561082457600080fd5b81019080803573ffffffffffffffffffffffffffffffffffffffff1690602001909291905050506128b9565b6040518082815260200191505060405180910390f35b34801561087257600080fd5b506108b56004803603602081101561088957600080fd5b81019080803573ffffffffffffffffffffffffffffffffffffffff169060200190929190505050612bda565b6040518082815260200191505060405180910390f35b3480156108d757600080fd5b50610904600480360360208110156108ee57600080fd5b8101908080359060200190929190505050612efb565b6040518082600281111561091457fe5b60ff16815260200191505060405180910390f35b6000610932612f6c565b600460008473ffffffffffffffffffffffffffffffffffffffff1673ffffffffffffffffffffffffffffffffffffffff1681526020019081526020016000206040518060e0016040529081600082015481526020016001820160009054906101000a900460ff1660ff1660ff16815260200160028201805480602002602001604051908101604052809291908181526020016000905b82821015610a50578382906000526020600020016040518060400160405290816000820160009054906101000a900460ff166005811115610a0557fe5b6005811115610a1057fe5b81526020016000820160019054906101000a900460ff166002811115610a3257fe5b6002811115610a3d57fe5b81525050815260200190600101906109c8565b5050505081526020016003820160009054906101000a900460ff1615151515815260200160048201805480602002602001604051908101604052809291908181526020016000905b82821015610b20578382906000526020600020016040518060400160405290816000820160009054906101000a900460ff166005811115610ad557fe5b6005811115610ae057fe5b81526020016000820160019054906101000a900460ff166002811115610b0257fe5b6002811115610b0d57fe5b8152505081526020019060010190610a98565b505050508152602001600582015481526020016006820154815250509050606081608001519050600080905060008090505b836040015151811015610c265760008090505b8351811015610c1857838181518110610b7a57fe5b6020026020010151602001516002811115610b9157fe5b85604001518381518110610ba157fe5b6020026020010151602001516002811115610bb857fe5b1415610c0b57828060010193505084604001518281518110610bd657fe5b60200260200101610be5612fae565b815250838181518110610bf457fe5b60200260200101610c03612fae565b815250610c18565b8080600101915050610b65565b508080600101915050610b52565b506003811415610c395760079350610c3e565b600093505b839350505050919050565b6000610c53612f6c565b600460008473ffffffffffffffffffffffffffffffffffffffff1673ffffffffffffffffffffffffffffffffffffffff1681526020019081526020016000206040518060e0016040529081600082015481526020016001820160009054906101000a900460ff1660ff1660ff16815260200160028201805480602002602001604051908101604052809291908181526020016000905b82821015610d71578382906000526020600020016040518060400160405290816000820160009054906101000a900460ff166005811115610d2657fe5b6005811115610d3157fe5b81526020016000820160019054906101000a900460ff166002811115610d5357fe5b6002811115610d5e57fe5b8152505081526020019060010190610ce9565b5050505081526020016003820160009054906101000a900460ff1615151515815260200160048201805480602002602001604051908101604052809291908181526020016000905b82821015610e41578382906000526020600020016040518060400160405290816000820160009054906101000a900460ff166005811115610df657fe5b6005811115610e0157fe5b81526020016000820160019054906101000a900460ff166002811115610e2357fe5b6002811115610e2e57fe5b8152505081526020019060010190610db9565b505050508152602001600582015481526020016006820154815250509050606081608001519050600080905060008090505b836040015151811015610f9a5760008090505b8351811015610f8c57838181518110610e9b57fe5b6020026020010151602001516002811115610eb257fe5b85604001518381518110610ec257fe5b6020026020010151602001516002811115610ed957fe5b148015610f2d5750838181518110610eed57fe5b6020026020010151600001516005811115610f0457fe5b85604001518381518110610f1457fe5b6020026020010151600001516005811115610f2b57fe5b145b15610f7f57828060010193505084604001518281518110610f4a57fe5b60200260200101610f59612fae565b815250838181518110610f6857fe5b60200260200101610f77612fae565b815250610f8c565b8080600101915050610e86565b508080600101915050610e73565b506003811415610fad5760149350610fb2565b600093505b839350505050919050565b6000600460003373ffffffffffffffffffffffffffffffffffffffff1673ffffffffffffffffffffffffffffffffffffffff16815260200190815260200160002060030160009054906101000a900460ff16905090565b600061101e612f6c565b600460008473ffffffffffffffffffffffffffffffffffffffff1673ffffffffffffffffffffffffffffffffffffffff1681526020019081526020016000206040518060e0016040529081600082015481526020016001820160009054906101000a900460ff1660ff1660ff16815260200160028201805480602002602001604051908101604052809291908181526020016000905b8282101561113c578382906000526020600020016040518060400160405290816000820160009054906101000a900460ff1660058111156110f157fe5b60058111156110fc57fe5b81526020016000820160019054906101000a900460ff16600281111561111e57fe5b600281111561112957fe5b81525050815260200190600101906110b4565b5050505081526020016003820160009054906101000a900460ff1615151515815260200160048201805480602002602001604051908101604052809291908181526020016000905b8282101561120c578382906000526020600020016040518060400160405290816000820160009054906101000a900460ff1660058111156111c157fe5b60058111156111cc57fe5b81526020016000820160019054906101000a900460ff1660028111156111ee57fe5b60028111156111f957fe5b8152505081526020019060010190611184565b505050508152602001600582015481526020016006820154815250509050606081608001519050600080905060008090505b8360400151518110156112ce5760008090505b83518110156112c05783818151811061126657fe5b602002602001015160000151600581111561127d57fe5b8560400151838151811061128d57fe5b60200260200101516000015160058111156112a457fe5b14156112b35782806001019350505b8080600101915050611251565b50808060010191505061123e565b5060038114156112e0578093506112e5565b600093505b839350505050919050565b6000809054906101000a900473ffffffffffffffffffffffffffffffffffffffff1673ffffffffffffffffffffffffffffffffffffffff163373ffffffffffffffffffffffffffffffffffffffff16141561137f576000809054906101000a900473ffffffffffffffffffffffffffffffffffffffff1673ffffffffffffffffffffffffffffffffffffffff16ff5b565b60046020528060005260406000206000915090508060000154908060010160009054906101000a900460ff16908060030160009054906101000a900460ff16908060050154908060060154905085565b60006113db612f6c565b600460008473ffffffffffffffffffffffffffffffffffffffff1673ffffffffffffffffffffffffffffffffffffffff1681526020019081526020016000206040518060e0016040529081600082015481526020016001820160009054906101000a900460ff1660ff1660ff16815260200160028201805480602002602001604051908101604052809291908181526020016000905b828210156114f9578382906000526020600020016040518060400160405290816000820160009054906101000a900460ff1660058111156114ae57fe5b60058111156114b957fe5b81526020016000820160019054906101000a900460ff1660028111156114db57fe5b60028111156114e657fe5b8152505081526020019060010190611471565b5050505081526020016003820160009054906101000a900460ff1615151515815260200160048201805480602002602001604051908101604052809291908181526020016000905b828210156115c9578382906000526020600020016040518060400160405290816000820160009054906101000a900460ff16600581111561157e57fe5b600581111561158957fe5b81526020016000820160019054906101000a900460ff1660028111156115ab57fe5b60028111156115b657fe5b8152505081526020019060010190611541565b505050508152602001600582015481526020016006820154815250509050606081608001519050600080905060008090505b83604001515181101561168b5760008090505b835181101561167d5783818151811061162357fe5b602002602001015160000151600581111561163a57fe5b8560400151838151811061164a57fe5b602002602001015160000151600581111561166157fe5b14156116705782806001019350505b808060010191505061160e565b5080806001019150506115fb565b50809350839350505050919050565b60001515600460003373ffffffffffffffffffffffffffffffffffffffff1673ffffffffffffffffffffffffffffffffffffffff16815260200190815260200160002060030160009054906101000a900460ff16151514611763576040517f08c379a00000000000000000000000000000000000000000000000000000000081526004018080602001828103825260108152602001807f596f7520616c7265616479206265742e0000000000000000000000000000000081525060200191505060405180910390fd5b600154341015801561177757506002543411155b6117cc576040517f08c379a000000000000000000000000000000000000000000000000000000000815260040180806020018281038252602b815260200180613047602b913960400191505060405180910390fd5b34600460003373ffffffffffffffffffffffffffffffffffffffff1673ffffffffffffffffffffffffffffffffffffffff1681526020019081526020016000206000018190555082600460003373ffffffffffffffffffffffffffffffffffffffff1673ffffffffffffffffffffffffffffffffffffffff16815260200190815260200160002060010160006101000a81548160ff021916908360ff1602179055506001600460003373ffffffffffffffffffffffffffffffffffffffff1673ffffffffffffffffffffffffffffffffffffffff16815260200190815260200160002060030160006101000a81548160ff02191690831515021790555060008090505b82518160ff1610156119fd57600460003373ffffffffffffffffffffffffffffffffffffffff1673ffffffffffffffffffffffffffffffffffffffff1681526020019081526020016000206002016040518060400160405280858460ff168151811061193757fe5b6020026020010151600581111561194a57fe5b8152602001848460ff168151811061195e57fe5b6020026020010151600281111561197157fe5b81525090806001815401808255809150509060018203906000526020600020016000909192909190915060008201518160000160006101000a81548160ff021916908360058111156119bf57fe5b021790555060208201518160000160016101000a81548160ff021916908360028111156119e857fe5b021790555050505080806001019150506118cf565b50505050565b6000600460003373ffffffffffffffffffffffffffffffffffffffff1673ffffffffffffffffffffffffffffffffffffffff1681526020019081526020016000206004018281548110611a5257fe5b9060005260206000200160000160009054906101000a900460ff169050919050565b600047905090565b60003390506000600460008373ffffffffffffffffffffffffffffffffffffffff1673ffffffffffffffffffffffffffffffffffffffff168152602001908152602001600020600001549050600080905060008090506001600460008673ffffffffffffffffffffffffffffffffffffffff1673ffffffffffffffffffffffffffffffffffffffff16815260200190815260200160002060010160009054906101000a900460ff1660ff161415611b3d57611b36846113d1565b9050611dc0565b6002600460008673ffffffffffffffffffffffffffffffffffffffff1673ffffffffffffffffffffffffffffffffffffffff16815260200190815260200160002060010160009054906101000a900460ff1660ff161415611ba857611ba1846128b9565b9050611dbf565b6003600460008673ffffffffffffffffffffffffffffffffffffffff1673ffffffffffffffffffffffffffffffffffffffff16815260200190815260200160002060010160009054906101000a900460ff1660ff161415611c1357611c0c84611014565b9050611dbe565b60048060008673ffffffffffffffffffffffffffffffffffffffff1673ffffffffffffffffffffffffffffffffffffffff16815260200190815260200160002060010160009054906101000a900460ff1660ff161415611c7d57611c7684612398565b9050611dbd565b6005600460008673ffffffffffffffffffffffffffffffffffffffff1673ffffffffffffffffffffffffffffffffffffffff16815260200190815260200160002060010160009054906101000a900460ff1660ff161415611ce857611ce184612bda565b9050611dbc565b6006600460008673ffffffffffffffffffffffffffffffffffffffff1673ffffffffffffffffffffffffffffffffffffffff16815260200190815260200160002060010160009054906101000a900460ff1660ff161415611d5357611d4c84610928565b9050611dbb565b6007600460008673ffffffffffffffffffffffffffffffffffffffff1673ffffffffffffffffffffffffffffffffffffffff16815260200190815260200160002060010160009054906101000a900460ff1660ff161415611dba57611db784610c49565b90505b5b5b5b5b5b5b60008114611e1657808302600460008673ffffffffffffffffffffffffffffffffffffffff1673ffffffffffffffffffffffffffffffffffffffff16815260200190815260200160002060050181905550611e5f565b6000600460008673ffffffffffffffffffffffffffffffffffffffff1673ffffffffffffffffffffffffffffffffffffffff168152602001908152602001600020600501819055505b50505050565b6000600460003373ffffffffffffffffffffffffffffffffffffffff1673ffffffffffffffffffffffffffffffffffffffff1681526020019081526020016000206000015490506000600460003373ffffffffffffffffffffffffffffffffffffffff1673ffffffffffffffffffffffffffffffffffffffff168152602001908152602001600020600501541461208a573373ffffffffffffffffffffffffffffffffffffffff166108fc600460003373ffffffffffffffffffffffffffffffffffffffff1673ffffffffffffffffffffffffffffffffffffffff1681526020019081526020016000206005015483019081150290604051600060405180830381858888f19350505050158015611f80573d6000803e3d6000fd5b507f3990db2d31862302a685e8086b5755072a6e2b5b780af1ee81ece35ee3cd33456000809054906101000a900473ffffffffffffffffffffffffffffffffffffffff1633600460003373ffffffffffffffffffffffffffffffffffffffff1673ffffffffffffffffffffffffffffffffffffffff168152602001908152602001600020600501548401604051808473ffffffffffffffffffffffffffffffffffffffff1673ffffffffffffffffffffffffffffffffffffffff1681526020018373ffffffffffffffffffffffffffffffffffffffff1673ffffffffffffffffffffffffffffffffffffffff168152602001828152602001935050505060405180910390a16121b3565b6000809054906101000a900473ffffffffffffffffffffffffffffffffffffffff1673ffffffffffffffffffffffffffffffffffffffff166108fc829081150290604051600060405180830381858888f193505050501580156120f1573d6000803e3d6000fd5b507f3990db2d31862302a685e8086b5755072a6e2b5b780af1ee81ece35ee3cd3345336000809054906101000a900473ffffffffffffffffffffffffffffffffffffffff1683604051808473ffffffffffffffffffffffffffffffffffffffff1673ffffffffffffffffffffffffffffffffffffffff1681526020018373ffffffffffffffffffffffffffffffffffffffff1673ffffffffffffffffffffffffffffffffffffffff168152602001828152602001935050505060405180910390a15b50565b6000809054906101000a900473ffffffffffffffffffffffffffffffffffffffff1681565b6000600460003373ffffffffffffffffffffffffffffffffffffffff1673ffffffffffffffffffffffffffffffffffffffff16815260200190815260200160002060050154905090565b6000809054906101000a900473ffffffffffffffffffffffffffffffffffffffff1673ffffffffffffffffffffffffffffffffffffffff163373ffffffffffffffffffffffffffffffffffffffff161461227e57600080fd5b343373ffffffffffffffffffffffffffffffffffffffff163110156122a257600080fd5b34600460003373ffffffffffffffffffffffffffffffffffffffff1673ffffffffffffffffffffffffffffffffffffffff16815260200190815260200160002060060160008282540192505081905550565b600460003373ffffffffffffffffffffffffffffffffffffffff1673ffffffffffffffffffffffffffffffffffffffff1681526020019081526020016000206000808201600090556001820160006101000a81549060ff02191690556002820160006123609190612fde565b6003820160006101000a81549060ff02191690556004820160006123849190612fde565b600582016000905560068201600090555050565b60006123a2612f6c565b600460008473ffffffffffffffffffffffffffffffffffffffff1673ffffffffffffffffffffffffffffffffffffffff1681526020019081526020016000206040518060e0016040529081600082015481526020016001820160009054906101000a900460ff1660ff1660ff16815260200160028201805480602002602001604051908101604052809291908181526020016000905b828210156124c0578382906000526020600020016040518060400160405290816000820160009054906101000a900460ff16600581111561247557fe5b600581111561248057fe5b81526020016000820160019054906101000a900460ff1660028111156124a257fe5b60028111156124ad57fe5b8152505081526020019060010190612438565b5050505081526020016003820160009054906101000a900460ff1615151515815260200160048201805480602002602001604051908101604052809291908181526020016000905b82821015612590578382906000526020600020016040518060400160405290816000820160009054906101000a900460ff16600581111561254557fe5b600581111561255057fe5b81526020016000820160019054906101000a900460ff16600281111561257257fe5b600281111561257d57fe5b8152505081526020019060010190612508565b505050508152602001600582015481526020016006820154815250509050606081608001519050600080905060008090505b8360400151518110156126a45760008090505b8351811015612696578381815181106125ea57fe5b602002602001015160200151600281111561260157fe5b8560400151838151811061261157fe5b602002602001015160200151600281111561262857fe5b141561268957600183141561263c57612696565b82806001019350508460400151828151811061265457fe5b60200260200101612663612fae565b81525083818151811061267257fe5b60200260200101612681612fae565b815250612696565b80806001019150506125d5565b5080806001019150506125c2565b50809350839350505050919050565b60011515600460003373ffffffffffffffffffffffffffffffffffffffff1673ffffffffffffffffffffffffffffffffffffffff16815260200190815260200160002060030160009054906101000a900460ff1615151461277c576040517f08c379a00000000000000000000000000000000000000000000000000000000081526004018080602001828103825260168152602001807f596f75206e65656420746f206265742066697273742e0000000000000000000081525060200191505060405180910390fd5b60008090505b60038110156128b45782818151811061279757fe5b6020026020010151600460003373ffffffffffffffffffffffffffffffffffffffff1673ffffffffffffffffffffffffffffffffffffffff16815260200190815260200160002060040182815481106127ec57fe5b9060005260206000200160000160006101000a81548160ff0219169083600581111561281457fe5b021790555081818151811061282557fe5b6020026020010151600460003373ffffffffffffffffffffffffffffffffffffffff1673ffffffffffffffffffffffffffffffffffffffff168152602001908152602001600020600401828154811061287a57fe5b9060005260206000200160000160016101000a81548160ff021916908360028111156128a257fe5b02179055508080600101915050612782565b505050565b60006128c3612f6c565b600460008473ffffffffffffffffffffffffffffffffffffffff1673ffffffffffffffffffffffffffffffffffffffff1681526020019081526020016000206040518060e0016040529081600082015481526020016001820160009054906101000a900460ff1660ff1660ff16815260200160028201805480602002602001604051908101604052809291908181526020016000905b828210156129e1578382906000526020600020016040518060400160405290816000820160009054906101000a900460ff16600581111561299657fe5b60058111156129a157fe5b81526020016000820160019054906101000a900460ff1660028111156129c357fe5b60028111156129ce57fe5b8152505081526020019060010190612959565b5050505081526020016003820160009054906101000a900460ff1615151515815260200160048201805480602002602001604051908101604052809291908181526020016000905b82821015612ab1578382906000526020600020016040518060400160405290816000820160009054906101000a900460ff166005811115612a6657fe5b6005811115612a7157fe5b81526020016000820160019054906101000a900460ff166002811115612a9357fe5b6002811115612a9e57fe5b8152505081526020019060010190612a29565b505050508152602001600582015481526020016006820154815250509050606081608001519050600080905060008090505b836040015151811015612bb75760008090505b8351811015612ba957838181518110612b0b57fe5b6020026020010151600001516005811115612b2257fe5b85604001518381518110612b3257fe5b6020026020010151600001516005811115612b4957fe5b1415612b9c57828060010193505084604001518281518110612b6757fe5b60200260200101612b76612fae565b815250838181518110612b8557fe5b60200260200101612b94612fae565b815250612ba9565b8080600101915050612af6565b508080600101915050612ae3565b506002811415612bca5760059350612bcf565b600093505b839350505050919050565b6000612be4612f6c565b600460008473ffffffffffffffffffffffffffffffffffffffff1673ffffffffffffffffffffffffffffffffffffffff1681526020019081526020016000206040518060e0016040529081600082015481526020016001820160009054906101000a900460ff1660ff1660ff16815260200160028201805480602002602001604051908101604052809291908181526020016000905b82821015612d02578382906000526020600020016040518060400160405290816000820160009054906101000a900460ff166005811115612cb757fe5b6005811115612cc257fe5b81526020016000820160019054906101000a900460ff166002811115612ce457fe5b6002811115612cef57fe5b8152505081526020019060010190612c7a565b5050505081526020016003820160009054906101000a900460ff1615151515815260200160048201805480602002602001604051908101604052809291908181526020016000905b82821015612dd2578382906000526020600020016040518060400160405290816000820160009054906101000a900460ff166005811115612d8757fe5b6005811115612d9257fe5b81526020016000820160019054906101000a900460ff166002811115612db457fe5b6002811115612dbf57fe5b8152505081526020019060010190612d4a565b505050508152602001600582015481526020016006820154815250509050606081608001519050600080905060008090505b836040015151811015612ed85760008090505b8351811015612eca57838181518110612e2c57fe5b6020026020010151602001516002811115612e4357fe5b85604001518381518110612e5357fe5b6020026020010151602001516002811115612e6a57fe5b1415612ebd57828060010193505084604001518281518110612e8857fe5b60200260200101612e97612fae565b815250838181518110612ea657fe5b60200260200101612eb5612fae565b815250612eca565b8080600101915050612e17565b508080600101915050612e04565b506002811415612eeb5760039350612ef0565b600093505b839350505050919050565b6000600460003373ffffffffffffffffffffffffffffffffffffffff1673ffffffffffffffffffffffffffffffffffffffff1681526020019081526020016000206004018281548110612f4a57fe5b9060005260206000200160000160019054906101000a900460ff169050919050565b6040518060e0016040528060008152602001600060ff168152602001606081526020016000151581526020016060815260200160008152602001600081525090565b604051806040016040528060006005811115612fc657fe5b815260200160006002811115612fd857fe5b81525090565b5080546000825590600052602060002090810190612ffc9190612fff565b50565b61304391905b8082111561303f57600080820160006101000a81549060ff02191690556000820160016101000a81549060ff021916905550600101613005565b5090565b9056fe596f75206d75737420626574206265747765656e20302e3030303120616e6420302e30312065746865722ea265627a7a72315820423681427f14a87cb1621e344fd25ef07f8463ff14dee1b3d03f5d54fcfebef064736f6c63430005100032",
  "source": "pragma solidity >=0.5.0 <0.6.0;\n\ncontract Betting{\n    address payable public owner;\n    uint256 private minBet;\n    uint256 private maxBet;\n    uint8 constant private numberOfDice = 3;\n    uint8 private numberOfFace = 6;\n    \n    enum Symbol {Apple, Tomato, Brocoli, Cucumber, Carrot, Pineapple}\n    enum Color {Red, Green, Orange}\n    \n    struct Player{\n        uint256 amountBet;\n        uint8 typeSelected;\n        DiceFace[] faceSelected;\n        bool isBetSet;\n        DiceFace[] resultDices;\n        uint256 prize;\n        uint256 monetToPay;\n    }\n    \n    struct DiceFace{\n        Symbol symbol;\n        Color color;\n    }\n    \n    // DiceFace[numberOfDice] resultDices;\n    mapping(address => Player) public playerInfo;\n    function() external payable {}\n    \n    constructor() public{\n      owner = msg.sender;\n    // min is 0.0001 ether and max is 0.01 ether\n      minBet = 100000000000000;\n      maxBet = 10000000000000000;\n   }\n   \n   //event to log if the ether is sent\n   event Sent(address from, address to, uint amount );\n   \n   //kill contract\n   function kill() public {\n      if(msg.sender == owner) selfdestruct(owner);\n    }\n    \n   //bet the money\n   function bet(uint8 _typeSelected, Symbol[] memory _symbols, Color[] memory _colors) public payable{\n      require(playerInfo[msg.sender].isBetSet == false, \"You already bet.\");\n      require(msg.value >= minBet && msg.value <= maxBet, \"You must bet between 0.0001 and 0.01 ether.\");\n      playerInfo[msg.sender].amountBet = msg.value;\n      playerInfo[msg.sender].typeSelected = _typeSelected;\n      playerInfo[msg.sender].isBetSet = true;\n      for(uint8 i = 0; i < _symbols.length; i++){\n          playerInfo[msg.sender].faceSelected.push(DiceFace({\n              symbol: _symbols[i],\n              color: _colors[i]\n          }));\n      }\n   }\n    \n    //set result of dice No. that come from front-end \n   function setResult(Symbol[] memory _symbol, Color[] memory _color) public{\n       require(playerInfo[msg.sender].isBetSet == true, \"You need to bet first.\");\n       \n       for(uint256 i = 0; i < 3; i++){\n           playerInfo[msg.sender].resultDices[i].symbol = _symbol[i];\n           playerInfo[msg.sender].resultDices[i].color = _color[i];\n       }\n   }\n   \n   //distribute the prizes for each player following the type of bet.\n   function distributePrize() public{\n       address payable player = msg.sender;\n       uint256 bet = playerInfo[player].amountBet;\n       uint256 prize = 0;\n       uint256 times = 0;\n\n           if(playerInfo[player].typeSelected == 1)times = singleDiceSymbolWinner(player);\n           else if(playerInfo[player].typeSelected == 2)times = pairDiceSymbolWinner(player);\n           else if(playerInfo[player].typeSelected == 3)times = tripleDiceSymbolWinner(player);\n           else if(playerInfo[player].typeSelected == 4)times = singleDiceColorWinner(player);\n           else if(playerInfo[player].typeSelected == 5)times = pairDiceColorWinner(player);\n           else if(playerInfo[player].typeSelected == 6)times = tripleDiceColorWinner(player);\n           else if(playerInfo[player].typeSelected == 7)times = tripleColorWinner(player);\n\n           if(times != 0){\n                playerInfo[player].prize = bet*times;\n           }else{\n                playerInfo[player].prize = 0;\n           }\n    }\n    \n    //pay to player if prize != 0 or pay to owner if = 0\n    function cashOut() public{\n        uint256 bet = playerInfo[msg.sender].amountBet;\n\n        if(playerInfo[msg.sender].prize != 0){\n                msg.sender.transfer(bet+playerInfo[msg.sender].prize);\n                emit Sent(owner, msg.sender, bet+playerInfo[msg.sender].prize);\n           }else{\n                owner.transfer(bet);\n                emit Sent(msg.sender, owner, bet);\n           }\n    }\n    \n    //reset the round\n    function reset() public{\n        delete playerInfo[msg.sender];\n    }\n \n    //get symbol of dice No.\n    function getDiceSymbol(uint diceNo) public view returns (Symbol){\n        return playerInfo[msg.sender].resultDices[diceNo].symbol;\n    }\n    \n    //get color of dice No.\n    function getDiceColor(uint diceNo) public view returns (Color){\n        return playerInfo[msg.sender].resultDices[diceNo].color;\n    }\n    \n    function getBetStatus() public view returns (bool){\n        return playerInfo[msg.sender].isBetSet;\n    }\n   \n    //get balance of this contract\n    function getContractBalance() public view returns (uint){\n        return address(this).balance;\n    }\n    \n    //get amount to pay \n    function getAmountToPay() public view returns (uint){\n        return playerInfo[msg.sender].prize;\n    }\n    \n    //pay by dealer following amount to pay.\n    function paybyDealer() public payable{\n        require(msg.sender == owner);\n        require(address(msg.sender).balance >= msg.value);\n        playerInfo[msg.sender].monetToPay += msg.value;\n    }\n    \n   /**bet with single symbol selected. \n    * if match 1 die get 1 times of bet, if 2 dice get 2 time of bet, if 3 dice get 3 time of bet.*/\n   function singleDiceSymbolWinner(address payable playerAddress) public returns (uint256 times){\n        Player memory p = playerInfo[playerAddress];\n        DiceFace[] memory temp = p.resultDices;\n        uint256 count = 0;\n\n        for(uint256 i = 0; i < p.faceSelected.length; i++){\n            for(uint256 j = 0; j < temp.length; j++){\n                if(p.faceSelected[i].symbol == temp[j].symbol){\n                    count++;\n                }\n            }\n        }\n        \n        times = count;\n        return times;\n   }\n   \n    /**bet with pair symbol selected. \n    * if match 2 dice get 5 times of bet */\n   function pairDiceSymbolWinner(address payable playerAddress) public returns (uint256 times){\n       Player memory p = playerInfo[playerAddress];\n       DiceFace[] memory temp = p.resultDices;\n\n       uint256 count = 0;\n\n       for(uint256 i = 0; i < p.faceSelected.length; i++){\n           for(uint256 j = 0; j < temp.length; j++){\n               if(p.faceSelected[i].symbol == temp[j].symbol){\n                   count++;\n                   delete p.faceSelected[i];\n                   delete temp[j];\n                   break;\n               }\n           }\n       }\n       \n       if(count == 2){\n           times = 5;\n       }else{\n           times = 0;\n       }\n       \n       return times;\n   }\n   \n   /**bet with single symbol selected. \n    * if match 3 dice get 3 times of bet */\n   function tripleDiceSymbolWinner(address payable playerAddress) public returns (uint256 times){\n       Player memory p = playerInfo[playerAddress];\n       DiceFace[] memory temp = p.resultDices;\n       uint256 count = 0;\n       \n       for(uint256 i = 0; i < p.faceSelected.length; i++){\n           for(uint256 j = 0; j < temp.length; j++){\n               if(p.faceSelected[i].symbol == temp[j].symbol){\n                   count++;\n               }\n           }\n       }\n       \n       if(count == 3){\n           times = count;\n       }else{\n           times = 0;\n       }\n       return times;\n   }\n   \n    /**bet with single color of the symbol selected. \n    * if match 1 of 3 dice get 1 time of bet */\n   function singleDiceColorWinner(address payable playerAddress) public returns (uint256 times){\n        Player memory p = playerInfo[playerAddress];\n        DiceFace[] memory temp = p.resultDices;\n        uint256 count = 0;\n\n        for(uint256 i = 0; i < p.faceSelected.length; i++){\n            for(uint256 j = 0; j < temp.length; j++){\n                if(p.faceSelected[i].color == temp[j].color){\n                    if(count == 1)break;\n                    count++;\n                    delete p.faceSelected[i];\n                    delete temp[j];\n                    break;\n                }\n            }\n        }\n        \n        times = count;\n        return times;\n   }\n   \n   /**bet with pair color of the symbol selected. \n    * if match 1 pair get 3 times of bet */\n   function pairDiceColorWinner(address payable playerAddress) public returns (uint256 times){\n        Player memory p = playerInfo[playerAddress];\n        DiceFace[] memory temp = p.resultDices;\n        uint256 count = 0;\n\n        for(uint256 i = 0; i < p.faceSelected.length; i++){\n            for(uint256 j = 0; j < temp.length; j++){\n                if(p.faceSelected[i].color == temp[j].color){\n                    count++;\n                    delete p.faceSelected[i];\n                    delete temp[j];\n                    break;\n                }\n            }\n        }\n        \n        if(count == 2){\n            times = 3;\n        }else{\n            times = 0;\n        }\n        return times;\n   }\n   \n   /**bet with 3 symbol with the same color is selected. \n    * if match all get 7 times of bet */\n   function tripleDiceColorWinner(address payable playerAddress) public returns (uint256 times){\n        Player memory p = playerInfo[playerAddress];\n        DiceFace[] memory temp = p.resultDices;\n        uint256 count = 0;\n\n        for(uint256 i = 0; i < p.faceSelected.length; i++){\n            for(uint256 j = 0; j < temp.length; j++){\n                if(p.faceSelected[i].color == temp[j].color){\n                    count++;\n                    delete p.faceSelected[i];\n                    delete temp[j];\n                    break;\n                }\n            }\n        }\n        \n        if(count == 3){\n            times = 7;\n        }else{\n            times = 0;\n        }\n        return times;\n   }\n   \n   /**bet with 3 symbol with the same color is selected. \n    * it must match all the symbol that player selected\n    * if match all get 20 times of bet */\n   function tripleColorWinner(address payable playerAddress) public returns (uint256 times){\n        Player memory p = playerInfo[playerAddress];\n        DiceFace[] memory temp = p.resultDices;\n        uint256 count = 0;\n\n        for(uint256 i = 0; i < p.faceSelected.length; i++){\n            for(uint256 j = 0; j < temp.length; j++){\n                if(p.faceSelected[i].color == temp[j].color && p.faceSelected[i].symbol == temp[j].symbol){\n                    count++;\n                    delete p.faceSelected[i];\n                    delete temp[j];\n                    break;\n                }\n            }\n        }\n        \n        if(count == 3){\n            times = 20;\n        }else{\n            times = 0;\n        }\n        return times;\n   }\n}\n\n\n",
  "sourcePath": "/Users/spark/Desktop/betblock/contracts/Betting.sol",
  "compiler": {
    "name": "solc",
    "version": "0.5.16+commit.9c3226ce.Emscripten.clang"
  },
  "schemaVersion": "3.1.0",
  "updatedAt": "2020-05-23T17:57:35.265Z",
  "devdoc": {
    "methods": {}
  },
  "userdoc": {
    "methods": {
      "pairDiceColorWinner(address)": {
        "notice": "bet with pair color of the symbol selected.  if match 1 pair get 3 times of bet "
      },
      "pairDiceSymbolWinner(address)": {
        "notice": "bet with pair symbol selected.  if match 2 dice get 5 times of bet "
      },
      "singleDiceColorWinner(address)": {
        "notice": "bet with single color of the symbol selected.  if match 1 of 3 dice get 1 time of bet "
      },
      "singleDiceSymbolWinner(address)": {
        "notice": "bet with single symbol selected.  if match 1 die get 1 times of bet, if 2 dice get 2 time of bet, if 3 dice get 3 time of bet."
      },
      "tripleColorWinner(address)": {
        "notice": "bet with 3 symbol with the same color is selected.  it must match all the symbol that player selected if match all get 20 times of bet "
      },
      "tripleDiceColorWinner(address)": {
        "notice": "bet with 3 symbol with the same color is selected.  if match all get 7 times of bet "
      },
      "tripleDiceSymbolWinner(address)": {
        "notice": "bet with single symbol selected.  if match 3 dice get 3 times of bet "
      }
    }
  }
}