{
  "contractName": "Betting",
  "abi": [
    {
      "inputs": [],
      "payable": false,
      "stateMutability": "nonpayable",
      "type": "constructor"
    },
    {
      "anonymous": false,
      "inputs": [
        {
          "indexed": false,
          "internalType": "address",
          "name": "from",
          "type": "address"
        },
        {
          "indexed": false,
          "internalType": "address",
          "name": "to",
          "type": "address"
        },
        {
          "indexed": false,
          "internalType": "uint256",
          "name": "amount",
          "type": "uint256"
        }
      ],
      "name": "Sent",
      "type": "event"
    },
    {
      "payable": true,
      "stateMutability": "payable",
      "type": "fallback"
    },
    {
      "constant": true,
      "inputs": [],
      "name": "owner",
      "outputs": [
        {
          "internalType": "address payable",
          "name": "",
          "type": "address"
        }
      ],
      "payable": false,
      "stateMutability": "view",
      "type": "function"
    },
    {
      "constant": true,
      "inputs": [
        {
          "internalType": "address",
          "name": "",
          "type": "address"
        }
      ],
      "name": "playerInfo",
      "outputs": [
        {
          "internalType": "uint256",
          "name": "amountBet",
          "type": "uint256"
        },
        {
          "internalType": "uint8",
          "name": "typeSelected",
          "type": "uint8"
        },
        {
          "internalType": "bool",
          "name": "isBetSet",
          "type": "bool"
        }
      ],
      "payable": false,
      "stateMutability": "view",
      "type": "function"
    },
    {
      "constant": false,
      "inputs": [],
      "name": "kill",
      "outputs": [],
      "payable": false,
      "stateMutability": "nonpayable",
      "type": "function"
    },
    {
      "constant": false,
      "inputs": [
        {
          "internalType": "uint8",
          "name": "_typeSelected",
          "type": "uint8"
        },
        {
          "internalType": "enum Betting.Symbol[]",
          "name": "_symbols",
          "type": "uint8[]"
        },
        {
          "internalType": "enum Betting.Color[]",
          "name": "_colors",
          "type": "uint8[]"
        }
      ],
      "name": "bet",
      "outputs": [],
      "payable": true,
      "stateMutability": "payable",
      "type": "function"
    },
    {
      "constant": false,
      "inputs": [
        {
          "internalType": "enum Betting.Symbol[]",
          "name": "_symbol",
          "type": "uint8[]"
        },
        {
          "internalType": "enum Betting.Color[]",
          "name": "_color",
          "type": "uint8[]"
        }
      ],
      "name": "setResult",
      "outputs": [],
      "payable": false,
      "stateMutability": "nonpayable",
      "type": "function"
    },
    {
      "constant": false,
      "inputs": [],
      "name": "distributePrize",
      "outputs": [],
      "payable": false,
      "stateMutability": "nonpayable",
      "type": "function"
    },
    {
      "constant": false,
      "inputs": [],
      "name": "cashOut",
      "outputs": [],
      "payable": false,
      "stateMutability": "nonpayable",
      "type": "function"
    },
    {
      "constant": false,
      "inputs": [],
      "name": "reset",
      "outputs": [],
      "payable": false,
      "stateMutability": "nonpayable",
      "type": "function"
    },
    {
      "constant": true,
      "inputs": [
        {
          "internalType": "uint256",
          "name": "diceNo",
          "type": "uint256"
        }
      ],
      "name": "getDiceSymbol",
      "outputs": [
        {
          "internalType": "enum Betting.Symbol",
          "name": "",
          "type": "uint8"
        }
      ],
      "payable": false,
      "stateMutability": "view",
      "type": "function"
    },
    {
      "constant": true,
      "inputs": [
        {
          "internalType": "uint256",
          "name": "diceNo",
          "type": "uint256"
        }
      ],
      "name": "getDiceColor",
      "outputs": [
        {
          "internalType": "enum Betting.Color",
          "name": "",
          "type": "uint8"
        }
      ],
      "payable": false,
      "stateMutability": "view",
      "type": "function"
    },
    {
      "constant": true,
      "inputs": [],
      "name": "getBetStatus",
      "outputs": [
        {
          "internalType": "bool",
          "name": "",
          "type": "bool"
        }
      ],
      "payable": false,
      "stateMutability": "view",
      "type": "function"
    },
    {
      "constant": true,
      "inputs": [],
      "name": "getContractBalance",
      "outputs": [
        {
          "internalType": "uint256",
          "name": "",
          "type": "uint256"
        }
      ],
      "payable": false,
      "stateMutability": "view",
      "type": "function"
    },
    {
      "constant": true,
      "inputs": [],
      "name": "getAmountToPay",
      "outputs": [
        {
          "internalType": "uint256",
          "name": "",
          "type": "uint256"
        }
      ],
      "payable": false,
      "stateMutability": "view",
      "type": "function"
    },
    {
      "constant": false,
      "inputs": [
        {
          "internalType": "uint256",
          "name": "amount",
          "type": "uint256"
        }
      ],
      "name": "paybyDealer",
      "outputs": [],
      "payable": true,
      "stateMutability": "payable",
      "type": "function"
    },
    {
      "constant": false,
      "inputs": [
        {
          "internalType": "address payable",
          "name": "playerAddress",
          "type": "address"
        }
      ],
      "name": "singleDiceSymbolWinner",
      "outputs": [
        {
          "internalType": "uint256",
          "name": "times",
          "type": "uint256"
        }
      ],
      "payable": false,
      "stateMutability": "nonpayable",
      "type": "function"
    },
    {
      "constant": false,
      "inputs": [
        {
          "internalType": "address payable",
          "name": "playerAddress",
          "type": "address"
        }
      ],
      "name": "pairDiceSymbolWinner",
      "outputs": [
        {
          "internalType": "uint256",
          "name": "times",
          "type": "uint256"
        }
      ],
      "payable": false,
      "stateMutability": "nonpayable",
      "type": "function"
    },
    {
      "constant": false,
      "inputs": [
        {
          "internalType": "address payable",
          "name": "playerAddress",
          "type": "address"
        }
      ],
      "name": "tripleDiceSymbolWinner",
      "outputs": [
        {
          "internalType": "uint256",
          "name": "times",
          "type": "uint256"
        }
      ],
      "payable": false,
      "stateMutability": "nonpayable",
      "type": "function"
    },
    {
      "constant": false,
      "inputs": [
        {
          "internalType": "address payable",
          "name": "playerAddress",
          "type": "address"
        }
      ],
      "name": "singleDiceColorWinner",
      "outputs": [
        {
          "internalType": "uint256",
          "name": "times",
          "type": "uint256"
        }
      ],
      "payable": false,
      "stateMutability": "nonpayable",
      "type": "function"
    },
    {
      "constant": false,
      "inputs": [
        {
          "internalType": "address payable",
          "name": "playerAddress",
          "type": "address"
        }
      ],
      "name": "pairDiceColorWinner",
      "outputs": [
        {
          "internalType": "uint256",
          "name": "times",
          "type": "uint256"
        }
      ],
      "payable": false,
      "stateMutability": "nonpayable",
      "type": "function"
    },
    {
      "constant": false,
      "inputs": [
        {
          "internalType": "address payable",
          "name": "playerAddress",
          "type": "address"
        }
      ],
      "name": "tripleDiceColorWinner",
      "outputs": [
        {
          "internalType": "uint256",
          "name": "times",
          "type": "uint256"
        }
      ],
      "payable": false,
      "stateMutability": "nonpayable",
      "type": "function"
    },
    {
      "constant": false,
      "inputs": [
        {
          "internalType": "address payable",
          "name": "playerAddress",
          "type": "address"
        }
      ],
      "name": "tripleColorWinner",
      "outputs": [
        {
          "internalType": "uint256",
          "name": "times",
          "type": "uint256"
        }
      ],
      "payable": false,
      "stateMutability": "nonpayable",
      "type": "function"
    }
  ],
  "bytecode": "0x60806040526006600360006101000a81548160ff021916908360ff16021790555034801561002c57600080fd5b50336000806101000a81548173ffffffffffffffffffffffffffffffffffffffff021916908373ffffffffffffffffffffffffffffffffffffffff160217905550655af3107a4000600181905550662386f26fc10000600281905550612d16806100976000396000f3fe60806040526004361061012a5760003560e01c806377b6e504116100ab578063da9fb5bd1161006f578063da9fb5bd1461062b578063dc96cbe314610690578063e6ae066d146107e9578063eaa379d91461084e578063f42204e9146108b3578063fc1abdde146108e15761012a565b806377b6e50414610564578063793cd71e1461057b5780638da5cb5b146105925780639de111b0146105e9578063d826f88f146106145761012a565b80634b114691116100f25780634b114691146102a1578063594ecf761461031e57806363a8f2d5146103835780636c3e0266146104dc5780636f9fb98a146105395761012a565b8063083341b31461012c5780631c6dbb8a146101915780631fa859e8146101f65780633f608d1b1461022557806341c0e1b51461028a575b005b34801561013857600080fd5b5061017b6004803603602081101561014f57600080fd5b81019080803573ffffffffffffffffffffffffffffffffffffffff16906020019092919050505061093e565b6040518082815260200191505060405180910390f35b34801561019d57600080fd5b506101e0600480360360208110156101b457600080fd5b81019080803573ffffffffffffffffffffffffffffffffffffffff169060200190929190505050610c2d565b6040518082815260200191505060405180910390f35b34801561020257600080fd5b5061020b610f6c565b604051808215151515815260200191505060405180910390f35b34801561023157600080fd5b506102746004803603602081101561024857600080fd5b81019080803573ffffffffffffffffffffffffffffffffffffffff169060200190929190505050610fc3565b6040518082815260200191505060405180910390f35b34801561029657600080fd5b5061029f611270565b005b3480156102ad57600080fd5b506102f0600480360360208110156102c457600080fd5b81019080803573ffffffffffffffffffffffffffffffffffffffff169060200190929190505050611301565b604051808481526020018360ff1660ff16815260200182151515158152602001935050505060405180910390f35b34801561032a57600080fd5b5061036d6004803603602081101561034157600080fd5b81019080803573ffffffffffffffffffffffffffffffffffffffff169060200190929190505050611345565b6040518082815260200191505060405180910390f35b6104da6004803603606081101561039957600080fd5b81019080803560ff169060200190929190803590602001906401000000008111156103c357600080fd5b8201836020820111156103d557600080fd5b803590602001918460208302840111640100000000831117156103f757600080fd5b919080806020026020016040519081016040528093929190818152602001838360200280828437600081840152601f19601f8201169050808301925050505050505091929192908035906020019064010000000081111561045757600080fd5b82018360208201111561046957600080fd5b8035906020019184602083028401116401000000008311171561048b57600080fd5b919080806020026020016040519081016040528093929190818152602001838360200280828437600081840152601f19601f8201169050808301925050505050505091929192905050506115df565b005b3480156104e857600080fd5b50610515600480360360208110156104ff57600080fd5b8101908080359060200190929190505050611948565b6040518082600581111561052557fe5b60ff16815260200191505060405180910390f35b34801561054557600080fd5b5061054e611970565b6040518082815260200191505060405180910390f35b34801561057057600080fd5b50610579611978565b005b34801561058757600080fd5b50610590611cda565b005b34801561059e57600080fd5b506105a7611f6b565b604051808273ffffffffffffffffffffffffffffffffffffffff1673ffffffffffffffffffffffffffffffffffffffff16815260200191505060405180910390f35b3480156105f557600080fd5b506105fe611f90565b6040518082815260200191505060405180910390f35b34801561062057600080fd5b50610629611f9a565b005b34801561063757600080fd5b5061067a6004803603602081101561064e57600080fd5b81019080803573ffffffffffffffffffffffffffffffffffffffff16906020019092919050505061203c565b6040518082815260200191505060405180910390f35b34801561069c57600080fd5b506107e7600480360360408110156106b357600080fd5b81019080803590602001906401000000008111156106d057600080fd5b8201836020820111156106e257600080fd5b8035906020019184602083028401116401000000008311171561070457600080fd5b919080806020026020016040519081016040528093929190818152602001838360200280828437600081840152601f19601f8201169050808301925050505050505091929192908035906020019064010000000081111561076457600080fd5b82018360208201111561077657600080fd5b8035906020019184602083028401116401000000008311171561079857600080fd5b919080806020026020016040519081016040528093929190818152602001838360200280828437600081840152601f19601f820116905080830192505050505050509192919290505050612325565b005b3480156107f557600080fd5b506108386004803603602081101561080c57600080fd5b81019080803573ffffffffffffffffffffffffffffffffffffffff169060200190929190505050612499565b6040518082815260200191505060405180910390f35b34801561085a57600080fd5b5061089d6004803603602081101561087157600080fd5b81019080803573ffffffffffffffffffffffffffffffffffffffff169060200190929190505050612788565b6040518082815260200191505060405180910390f35b6108df600480360360208110156108c957600080fd5b8101908080359060200190929190505050612a77565b005b3480156108ed57600080fd5b5061091a6004803603602081101561090457600080fd5b8101908080359060200190929190505050612b14565b6040518082600281111561092a57fe5b60ff16815260200191505060405180910390f35b6000610948612b3c565b6006600380602002604051908101604052809291906000905b828210156109e0578382016040518060400160405290816000820160009054906101000a900460ff16600581111561099557fe5b60058111156109a057fe5b81526020016000820160019054906101000a900460ff1660028111156109c257fe5b60028111156109cd57fe5b8152505081526020019060010190610961565b5050505090506109ee612b69565b600960008573ffffffffffffffffffffffffffffffffffffffff1673ffffffffffffffffffffffffffffffffffffffff168152602001908152602001600020604051806080016040529081600082015481526020016001820160009054906101000a900460ff1660ff1660ff16815260200160028201805480602002602001604051908101604052809291908181526020016000905b82821015610b0c578382906000526020600020016040518060400160405290816000820160009054906101000a900460ff166005811115610ac157fe5b6005811115610acc57fe5b81526020016000820160019054906101000a900460ff166002811115610aee57fe5b6002811115610af957fe5b8152505081526020019060010190610a84565b5050505081526020016003820160009054906101000a900460ff1615151515815250509050600080905060008090505b826040015151811015610c0a5760008090505b6003811015610bfc57848160038110610b6457fe5b6020020151602001516002811115610b7857fe5b84604001518381518110610b8857fe5b6020026020010151602001516002811115610b9f57fe5b1415610bef57828060010193505083604001518281518110610bbd57fe5b60200260200101610bcc612b96565b815250848160038110610bdb57fe5b60200201610be7612b96565b815250610bfc565b8080600101915050610b4f565b508080600101915050610b3c565b506003811415610c1d5760079350610c22565b600093505b839350505050919050565b6000610c37612b3c565b6006600380602002604051908101604052809291906000905b82821015610ccf578382016040518060400160405290816000820160009054906101000a900460ff166005811115610c8457fe5b6005811115610c8f57fe5b81526020016000820160019054906101000a900460ff166002811115610cb157fe5b6002811115610cbc57fe5b8152505081526020019060010190610c50565b505050509050610cdd612b69565b600960008573ffffffffffffffffffffffffffffffffffffffff1673ffffffffffffffffffffffffffffffffffffffff168152602001908152602001600020604051806080016040529081600082015481526020016001820160009054906101000a900460ff1660ff1660ff16815260200160028201805480602002602001604051908101604052809291908181526020016000905b82821015610dfb578382906000526020600020016040518060400160405290816000820160009054906101000a900460ff166005811115610db057fe5b6005811115610dbb57fe5b81526020016000820160019054906101000a900460ff166002811115610ddd57fe5b6002811115610de857fe5b8152505081526020019060010190610d73565b5050505081526020016003820160009054906101000a900460ff1615151515815250509050600080905060008090505b826040015151811015610f495760008090505b6003811015610f3b57848160038110610e5357fe5b6020020151602001516002811115610e6757fe5b84604001518381518110610e7757fe5b6020026020010151602001516002811115610e8e57fe5b148015610edf5750848160038110610ea257fe5b6020020151600001516005811115610eb657fe5b84604001518381518110610ec657fe5b6020026020010151600001516005811115610edd57fe5b145b15610f2e57828060010193505083604001518281518110610efc57fe5b60200260200101610f0b612b96565b815250848160038110610f1a57fe5b60200201610f26612b96565b815250610f3b565b8080600101915050610e3e565b508080600101915050610e2b565b506003811415610f5c5760149350610f61565b600093505b839350505050919050565b6000600960003373ffffffffffffffffffffffffffffffffffffffff1673ffffffffffffffffffffffffffffffffffffffff16815260200190815260200160002060030160009054906101000a900460ff16905090565b6000610fcd612b3c565b6006600380602002604051908101604052809291906000905b82821015611065578382016040518060400160405290816000820160009054906101000a900460ff16600581111561101a57fe5b600581111561102557fe5b81526020016000820160019054906101000a900460ff16600281111561104757fe5b600281111561105257fe5b8152505081526020019060010190610fe6565b505050509050611073612b69565b600960008573ffffffffffffffffffffffffffffffffffffffff1673ffffffffffffffffffffffffffffffffffffffff168152602001908152602001600020604051806080016040529081600082015481526020016001820160009054906101000a900460ff1660ff1660ff16815260200160028201805480602002602001604051908101604052809291908181526020016000905b82821015611191578382906000526020600020016040518060400160405290816000820160009054906101000a900460ff16600581111561114657fe5b600581111561115157fe5b81526020016000820160019054906101000a900460ff16600281111561117357fe5b600281111561117e57fe5b8152505081526020019060010190611109565b5050505081526020016003820160009054906101000a900460ff1615151515815250509050600080905060008090505b82604001515181101561124e5760008090505b6003811015611240578481600381106111e957fe5b60200201516000015160058111156111fd57fe5b8460400151838151811061120d57fe5b602002602001015160000151600581111561122457fe5b14156112335782806001019350505b80806001019150506111d4565b5080806001019150506111c1565b50600381141561126057809350611265565b600093505b839350505050919050565b6000809054906101000a900473ffffffffffffffffffffffffffffffffffffffff1673ffffffffffffffffffffffffffffffffffffffff163373ffffffffffffffffffffffffffffffffffffffff1614156112ff576000809054906101000a900473ffffffffffffffffffffffffffffffffffffffff1673ffffffffffffffffffffffffffffffffffffffff16ff5b565b60096020528060005260406000206000915090508060000154908060010160009054906101000a900460ff16908060030160009054906101000a900460ff16905083565b600061134f612b3c565b6006600380602002604051908101604052809291906000905b828210156113e7578382016040518060400160405290816000820160009054906101000a900460ff16600581111561139c57fe5b60058111156113a757fe5b81526020016000820160019054906101000a900460ff1660028111156113c957fe5b60028111156113d457fe5b8152505081526020019060010190611368565b5050505090506113f5612b69565b600960008573ffffffffffffffffffffffffffffffffffffffff1673ffffffffffffffffffffffffffffffffffffffff168152602001908152602001600020604051806080016040529081600082015481526020016001820160009054906101000a900460ff1660ff1660ff16815260200160028201805480602002602001604051908101604052809291908181526020016000905b82821015611513578382906000526020600020016040518060400160405290816000820160009054906101000a900460ff1660058111156114c857fe5b60058111156114d357fe5b81526020016000820160019054906101000a900460ff1660028111156114f557fe5b600281111561150057fe5b815250508152602001906001019061148b565b5050505081526020016003820160009054906101000a900460ff1615151515815250509050600080905060008090505b8260400151518110156115d05760008090505b60038110156115c25784816003811061156b57fe5b602002015160000151600581111561157f57fe5b8460400151838151811061158f57fe5b60200260200101516000015160058111156115a657fe5b14156115b55782806001019350505b8080600101915050611556565b508080600101915050611543565b50809350839350505050919050565b60001515600960003373ffffffffffffffffffffffffffffffffffffffff1673ffffffffffffffffffffffffffffffffffffffff16815260200190815260200160002060030160009054906101000a900460ff161515146116a8576040517f08c379a00000000000000000000000000000000000000000000000000000000081526004018080602001828103825260108152602001807f596f7520616c7265616479206265742e0000000000000000000000000000000081525060200191505060405180910390fd5b60015434101580156116bc57506002543411155b611711576040517f08c379a000000000000000000000000000000000000000000000000000000000815260040180806020018281038252602b815260200180612cb7602b913960400191505060405180910390fd5b34600960003373ffffffffffffffffffffffffffffffffffffffff1673ffffffffffffffffffffffffffffffffffffffff1681526020019081526020016000206000018190555082600960003373ffffffffffffffffffffffffffffffffffffffff1673ffffffffffffffffffffffffffffffffffffffff16815260200190815260200160002060010160006101000a81548160ff021916908360ff1602179055506001600960003373ffffffffffffffffffffffffffffffffffffffff1673ffffffffffffffffffffffffffffffffffffffff16815260200190815260200160002060030160006101000a81548160ff02191690831515021790555060008090505b82518160ff16101561194257600960003373ffffffffffffffffffffffffffffffffffffffff1673ffffffffffffffffffffffffffffffffffffffff1681526020019081526020016000206002016040518060400160405280858460ff168151811061187c57fe5b6020026020010151600581111561188f57fe5b8152602001848460ff16815181106118a357fe5b602002602001015160028111156118b657fe5b81525090806001815401808255809150509060018203906000526020600020016000909192909190915060008201518160000160006101000a81548160ff0219169083600581111561190457fe5b021790555060208201518160000160016101000a81548160ff0219169083600281111561192d57fe5b02179055505050508080600101915050611814565b50505050565b60006006826003811061195757fe5b0160000160009054906101000a900460ff169050919050565b600047905090565b60003390506000600960008373ffffffffffffffffffffffffffffffffffffffff1673ffffffffffffffffffffffffffffffffffffffff168152602001908152602001600020600001549050600080905060008090506001600960008673ffffffffffffffffffffffffffffffffffffffff1673ffffffffffffffffffffffffffffffffffffffff16815260200190815260200160002060010160009054906101000a900460ff1660ff161415611a3957611a3284611345565b9050611cbd565b6002600960008673ffffffffffffffffffffffffffffffffffffffff1673ffffffffffffffffffffffffffffffffffffffff16815260200190815260200160002060010160009054906101000a900460ff1660ff161415611aa457611a9d84612499565b9050611cbc565b6003600960008673ffffffffffffffffffffffffffffffffffffffff1673ffffffffffffffffffffffffffffffffffffffff16815260200190815260200160002060010160009054906101000a900460ff1660ff161415611b0f57611b0884610fc3565b9050611cbb565b6004600960008673ffffffffffffffffffffffffffffffffffffffff1673ffffffffffffffffffffffffffffffffffffffff16815260200190815260200160002060010160009054906101000a900460ff1660ff161415611b7a57611b738461203c565b9050611cba565b6005600960008673ffffffffffffffffffffffffffffffffffffffff1673ffffffffffffffffffffffffffffffffffffffff16815260200190815260200160002060010160009054906101000a900460ff1660ff161415611be557611bde84612788565b9050611cb9565b6006600960008673ffffffffffffffffffffffffffffffffffffffff1673ffffffffffffffffffffffffffffffffffffffff16815260200190815260200160002060010160009054906101000a900460ff1660ff161415611c5057611c498461093e565b9050611cb8565b6007600960008673ffffffffffffffffffffffffffffffffffffffff1673ffffffffffffffffffffffffffffffffffffffff16815260200190815260200160002060010160009054906101000a900460ff1660ff161415611cb757611cb484610c2d565b90505b5b5b5b5b5b5b60008114611ccf578083029150611cd4565b600091505b50505050565b6000600960003373ffffffffffffffffffffffffffffffffffffffff1673ffffffffffffffffffffffffffffffffffffffff168152602001908152602001600020600001549050600060045414611e3f573373ffffffffffffffffffffffffffffffffffffffff166108fc60045483019081150290604051600060405180830381858888f19350505050158015611d75573d6000803e3d6000fd5b507f3990db2d31862302a685e8086b5755072a6e2b5b780af1ee81ece35ee3cd33456000809054906101000a900473ffffffffffffffffffffffffffffffffffffffff16336004548401604051808473ffffffffffffffffffffffffffffffffffffffff1673ffffffffffffffffffffffffffffffffffffffff1681526020018373ffffffffffffffffffffffffffffffffffffffff1673ffffffffffffffffffffffffffffffffffffffff168152602001828152602001935050505060405180910390a1611f68565b6000809054906101000a900473ffffffffffffffffffffffffffffffffffffffff1673ffffffffffffffffffffffffffffffffffffffff166108fc829081150290604051600060405180830381858888f19350505050158015611ea6573d6000803e3d6000fd5b507f3990db2d31862302a685e8086b5755072a6e2b5b780af1ee81ece35ee3cd3345336000809054906101000a900473ffffffffffffffffffffffffffffffffffffffff1683604051808473ffffffffffffffffffffffffffffffffffffffff1673ffffffffffffffffffffffffffffffffffffffff1681526020018373ffffffffffffffffffffffffffffffffffffffff1673ffffffffffffffffffffffffffffffffffffffff168152602001828152602001935050505060405180910390a15b50565b6000809054906101000a900473ffffffffffffffffffffffffffffffffffffffff1681565b6000600554905090565b600960003373ffffffffffffffffffffffffffffffffffffffff1673ffffffffffffffffffffffffffffffffffffffff1681526020019081526020016000206000808201600090556001820160006101000a81549060ff02191690556002820160006120069190612bc6565b6003820160006101000a81549060ff021916905550506006600061202a9190612be7565b60006004819055506000600581905550565b6000612046612b3c565b6006600380602002604051908101604052809291906000905b828210156120de578382016040518060400160405290816000820160009054906101000a900460ff16600581111561209357fe5b600581111561209e57fe5b81526020016000820160019054906101000a900460ff1660028111156120c057fe5b60028111156120cb57fe5b815250508152602001906001019061205f565b5050505090506120ec612b69565b600960008573ffffffffffffffffffffffffffffffffffffffff1673ffffffffffffffffffffffffffffffffffffffff168152602001908152602001600020604051806080016040529081600082015481526020016001820160009054906101000a900460ff1660ff1660ff16815260200160028201805480602002602001604051908101604052809291908181526020016000905b8282101561220a578382906000526020600020016040518060400160405290816000820160009054906101000a900460ff1660058111156121bf57fe5b60058111156121ca57fe5b81526020016000820160019054906101000a900460ff1660028111156121ec57fe5b60028111156121f757fe5b8152505081526020019060010190612182565b5050505081526020016003820160009054906101000a900460ff1615151515815250509050600080905060008090505b8260400151518110156123165760008090505b60038110156123085784816003811061226257fe5b602002015160200151600281111561227657fe5b8460400151838151811061228657fe5b602002602001015160200151600281111561229d57fe5b14156122fb5760018314156122b157612308565b8280600101935050836040015182815181106122c957fe5b602002602001016122d8612b96565b8152508481600381106122e757fe5b602002016122f3612b96565b815250612308565b808060010191505061224d565b50808060010191505061223a565b50809350839350505050919050565b60011515600960003373ffffffffffffffffffffffffffffffffffffffff1673ffffffffffffffffffffffffffffffffffffffff16815260200190815260200160002060030160009054906101000a900460ff161515146123ee576040517f08c379a00000000000000000000000000000000000000000000000000000000081526004018080602001828103825260168152602001807f596f75206e65656420746f206265742066697273742e0000000000000000000081525060200191505060405180910390fd5b60008090505b60038110156124945782818151811061240957fe5b60200260200101516006826003811061241e57fe5b0160000160006101000a81548160ff0219169083600581111561243d57fe5b021790555081818151811061244e57fe5b60200260200101516006826003811061246357fe5b0160000160016101000a81548160ff0219169083600281111561248257fe5b021790555080806001019150506123f4565b505050565b60006124a3612b3c565b6006600380602002604051908101604052809291906000905b8282101561253b578382016040518060400160405290816000820160009054906101000a900460ff1660058111156124f057fe5b60058111156124fb57fe5b81526020016000820160019054906101000a900460ff16600281111561251d57fe5b600281111561252857fe5b81525050815260200190600101906124bc565b505050509050612549612b69565b600960008573ffffffffffffffffffffffffffffffffffffffff1673ffffffffffffffffffffffffffffffffffffffff168152602001908152602001600020604051806080016040529081600082015481526020016001820160009054906101000a900460ff1660ff1660ff16815260200160028201805480602002602001604051908101604052809291908181526020016000905b82821015612667578382906000526020600020016040518060400160405290816000820160009054906101000a900460ff16600581111561261c57fe5b600581111561262757fe5b81526020016000820160019054906101000a900460ff16600281111561264957fe5b600281111561265457fe5b81525050815260200190600101906125df565b5050505081526020016003820160009054906101000a900460ff1615151515815250509050600080905060008090505b8260400151518110156127655760008090505b6003811015612757578481600381106126bf57fe5b60200201516000015160058111156126d357fe5b846040015183815181106126e357fe5b60200260200101516000015160058111156126fa57fe5b141561274a5782806001019350508360400151828151811061271857fe5b60200260200101612727612b96565b81525084816003811061273657fe5b60200201612742612b96565b815250612757565b80806001019150506126aa565b508080600101915050612697565b506002811415612778576005935061277d565b600093505b839350505050919050565b6000612792612b3c565b6006600380602002604051908101604052809291906000905b8282101561282a578382016040518060400160405290816000820160009054906101000a900460ff1660058111156127df57fe5b60058111156127ea57fe5b81526020016000820160019054906101000a900460ff16600281111561280c57fe5b600281111561281757fe5b81525050815260200190600101906127ab565b505050509050612838612b69565b600960008573ffffffffffffffffffffffffffffffffffffffff1673ffffffffffffffffffffffffffffffffffffffff168152602001908152602001600020604051806080016040529081600082015481526020016001820160009054906101000a900460ff1660ff1660ff16815260200160028201805480602002602001604051908101604052809291908181526020016000905b82821015612956578382906000526020600020016040518060400160405290816000820160009054906101000a900460ff16600581111561290b57fe5b600581111561291657fe5b81526020016000820160019054906101000a900460ff16600281111561293857fe5b600281111561294357fe5b81525050815260200190600101906128ce565b5050505081526020016003820160009054906101000a900460ff1615151515815250509050600080905060008090505b826040015151811015612a545760008090505b6003811015612a46578481600381106129ae57fe5b60200201516020015160028111156129c257fe5b846040015183815181106129d257fe5b60200260200101516020015160028111156129e957fe5b1415612a3957828060010193505083604001518281518110612a0757fe5b60200260200101612a16612b96565b815250848160038110612a2557fe5b60200201612a31612b96565b815250612a46565b8080600101915050612999565b508080600101915050612986565b506002811415612a675760039350612a6c565b600093505b839350505050919050565b6000809054906101000a900473ffffffffffffffffffffffffffffffffffffffff1673ffffffffffffffffffffffffffffffffffffffff163373ffffffffffffffffffffffffffffffffffffffff1614612ad057600080fd5b803373ffffffffffffffffffffffffffffffffffffffff16311015612af457600080fd5b80341015612b0157600080fd5b3460046000828254019250508190555050565b600060068260038110612b2357fe5b0160000160019054906101000a900460ff169050919050565b60405180606001604052806003905b612b53612b96565b815260200190600190039081612b4b5790505090565b604051806080016040528060008152602001600060ff168152602001606081526020016000151581525090565b604051806040016040528060006005811115612bae57fe5b815260200160006002811115612bc057fe5b81525090565b5080546000825590600052602060002090810190612be49190612c6f565b50565b50600080820160006101000a81549060ff02191690556000820160016101000a81549060ff021916905550600101600080820160006101000a81549060ff02191690556000820160016101000a81549060ff021916905550600101600080820160006101000a81549060ff02191690556000820160016101000a81549060ff02191690555050565b612cb391905b80821115612caf57600080820160006101000a81549060ff02191690556000820160016101000a81549060ff021916905550600101612c75565b5090565b9056fe596f75206d75737420626574206265747765656e20302e3030303120616e6420302e30312065746865722ea265627a7a723158206cb2aea6e51b74fd6b4591ea98466caadebd98b13cbc14695a66e3393678863f64736f6c63430005100032",
  "source": "pragma solidity >=0.5.0 <0.6.0;\n\ncontract Betting{\n    address payable public owner;\n    uint256 private minBet;\n    uint256 private maxBet;\n    uint8 constant private numberOfDice = 3;\n    uint8 private numberOfFace = 6;\n    uint256 private moneyToPay;\n    uint256 private prize;\n    \n    enum Symbol {Apple, Tomato, Brocoli, Cucumber, Carrot, Pineapple}\n    enum Color {Red, Green, Orange}\n    \n    struct Player{\n        uint256 amountBet;\n        uint8 typeSelected;\n        DiceFace[] faceSelected;\n        bool isBetSet;\n    }\n    \n    struct DiceFace{\n        Symbol symbol;\n        Color color;\n    }\n    \n    DiceFace[numberOfDice] resultDices;\n    mapping(address => Player) public playerInfo;\n    function() external payable {}\n    \n    constructor() public{\n      owner = msg.sender;\n    // min is 0.0001 ether and max is 0.01 ether\n      minBet = 100000000000000;\n      maxBet = 10000000000000000;\n   }\n   \n   //event to log if the ether is sent\n   event Sent(address from, address to, uint amount );\n   \n   //kill contract\n   function kill() public {\n      if(msg.sender == owner) selfdestruct(owner);\n    }\n    \n   //bet the money\n   function bet(uint8 _typeSelected, Symbol[] memory _symbols, Color[] memory _colors) public payable{\n      require(playerInfo[msg.sender].isBetSet == false, \"You already bet.\");\n      require(msg.value >= minBet && msg.value <= maxBet, \"You must bet between 0.0001 and 0.01 ether.\");\n      playerInfo[msg.sender].amountBet = msg.value;\n      playerInfo[msg.sender].typeSelected = _typeSelected;\n      playerInfo[msg.sender].isBetSet = true;\n      for(uint8 i = 0; i < _symbols.length; i++){\n          playerInfo[msg.sender].faceSelected.push(DiceFace({\n              symbol: _symbols[i],\n              color: _colors[i]\n          }));\n      }\n   }\n   \n   //set result of dice No. that come from front-end \n   function setResult(Symbol[] memory _symbol, Color[] memory _color) public{\n       require(playerInfo[msg.sender].isBetSet == true, \"You need to bet first.\");\n       for(uint256 i = 0; i < 3; i++){\n           resultDices[i].symbol = _symbol[i];\n           resultDices[i].color = _color[i];\n       }\n   }\n   \n   //distribute the prizes for each player following the type of bet.\n   function distributePrize() public{\n       address payable player = msg.sender;\n       uint256 bet = playerInfo[player].amountBet;\n       uint256 prize = 0;\n       uint256 times = 0;\n\n           if(playerInfo[player].typeSelected == 1)times = singleDiceSymbolWinner(player);\n           else if(playerInfo[player].typeSelected == 2)times = pairDiceSymbolWinner(player);\n           else if(playerInfo[player].typeSelected == 3)times = tripleDiceSymbolWinner(player);\n           else if(playerInfo[player].typeSelected == 4)times = singleDiceColorWinner(player);\n           else if(playerInfo[player].typeSelected == 5)times = pairDiceColorWinner(player);\n           else if(playerInfo[player].typeSelected == 6)times = tripleDiceColorWinner(player);\n           else if(playerInfo[player].typeSelected == 7)times = tripleColorWinner(player);\n\n           if(times != 0){\n                prize = bet*times;\n           }else{\n                prize = 0;\n           }\n    }\n    \n    //pay to player if moneyToPay != 0 or pay to owner if = 0\n    function cashOut() public{\n        uint256 bet = playerInfo[msg.sender].amountBet;\n        if(moneyToPay != 0){\n                msg.sender.transfer(bet+moneyToPay);\n                emit Sent(owner, msg.sender, bet+moneyToPay);\n           }else{\n                owner.transfer(bet);\n                emit Sent(msg.sender, owner, bet);\n           }\n    }\n    \n    //reset the round\n    function reset() public{\n        delete playerInfo[msg.sender];\n        delete resultDices;\n        moneyToPay = 0;\n        prize = 0;\n    }\n \n    //get symbol of dice No.\n    function getDiceSymbol(uint diceNo) public view returns (Symbol){\n        return resultDices[diceNo].symbol;\n    }\n    \n    //get color of dice No.\n    function getDiceColor(uint diceNo) public view returns (Color){\n        return resultDices[diceNo].color;\n    }\n    \n    function getBetStatus() public view returns (bool){\n        return playerInfo[msg.sender].isBetSet;\n    }\n   \n    //get balance of this contract\n    function getContractBalance() public view returns (uint){\n        return address(this).balance;\n    }\n    \n    //get amount to pay \n    function getAmountToPay() public view returns (uint){\n        return prize;\n    }\n    \n    //pay by dealer following amount to pay.\n    function paybyDealer(uint amount) public payable{\n        require(msg.sender == owner);\n        require(address(msg.sender).balance >= amount);\n        require(msg.value >= amount);\n        moneyToPay +=  msg.value;\n    }\n    \n   /**bet with single symbol selected. \n    * if match 1 die get 1 times of bet, if 2 dice get 2 time of bet, if 3 dice get 3 time of bet.*/\n   function singleDiceSymbolWinner(address payable playerAddress) public returns (uint256 times){\n        DiceFace[3] memory temp = resultDices;\n        Player memory p = playerInfo[playerAddress];\n        uint256 count = 0;\n\n        for(uint256 i = 0; i < p.faceSelected.length; i++){\n            for(uint256 j = 0; j < temp.length; j++){\n                if(p.faceSelected[i].symbol == temp[j].symbol){\n                    count++;\n                }\n            }\n        }\n        \n        times = count;\n        return times;\n   }\n   \n    /**bet with pair symbol selected. \n    * if match 2 dice get 5 times of bet */\n   function pairDiceSymbolWinner(address payable playerAddress) public returns (uint256 times){\n       DiceFace[3] memory temp = resultDices;\n       Player memory p = playerInfo[playerAddress];\n       uint256 count = 0;\n\n       for(uint256 i = 0; i < p.faceSelected.length; i++){\n           for(uint256 j = 0; j < temp.length; j++){\n               if(p.faceSelected[i].symbol == temp[j].symbol){\n                   count++;\n                   delete p.faceSelected[i];\n                   delete temp[j];\n                   break;\n               }\n           }\n       }\n       \n       if(count == 2){\n           times = 5;\n       }else{\n           times = 0;\n       }\n       \n       return times;\n   }\n   \n   /**bet with single symbol selected. \n    * if match 3 dice get 3 times of bet */\n   function tripleDiceSymbolWinner(address payable playerAddress) public returns (uint256 times){\n       DiceFace[3] memory temp = resultDices;\n       Player memory p = playerInfo[playerAddress];\n       uint256 count = 0;\n       \n       for(uint256 i = 0; i < p.faceSelected.length; i++){\n           for(uint256 j = 0; j < temp.length; j++){\n               if(p.faceSelected[i].symbol == temp[j].symbol){\n                   count++;\n               }\n           }\n       }\n       \n       if(count == 3){\n           times = count;\n       }else{\n           times = 0;\n       }\n       return times;\n   }\n   \n    /**bet with single color of the symbol selected. \n    * if match 1 of 3 dice get 1 time of bet */\n   function singleDiceColorWinner(address payable playerAddress) public returns (uint256 times){\n        DiceFace[3] memory temp = resultDices;\n        Player memory p = playerInfo[playerAddress];\n        uint256 count = 0;\n\n        for(uint256 i = 0; i < p.faceSelected.length; i++){\n            for(uint256 j = 0; j < temp.length; j++){\n                if(p.faceSelected[i].color == temp[j].color){\n                    if(count == 1)break;\n                    count++;\n                    delete p.faceSelected[i];\n                    delete temp[j];\n                    break;\n                }\n            }\n        }\n        \n        times = count;\n        return times;\n   }\n   \n   /**bet with pair color of the symbol selected. \n    * if match 1 pair get 3 times of bet */\n   function pairDiceColorWinner(address payable playerAddress) public returns (uint256 times){\n        DiceFace[3] memory temp = resultDices;\n        Player memory p = playerInfo[playerAddress];\n        uint256 count = 0;\n\n        for(uint256 i = 0; i < p.faceSelected.length; i++){\n            for(uint256 j = 0; j < temp.length; j++){\n                if(p.faceSelected[i].color == temp[j].color){\n                    count++;\n                    delete p.faceSelected[i];\n                    delete temp[j];\n                    break;\n                }\n            }\n        }\n        \n        if(count == 2){\n            times = 3;\n        }else{\n            times = 0;\n        }\n        return times;\n   }\n   \n   /**bet with 3 symbol with the same color is selected. \n    * if match all get 7 times of bet */\n   function tripleDiceColorWinner(address payable playerAddress) public returns (uint256 times){\n        DiceFace[3] memory temp = resultDices;\n        Player memory p = playerInfo[playerAddress];\n        uint256 count = 0;\n\n        for(uint256 i = 0; i < p.faceSelected.length; i++){\n            for(uint256 j = 0; j < temp.length; j++){\n                if(p.faceSelected[i].color == temp[j].color){\n                    count++;\n                    delete p.faceSelected[i];\n                    delete temp[j];\n                    break;\n                }\n            }\n        }\n        \n        if(count == 3){\n            times = 7;\n        }else{\n            times = 0;\n        }\n        return times;\n   }\n   \n   /**bet with 3 symbol with the same color is selected. \n    * it must match all the symbol that player selected\n    * if match all get 20 times of bet */\n   function tripleColorWinner(address payable playerAddress) public returns (uint256 times){\n        DiceFace[3] memory temp = resultDices;\n        Player memory p = playerInfo[playerAddress];\n        uint256 count = 0;\n\n        for(uint256 i = 0; i < p.faceSelected.length; i++){\n            for(uint256 j = 0; j < temp.length; j++){\n                if(p.faceSelected[i].color == temp[j].color && p.faceSelected[i].symbol == temp[j].symbol){\n                    count++;\n                    delete p.faceSelected[i];\n                    delete temp[j];\n                    break;\n                }\n            }\n        }\n        \n        if(count == 3){\n            times = 20;\n        }else{\n            times = 0;\n        }\n        return times;\n   }\n}\n\n\n",
  "sourcePath": "/Users/narisa/Desktop/softArch/betblock/contracts/Betting.sol",
  "compiler": {
    "name": "solc",
    "version": "0.5.16+commit.9c3226ce.Emscripten.clang"
  },
  "schemaVersion": "3.1.0",
  "updatedAt": "2020-04-26T11:05:15.619Z",
  "devdoc": {
    "methods": {}
  },
  "userdoc": {
    "methods": {
      "pairDiceColorWinner(address)": {
        "notice": "bet with pair color of the symbol selected.  if match 1 pair get 3 times of bet "
      },
      "pairDiceSymbolWinner(address)": {
        "notice": "bet with pair symbol selected.  if match 2 dice get 5 times of bet "
      },
      "singleDiceColorWinner(address)": {
        "notice": "bet with single color of the symbol selected.  if match 1 of 3 dice get 1 time of bet "
      },
      "singleDiceSymbolWinner(address)": {
        "notice": "bet with single symbol selected.  if match 1 die get 1 times of bet, if 2 dice get 2 time of bet, if 3 dice get 3 time of bet."
      },
      "tripleColorWinner(address)": {
        "notice": "bet with 3 symbol with the same color is selected.  it must match all the symbol that player selected if match all get 20 times of bet "
      },
      "tripleDiceColorWinner(address)": {
        "notice": "bet with 3 symbol with the same color is selected.  if match all get 7 times of bet "
      },
      "tripleDiceSymbolWinner(address)": {
        "notice": "bet with single symbol selected.  if match 3 dice get 3 times of bet "
      }
    }
  }
}